:020000040800F2
:10000000F80600200101000851110008530E0008F5
:100010004D110008670B00088F3800080000000031
:10002000000000000000000000000000291300088C
:10003000FF0C000800000000D9110008A1250008ED
:100040001B0100081B0100081B0100081B01000820
:100050001B0100081B0100081B0100081B01000810
:100060001B0100081B0100081B010008350C0008DB
:100070001B0100081B0100081B0100081B010008F0
:100080001B0100081B0100086D0700081B01000888
:100090001B0100081B0100081B0100081B010008D0
:1000A0001B0100081B0100081B0100081B010008C0
:1000B000ED2F0008693100081B0100081B01000832
:1000C0001B0100081B0100081B0100081B010008A0
:1000D0001B010008A53600081B0100081B010008D1
:1000E0001B0100081B0100081B010008DFF80CD0F1
:1000F00000F0F0FA00480047AD3D0008F806002087
:100100000648804706480047FEE7FEE7FEE7FEE7B1
:10011000FEE7FEE7FEE7FEE7FEE7FEE7A9250008AB
:10012000ED000008F0B480EA0102D40F4200B2EB07
:10013000410F02D20246084611464A0042D0C30D82
:10014000DDB2C1F3C752AD1A202D35DAC1F3160165
:1001500041F4000204B15242C5F1200602FA06F150
:100160002A411044B3EBD05F23D0C4B1012DA0EBE2
:10017000C35009DCF0BC4FF0004202EAC352DBB2CC
:1001800000F5000000F01BBA400000F1807000EBA9
:10019000C350A0F1807040EAD170490009E04908DD
:1001A00041EAC071A0EBC35000F50000400800EB2D
:1001B000C350F0BC00F0FAB96142012202EB4101E8
:1001C000001BF6E7F0BC704781F00041AAE780F021
:1001D0000040A7E780EA010210B502F000434000AA
:1001E00022D04A001FD0010E01EB1261C0F356006D
:1001F000C2F3560240F4000042F40002A0FB0220C9
:1002000000047F39140400D0401C50EA124001D48D
:100210004000491EC2B20C0604EBD010401C40083E
:10022000802A02D003E0002010BD20F00100002948
:1002300000DA0020184310BD30B480EA010202F059
:10024000004530F0004221F0004013D090B1C30DC2
:10025000D40DC2F31601C0F31600E41A41F40001F4
:1002600040F400027D34914201D3641C00E0490057
:10027000002C02DA30BC002070474FF4000000234D
:10028000914201D3891A034340084FEA4101F7D153
:1002900051B1914202D14FF0004105E002D24FF03E
:1002A000010101E06FF0010103EBC450284430BCB0
:1002B00000F07CB92DE9FE4F81EA030404F000440C
:1002C00021F0004100944FF0000B23F0004350EA6E
:1002D00001045ED052EA03045BD0C3F30A54C1F3B5
:1002E0000A552C44A4F2F3340194A0FB0254C1F348
:1002F000130141F48011C3F3130343F4801301FB92
:10030000024400FB034E840A970A44EA815447EAF8
:100310008357A4FB076802958D0A05FB07854FEA02
:10032000932C04FB0C542705029D4FEA065847EA1C
:100330001637B5EB08056EEB070C870E920E47EAF1
:10034000811742EA8312A7FB0201B6EB0B0164EBB3
:1003500000042B0D43EA0C335E1844EB1C50DA46C4
:100360005146E7FB0201C5F313044FEA0B3343EA9E
:1003700014534FEA0432019C43EA0603A4F10C042F
:100380000294009CCDE900B400F056F903B0BDE83A
:10039000F08F00200146F9E72DE9F04D81EA0304D2
:1003A00004F0004B21F0004514464FF0000A23F002
:1003B000004150EA050220D054EA01021DD0C5F3E5
:1003C0000A570246C5F31303C1F31300C1F30A56DB
:1003D00040F4801543F48013A7EB0608101BD646A3
:1003E00008F2FD3873EB050002D308F1010801E0C3
:1003F00092185B41B8F1000F03DA00200146BDE816
:10040000F08D00204FF48011064684460EE0171B45
:1004100073EB050705D3121B63EB050306434CEA98
:10042000010C49084FEA300092185B4150EA01077D
:10043000EDD152EA030012D082EA040083EA0501FA
:10044000084305D0101BAB4106D20122002306E071
:1004500000224FF0004302E06FF0010253101AEB4C
:1004600006004CEB085110EB0A0041EB0B01BDE814
:10047000F04D00F0D2B8C10F80EAE0700844CA071E
:100480009623002100F09BB896230022114600F02D
:1004900096B80EB540F2334102910021CDE900112A
:1004A0000A460B4600F0C8F803B000BD20F000403B
:1004B000C10DC0F3160040F400007F2901DA0020CE
:1004C0007047962903DCC1F19601C8407047963900
:1004D00088407047C1F30A5210B5C1F3130140F2CE
:1004E000FF3341F480119A4201DA002010BD40F23E
:1004F00033439A42A2F2334203DC524200F046F800
:1005000010BD904010BD00F0004230F000400AD015
:10051000C10D01F56071C0F3160042EA0151C20835
:1005200040071143704700200146704701F0004327
:1005300030B421F0004150EA010206D00A0DA2F5C4
:100540006072C1F31301002A02DC30BC0020704746
:10055000440F44EAC104C100E01830BC00EBC250B3
:1005600000F024B8002801DBC0F10040002901DBC5
:10057000C1F1004181427047002801DBC0F1004019
:10058000002901DBC1F1004188427047202A04DBC9
:10059000203A21FA02F00021704721FA02F3D040FC
:1005A000C2F1200291400843194670470029A8BFB4
:1005B0007047401C490008BF20F00100704710B48C
:1005C000B0FA80FC00FA0CF050EA010404BF10BC41
:1005D000704749B1CCF1200421FA04F411FA0CF16E
:1005E00018BF012121430843A3EB0C01CB1D4FEAA7
:1005F00000614FEA102042BF002010BC704700EBA2
:10060000C35010440029A4BF10BC7047401C4900CF
:1006100008BF20F0010010BC704710B5141E73F124
:10062000000408DA401C41F1000192185B411A43B2
:1006300001D120F0010010BD2DE9F04D92469B46FE
:1006400011B1B1FA81F202E0B0FA80F220329046A4
:1006500000F052F804460F4640EA0A0041EA0B0156
:1006600053465A46084313D0114653EA010019D0A5
:10067000C8F140025046FFF789FF05460E46504636
:100680005946424600F038F8084305D0012004E0FE
:1006900020463946BDE8F08D0020054346EAE07665
:1006A0002C4337430A986305E40AA0EB08000022B4
:1006B000FD0A44EA47540A3002D500200146E9E722
:1006C000010510196941DDE9084500196941BDE8D6
:1006D000F04DA2E7064C074D06E0E06840F001034C
:1006E00094E8070098471034AC42F6D3FFF702FDB8
:1006F0007CE700089CE70008202A04DB203A00FA87
:1007000002F1002070479140C2F1200320FA03F368
:1007100019439040704770B58C1810F8015B15F0C4
:10072000070301D110F8013B2A1106D110F8012B63
:1007300003E010F8016B01F8016B5B1EF9D12B0788
:1007400005D40023521E0DD401F8013BFAE710F83E
:10075000013BCB1A921C03E013F8015B01F8015B2B
:10076000521EF9D5A142D8D3002070BD10B54FF468
:1007700008712E4800F098F8002856D02B4800F059
:100780008FF82B492B4A128821F81200294800883B
:10079000012833DB28480088012815D12548008826
:1007A000401E31F81000B0F5FA7F27DD08462149D8
:1007B000098830F81100322820DA01201E4988808B
:1007C0001C480088088119E01B484088012815D181
:1007D00018480088401E164931F8100032280DDAFA
:1007E00008461449098830F81100B0F5FA7F05DD94
:1007F00001201149C8800F48008808810D480088F1
:10080000401C0C49088008460088782808DB012035
:100810000A490873002001F02DF8002005490880DE
:100820004FF40871014800F00BF810BD002401409E
:1008300008020020180000209601002088010020F6
:1008400000220A12D3430360704721B1826842F04C
:100850000102826003E0826822F001028260704738
:1008600021B1826842F48072826003E0826822F4DF
:1008700080728260704721B1826842F48012826087
:1008800003E0826822F480128260704701460020F3
:100890008A6802F004020AB1012000E000207047DB
:1008A0000146C86C80B2704770B502460020002334
:1008B00000240B125568CEB205EA060415681D40E7
:1008C00015B10CB1012000E0002070BD10B500236F
:1008D000CBB21AB144681C43446002E044689C43B4
:1008E000446010BD30B502460020002350680F4C14
:1008F00020400D790C6844EA05242043506090683C
:100900000B4C2040D1E902542C434D7944EA450474
:1009100020439060D06A20F470000C7C641EE4B226
:10092000234340EA0350D06230BD0000FFFEF0FFD9
:10093000FDF7F1FFF0B504460D4600200021092D1A
:1009400011DDE068A5F10A0606EB4607072606FA60
:1009500007F18843A5F10A0606EB460603FA06F1FD
:100960000843E0600CE0206905EB4507072606FA1E
:1009700007F1884305EB450603FA06F108432061B9
:10098000072A0FDA606B561E06EB86071F2606FA4B
:1009900007F18843561E06EB860605FA06F1084362
:1009A000606322E00D2A0FDA206BD61F06EB860764
:1009B0001F2606FA07F18843D61F06EB860605FABE
:1009C00006F10843206310E0E06AA2F10D0606EB91
:1009D00086071F2606FA07F18843A2F10D0606EBEB
:1009E000860605FA06F10843E062F0BD816841F031
:1009F000040181607047000008B50121042000F067
:100A000019FC0120ADF8000004208DF803006946B0
:100A1000014800F08AF908BD0008014000B591B016
:100A20000121480200F006FC0121084600F0E2FB2B
:100A3000FFF7E2FF00200C908DF835000F908DF845
:100A400034004FF400200E9001208DF8400037480C
:100A500001908015079000200590354802904FF4D2
:100A600080600890802006907820049020200990D3
:100A7000002003900B904FF400500A9001A92D48DC
:100A800000F01FF901212B4800F0F0F800F038F9D0
:100A900001220221274800F00BF90CA923484C3809
:100AA000FFF720FF00F04AF82348007801280CD116
:100AB00001224FF408711D484C38FFF707FF002151
:100AC0001A484C38FFF7CCFE0FE01B48407801284D
:100AD0000BD100224FF4087114484C38FFF7F6FE92
:100AE000012112484C38FFF7BBFE01210F484C385A
:100AF000FFF7ABFE002000F071FB00230122194636
:100B00000A484C38FFF716FF012108484C38FFF718
:100B1000B2FE06484C38FFF769FF00BF03484C3867
:100B2000FFF7B4FE0028F9D111B000BD4C240140FC
:100B300008020020080002401601002008B54FF40A
:100B4000C06000F03FFB12208DF8000001208DF8FE
:100B5000010000208DF8020001208DF80300684696
:100B600000F0F8FA08BD00BFFEE7000010B504462B
:100B700054B101224FF408710948FFF7A7FE012183
:100B80000748FFF762FE09E000224FF408710448AD
:100B9000FFF79CFE00210248FFF757FE10BD000042
:100BA0000024014010B504466CB1012202210D4819
:100BB00000F07EF801210B4800F058F801210A48A6
:100BC000FFF74EFE0CE000220221064800F070F80C
:100BD0000021044800F04AF800210348FFF740FED6
:100BE00010BD0000080002400024014038B5044652
:100BF00074B10121042000F01DFB0120ADF80000BC
:100C000004208DF803006946094800F08EF80EE0D4
:100C10000121042000F00EFB0120ADF800000020AF
:100C20008DF803006946024800F07FF800BF38BD28
:100C30000008014010B5022000F024F828B101207E
:100C400002490873022000F003F810BD880100205B
:100C500000F0805111B10349086001E00249486089
:100C600070470000040402400000024021B1026805
:100C700042F00102026004E002684FF6FE731A407F
:100C80000260704701460020002201F0805313B13A
:100C9000054B1A6801E0054B1A6802EA01030BB123
:100CA000012000E0002070470004024000000240E4
:100CB0001AB103680B43036002E003688B430360CF
:100CC000704710B50022026847F6F0739A430C6A29
:100CD0008B6823430C6923434C6923438C6923436A
:100CE000CC6923434C6A23438C6A23431A43026032
:100CF000CB6843600B6883604B68C36010BD70476E
:100D000008B54FF4C06000F05DFA0B208DF80000CC
:100D100001208DF8010000208DF8020001208DF8DF
:100D20000300684600F016FA08BD2DE9F0410246BE
:100D300000250026002000230024002791F803C08E
:100D40000CF00F0591F803C00CF0100CBCF1000F73
:100D500003D091F802C04CEA050591F800C0BCF13F
:100D6000000F31D0146800202BE04FF0010C0CFA7A
:100D700000F3B1F800C00CEA03069E4220D18300C4
:100D80004FF00F0C0CFA03F7BC4305FA03FC4CEAD6
:100D9000040491F803C0BCF1280F06D14FF0010CF8
:100DA0000CFA00FCC2F814C00AE091F803C0BCF1D0
:100DB000480F05D14FF0010C0CFA00FCC2F810C02E
:100DC000401C0828D1D31460B1F800C0BCF1FF0F5B
:100DD00034DD546800202EE000F1080C4FF00108CB
:100DE00008FA0CF3B1F800C00CEA03069E4221D1C8
:100DF00083004FF00F0C0CFA03F7BC4305FA03FC19
:100E00004CEA040491F803C0BCF1280F05D100F1AD
:100E1000080C08FA0CF8C2F8148091F803C0BCF171
:100E2000480F07D100F1080C4FF0010808FA0CF840
:100E3000C2F81080401C0828CED35460BDE8F08171
:100E40000246002093680B400BB1012000E0002017
:100E5000704700BFFEE7000070B5002500240221A6
:100E60002A48FFF7EDFF08B901250DE0802127484A
:100E7000FFF7E6FF08B9012506E04FF4807123482B
:100E8000FFF7DEFF00B901252DB121480088401C85
:100E90001F49088002E001201E4948701C48008854
:100EA0000A281FDD00201A49088080211748FFF713
:100EB000C7FF08B902240DE002211448FFF7C0FF64
:100EC00008B9032406E04FF480711048FFF7B8FF1B
:100ED00000B9042400200F4948700120087008461A
:100EE000847000E000240B48007801280AD10948EA
:100EF0004078012806D10020064908700846847809
:100F0000204670BD00242046FBE700000008014099
:100F10005C0100205801002008B501210C2000F0E0
:100F200089F94FF4C170ADF8000048208DF8030036
:100F300069460248FFF7F9FE08BD000000080140BD
:100F400008B50121042000F075F90C20ADF800006F
:100F500010208DF8030003208DF802006946054833
:100F6000FFF7E3FE0120044908600449C1F88C0141
:100F700008BD000000080140880121420000214214
:100F800008B55648008800EB4000554901EB800049
:100F9000807900282FD101F06BFB524864231A4658
:100FA0003C2100906E2001F066FC40F2FF500F23C0
:100FB00040F2531212210090002001F0B1FE40F2E5
:100FC000FF500F2340F25312C8210090002001F07F
:100FD000A7FE40F2FF50002343A2142100901846C0
:100FE00001F08CFC01203D49098801EB41013C4A9C
:100FF00002EB810188713948008800EB40003849D4
:1010000001EB8000807801282ED14248008858BB2F
:1010100001204049088000203F490880314864236E
:101020001A463C2100906E2001F025FC40F2FF5052
:101030000F2340F2531212210090002001F070FEA5
:1010400040F2FF500F2340F25312C82100900020BD
:1010500001F066FE40F2FF50002323A2142100900D
:10106000184601F04BFC37E01C48008800EB4000BC
:101070001B4901EB8000807802282DD1264800888A
:1010800050BB0020234908800120234908802348C1
:1010900064231A463C2100906E2001F0ECFB4FF6D1
:1010A00019600F2340F2531212210090002001F02A
:1010B00037FE4FF619600F2340F25312C8210090FB
:1010C000002001F02DFE4FF61960002314A2142118
:1010D0000090184601F012FC08BD0000140000202A
:1010E000240000202C4B00082D2D2D2D2D2D2D2DD5
:1010F0002D2D2D2D2D4F7363696C6C6F73636F7085
:10110000652D2D2D2D2D2D2D2D2D2D2D2D2D2D2DD7
:10111000000000001C0000201E0000205499000860
:101120002D2D2D2D2D2D2D2D2D2D57617665666F95
:10113000726D2047656E657261746F722D2D2D2D55
:101140002D2D2D2D2D2D2D2D0000000000BFFEE793
:101150007047000070B5002100230F22C47804B34B
:10116000154C246804F4E064C4F5E064210AC1F17C
:101170000403CA40447804FA03F1847814402143FC
:1011800009010E4C0678A155047804F01F050124CE
:10119000AC4005786D11AD0005F1E025C5F80041C2
:1011A00009E0047804F01F050124AC40044D0678E2
:1011B000761145F8264070BD0CED00E000E400E03B
:1011C00080E100E002490143024A116070470000DB
:1011D0000000FA050CED00E0704700000146002019
:1011E000034A506820F440400843506070470000B4
:1011F0000010024029B1064A52690243044B5A6169
:1012000004E0034A52698243014B5A61704700006F
:101210000010024029B1064AD2690243044BDA6148
:1012200004E0034AD2698243014BDA61704700004F
:101230000010024029B1064A92690243044B9A61A8
:1012400004E0034A92698243014B9A6170470000AF
:101250000010024030B500210022002400232D4D53
:101260006D6805F00C0121B1042905D0082923D1AE
:1012700005E0294D056022E0274D05601FE0254D62
:101280006D6805F47012234D6D6805F480340225F5
:1012900005EB92421CB9214D554305600BE01D4DF5
:1012A0006D6805F400351DB11C4D5543056002E025
:1012B000194D5543056002E0174D056000BF00BFA2
:1012C000144D6D6805F0F0010909154D6B5C05685A
:1012D000DD4045600F4D6D6805F4E061090A104D71
:1012E0006B5C4568DD4085600A4D6D6805F46051B2
:1012F000C90A0B4D6B5C4568DD40C560054D6D68E6
:1013000005F44041890B074D6B5CC568B5FBF3F5EF
:10131000056130BD0010024000127A0000093D0056
:101320000000002010000020704710B5044614B1E2
:1013300002F0F4FA01E002F027FC10BD2DE9F843B9
:1013400000246F48007B01287ED100206C4908737F
:1013500000F070FA14206A494880084640886949BC
:1013600031F810006649088108464088654931F81F
:1013700010006349488100BFA9E06348C068A042EB
:1013800046D861488068A04242D35E4830F81400D5
:10139000322190FBF1F0C0F1710059498880084674
:1013A0004088C880084640885749098A08445449FB
:1013B00048805449601C31F81000322190FBF1F054
:1013C000C0F171004E4908804E49601C31F8100090
:1013D000B0F57A6F1DDD084630F81400642818DA7D
:1013E00047494888FFF750F8054645490888FFF700
:1013F0004BF8064642494888FFF746F8074647F645
:10140000E070424B2A4631460090384601F092FA8D
:101410005BE03C49601C31F81000642820DA084683
:1014200030F81400B0F57A6F1ADD35494888FFF7B7
:101430002BF8054632490888FFF726F8064630495A
:101440004888FFF721F800E048E0074647F6E070DB
:101450002F4B2A4631460090384601F06BFA34E0B3
:1014600027480089274931F81410884204DC2548B0
:1014700030F814002249088121484089214931F877
:101480001410884204DD1F4830F814001C494881BC
:101490001B490888FEF7F8FF054619494888FEF7FA
:1014A000F3FF064616498888FEF7EEFF0746144903
:1014B000C888FEF7E9FF804647F6E0702B463246C3
:1014C00039460090404601F035FA601C84B2782C11
:1014D000FFF653AF0020FFF728FF0FE00D4800781C
:1014E00001280BD100200B4908700120FFF71DFFD8
:1014F000012000F09FF9002000F0B6F9BDE8F88364
:101500008801002008020020740100200000E04251
:10151000000004425601002010B502F0F7FB012242
:101520004721172002F040F8FFF778FA012001F078
:10153000F7FF01234FF4FA724721500002F086F8BA
:1015400000F002F810BD0000FEB546F64D3001F087
:10155000BBFA0020AA23FF221E210090142001F0D4
:10156000DFFB4FF6A060904B904A194600909048E0
:1015700001F0E0F94FF6A0608E4B8C4A19460090BE
:101580008B4801F0D7F94FF6A0608B4B874A19467C
:101590000090874801F0CEF94FF6A060874B834A50
:1015A00019460090824801F0C5F94FF6A060824BC1
:1015B000834A80490090104601F0BCF94FF6A060C4
:1015C0007D4B804A7B490090104601F0B3F94FF6FD
:1015D000A060794B7C4A77490090104601F0AAF947
:1015E0004FF6A060744B714A72490090104601F0AA
:1015F000A1F946F64D304FF6FF7374A26C210090AE
:10160000002001F07BF946F64D304FF6FF7370A2D3
:101610000C210090002001F071F901241EE004EB80
:10162000C40101EB0411142202EB4100FEF723FF79
:10163000054604EBC40101EB0411142202EB410046
:10164000FEF719FF06464FF22C505B4B2A466249C3
:101650000090304601F06EF9601CC4B2042CDEDD4F
:1016600001241EE0C4EBC40101EB41011E2202EB88
:101670004100FEF700FF0546C4EBC40101EB410148
:101680001E2202EB4100FEF7F6FE06464FF22C50FA
:101690002B46524A31460090514801F04BF9601CEC
:1016A000C4B2032CDEDD4F484078012841D14DF60D
:1016B000A7004FF6FF734CA208210090502001F0C4
:1016C0001DF949F699104FF4FC6102220023CDE97F
:1016D00000210290494ACD21184601F05DF849F6F3
:1016E00099104FF4FC6102221346CDE900210290CB
:1016F000424ACD21462001F04FF849F699104FF4A7
:10170000FC6103220423CDE9002102903B4ACD2154
:10171000912001F041F849F699104FF4FC61032241
:101720000723CDE900210290344ACD21E62001F0C3
:1017300033F82C480078012834D14DF6A7004FF635
:10174000FF732FA208210090562001F0D7F840F235
:1017500051404FF6E0732EA2282100904FF48B7079
:1017600001F0CCF843F266604FF6FF732AA23C21E9
:1017700000904FF48B7001F0C1F84DF6A7004FF6C2
:10178000FF7327A2502100904FF48B7001F0B6F840
:1017900047F65D304FF6FF7323A2CD210090122053
:1017A00001F0ACF8FEBD00000000E04100008A43FB
:1017B000000088410000E841000048430000494320
:1017C000000098410000904100808943305600009D
:1017D000332E3356000000000000F04100808843A3
:1017E0000000A0411601002052616E67653A314841
:1017F0007A2D3330304B485A000000004C49000825
:1018000053696E676C652054726967676572000082
:101810004D4F4445000000003E46616C6C000000E6
:101820003E526973650000007C5F5F5F7C3D313232
:10183000306D730010B504462046FFF7B3F910BDB4
:1018400010B50020FFF7F6FF00224721172001F016
:10185000ABFE00234FF4FA724721500001F0F6FE70
:10186000002001F05DFE10BD10B504462046FFF7D4
:10187000BDF910BD10B504461CB10120FFF776F983
:1018800002E00020FFF772F910BD000010B5012240
:10189000472141F2883001F087FE00200949487055
:1018A00001200870002008498880488001200880B5
:1018B000002048800120FFF7D7FFFFF7AFF8FFF7C0
:1018C00043FE10BD16010020960100202DE9F843CB
:1018D0000024BA48007B01287ED10020B749087354
:1018E0001E204880B6488088012803D0B448C088AC
:1018F000012872D147F65D304FF6FF73B1A2CD21BA
:101900000090122000F0FAFFAD480088012803D1B2
:101910000220AB49888006E0A9484088012802D10E
:101920000220A749C880A64800890A38F02805DDAA
:10193000A34800890A30A249088109E0A04800892B
:101940000A30782804DD9E4800890A389C490881BD
:10195000002491E09A4800890A38A04247DC984860
:1019600000890A30A04242DB994830F81400322145
:1019700090FBF1F0C0F171009049888008464088E2
:10198000C880084640880A3048809149601C31F878
:101990001000322190FBF1F0C0F1710087490880FE
:1019A0008B49601C31F81000B0F57A6F20DD0846D5
:1019B00030F8140064281BDA80494888FEF764FD7B
:1019C00005467E490888FEF75FFD06467B49488844
:1019D000FEF75AFD074601E0EEE051E047F6E07001
:1019E0007C4B2A4631460090384600F0A3FF41E088
:1019F0007749601C31F8100064281EDA084630F878
:101A00001400B0F57A6F18DD6C494888FEF73CFD8C
:101A100005466A490888FEF737FD06466749488843
:101A2000FEF732FD074647F6E0706B4B2A4631461B
:101A30000090384600F07EFF1CE060490888FEF701
:101A400023FD05465D494888FEF71EFD06465B49B5
:101A50008888FEF719FD07465849C888FEF714FD27
:101A6000804647F6E0702B463246394600904046A5
:101A700000F060FF601C84B2782CFFF66BAF9BE037
:101A80004F4880880028FAD14D48C0880028F6D1F8
:101A900047F65D304FF6FF7350A2CD210090122023
:101AA00000F02CFF002484E0494830F81400322173
:101AB00090FBF1F0C0F171004049888008464088F1
:101AC000C88008464088801C48804149601C31F825
:101AD0001000322190FBF1F0C0F17100374908800D
:101AE0003B49601C31F81000B0F57A6F1DDD0846E7
:101AF00030F81400642818DA30494888FEF7C4FC2E
:101B000005462E490888FEF7BFFC06462B49488843
:101B1000FEF7BAFC074647F6E0702E4B2A463146E0
:101B20000090384600F006FF41E02949601C31F87A
:101B3000100064281EDA084630F81400B0F57A6FF9
:101B400018DD1E494888FEF79FFC05461B4908889A
:101B5000FEF79AFC064619494888FEF795FC0746A9
:101B600047F6E0701C4B2A4631460090384600F09C
:101B7000E1FE1CE011498888FEF786FC05460F4906
:101B80004888FEF781FC06460C490888FEF77CFC75
:101B900007460A49C888FEF777FC804647F6E0709A
:101BA0002B46324639460090404600F0C3FE601C8A
:101BB00084B2782CFFF678AFBDE8F8838801002066
:101BC000960100207C5F5F5F7C3D32306D730000CA
:101BD000080200200000E042000004427C5F5F5FDA
:101BE0007C3D3132306D73002DE9F8431420BC493F
:101BF0004880BC484078012870D1002491E0BA4860
:101C0000C068A04245D8B8488068A04241D3B748D0
:101C100030F81400322190FBF1F0C0F17100B049AE
:101C2000888008464088C88008464088AE49098AAE
:101C30000844AB494880AD49601C31F8100032219E
:101C400090FBF1F0C0F17100A5490880A749601C24
:101C500031F81000B0F57A6F1CDD084630F814003A
:101C6000642817DA9E494888FEF70EFC05469C4911
:101C70000888FEF709FC064699494888FEF704FCE7
:101C8000074600209A4B2A4631460090384600F01D
:101C900051FE40E09549601C31F8100064281EDABE
:101CA000084630F81400B0F57A6F18DD8C49488882
:101CB000FEF7EAFB05468A490888FEF7E5FB06467B
:101CC00087494888FEF7E0FB07460020894B2A46F3
:101CD00031460090384600F02DFE1CE025E080499A
:101CE0000888FEF7D1FB05467D494888FEF7CCFB06
:101CF00006467B498888FEF7C7FB07467849C888AF
:101D0000FEF7C2FB804600202B4632463946009043
:101D1000404600F00FFE0020744921F81400601CBA
:101D200084B2782CFFF66BAF91E06E480078012802
:101D3000FAD11E206A494880002485E06B4830F8BB
:101D40001400322190FBF1F0C0F1710064498880E9
:101D500008464088C88008464088801C48806349FF
:101D6000601C31F81000322190FBF1F0C0F17100DD
:101D70005B4908805D49601C31F81000B0F57A6F4E
:101D80001CDD084630F81400642817DA54494888E6
:101D9000FEF77AFB054652490888FEF775FB0646B2
:101DA0004F494888FEF770FB07460020504B2A46F3
:101DB00031460090384600F0BDFD3FE04B49601CC5
:101DC00031F8100064281DDA084630F81400B0F528
:101DD0007A6F17DD42494888FEF756FB05464049B1
:101DE0000888FEF751FB06463D494888FEF74CFB44
:101DF000074600203F4B2A4631460090384600F007
:101E000099FD1BE036498888FEF73EFB05463449BC
:101E10004888FEF739FB064631490888FEF734FB4F
:101E200007462F49C888FEF72FFB804600202B4627
:101E3000324639460090404600F07CFD00202B4998
:101E400021F81400601C84B2782CFFF677AF0124CF
:101E50001EE004EBC40101EB0411142202EB41006B
:101E6000FEF709FB054604EBC40101EB0411142243
:101E700002EB4100FEF7FFFA06464FF22C501E4BD4
:101E80002A461E490090304600F054FD601C84B282
:101E9000042CDEDD01241EE0C4EBC40101EB410192
:101EA0001E2202EB4100FEF7E6FA0546C4EBC40130
:101EB00001EB41011E2202EB4100FEF7DCFA06466F
:101EC0004FF22C502B460E4A314600900D4800F040
:101ED00031FD601C84B2032CDEDDBDE8F883000018
:101EE0008801002016010020740100200802002053
:101EF0000000E04200000442000048430000F041BE
:101F0000008088430000A041F8B50020AA23FF22EA
:101F10001E210090142000F003FF01241EE004EBBA
:101F2000C40101EB0411142202EB4100FEF7A3FAF5
:101F3000054604EBC40101EB0411142202EB41003D
:101F4000FEF799FA06464FF22C50174B2A461749CE
:101F50000090304600F0EEFC601CC4B2042CDEDDC4
:101F600001241EE0C4EBC40101EB41011E2202EB7F
:101F70004100FEF780FA0546C4EBC40101EB4101C4
:101F80001E2202EB4100FEF776FA06464FF22C5075
:101F90002B46074A31460090064800F0CBFC601CF7
:101FA000C4B2032CDEDDF8BD000048430000F04160
:101FB000008088430000A04110B500F001F810BD7A
:101FC0000CB50020019000903348006840F4803048
:101FD0003149086000BF3048006800F400300090CC
:101FE0000198401C0190009818B90198B0F5A06FB5
:101FF000F1D12948006800F4003010B101200090B0
:1020000001E0002000900098012843D12348006897
:1020100040F01000214908600846006820F00300E5
:1020200008600846006840F0020008601A484068EE
:10203000194948600846406848600846406840F4CE
:10204000806048600846406820F47C10486008467C
:10205000406840F4E81048600846006840F080702E
:10206000086000BF0C48006800F000700028F9D03C
:102070000948406820F00300074948600846406866
:1020800040F00200486000BF0348406800F00C00C8
:102090000828F9D10CBD00000010024000200240C9
:1020A00000BF011EA0F1010290B2FAD170470000FA
:1020B00070B5044601201749086000201649C1F890
:1020C000B8011449091F08601349C1F8A801002587
:1020D0001AE000200F491039086004F080008028C1
:1020E00003D10120091D086003E0002009490C39D3
:1020F00008600120FFF7D4FF01200649103908606D
:102100006006040E681CC5B2082DE2DB01200149FF
:10211000086070BDB88121420080214270B504463C
:1021200001201849086000201749C1F8B8010120B2
:102130001449091F086000201349C1F8A8010025AF
:102140001AE000200F491039086004F08000802850
:1021500003D10120091D086003E0002009490C3962
:1021600008600120FFF79CFF012006491039086034
:102170006006040E681CC5B2082DE2DB012001498F
:10218000086070BDB88121420080214208B54B48EB
:10219000008800EB40004A4901EB80004079F0B92B
:1021A00001204649098801EB4101454A02EB8101C2
:1021B000487100F05DFA4FF6B20047F6E07341A2B5
:1021C00014210090002000F099FB4FF6B20047F672
:1021D000E0733EA228210090002000F08FFB3748DA
:1021E000008800EB4000364901EB8000807930BB6D
:1021F00001203249098801EB4101314A02EB81019A
:10220000887100F035FAFFF71BFB0020FFF732FB67
:102210004FF6B20047F6E0732AA214210090002086
:1022200000F06CFB4FF6B20047F6E07327A22821BE
:102230000090002000F062FB0020274908701F4832
:10224000008800EB40001E4901EB800080780128E7
:1022500014D14FF6B20047F6E07320A2142100908B
:10226000282000F04BFB4FF6B20047F6E0731CA2AB
:1022700028210090402000F041FB1DE00F4800881D
:1022800000EB40000E4901EB80008078022813D15A
:102290004FF6B20047F6E07311A2142100902820F7
:1022A00000F02CFB4FF6B20047F6E0730BA228219A
:1022B0000090402000F022FB08BD00001400002028
:1022C00024000020312E50574D000000322E53695B
:1022D0006E676C6500000000200000203C2D0000AF
:1022E0002020000010B53148008800EB4000304944
:1022F00001EB8000407950B901202C49098801EB9D
:1023000041012B4A02EB81014871FFF705F927488B
:10231000008800EB4000264901EB8000807950B92D
:1023200001202249098801EB4101214A02EB810188
:10233000887100F09DF91F480078022805D11E48D9
:102340000088401C1C49088008E01A4800780328CF
:1023500004D119480088401E17490880FEF7EEFF97
:1023600016480088B0F57A7F1FDD002013490880E9
:1023700013480078401C124908700846007803286A
:1023800008D11048007B80B90F48007868B9FFF782
:10239000BBFD0AE00B48007B38B90B48007820B938
:1023A000FFF722FC0120FFF75FFA10BD14000020A8
:1023B0002400002016000020740100205E0100208F
:1023C00020000020880100205601002008B5514857
:1023D000008800EB4000504901EB8000407968B96B
:1023E000FFF754FA00204D49087001204949098837
:1023F00001EB4101484A02EB8101487148480078ED
:10240000022814D1FFF780FD46480088012803D137
:1024100000204449888006E042484088012802D1D3
:1024200000204049C8800120FFF724FA4AE03C48D8
:102430000078032846D139480078401C3749087095
:102440000846007801281BD14DF6A7004FF6FF7310
:1024500035A23C2100904FF48B7000F04FFA43F20C
:1024600066604FF6FF7332A2502100904FF48B70DC
:1024700000F044FA01202B4948800020088021E028
:102480002648007802281DD100202449087043F214
:1024900066604FF6FF7324A23C2100904FF48B70CE
:1024A00000F02CFA4DF6A7004FF6FF7320A2502142
:1024B00000904FF48B7000F021FA002019494880F9
:1024C00001200880FFF702FA1B480088B0F57A7FE8
:1024D0001EDD0020184908801848007BC0B911484B
:1024E0000088012808D10F48808828B9FFF77CFBB5
:1024F0000120FFF7BFF90BE00A484088012807D107
:102500000848C08820B9FFF76FFB0120FFF7B2F938
:1025100008BD000014000020240000201401002049
:1025200016000020960100203E46616C6C00000001
:102530003E526973650000005E01002088010020A2
:1025400012480088B0F52F7F1FDD00200F4908805A
:102550000F48008800EB40000E4901EB80008078B6
:10256000012812D00A48008800EB400001EB8000EF
:102570008078022809D00648008800EB400001EB73
:1025800080008078032800D000BF70475E010020E3
:1025900014000020240000207047704770477047E7
:1025A00010B500F031F810BD10B51348006840F0C8
:1025B00001001149086008464068104908400E496A
:1025C0004860084600680E4908400B490860084604
:1025D000006820F4802008600846406820F4FE006F
:1025E00048604FF41F008860FFF7E6FC4FF0006082
:1025F0000449086010BD0000001002400000FFF810
:10260000FFFFF6FE08ED00E002480088401C01498B
:10261000088070475E01002030B51249B1F1807F1B
:1026200000D31DE021F07F40401E4FF0E0225061BA
:1026300050170F22002807DA13071D0E0A4B00F06F
:102640000F04241F1D5503E013071C0E074B1C54D9
:1026500000BF00204FF0E02290610720106100BF12
:1026600030BD00004019010018ED00E000E400E07A
:1026700070B52A20FFF71CFD0020FFF74FFD00205A
:10268000FFF74CFD0120FFF749FD4020FFF746FD15
:102690002B20FFF70DFD0020FFF740FD0020FFF786
:1026A0003DFD0020FFF73AFDF020FFF737FD2C201D
:1026B000FFF7FEFC00240CE0002506E0FF20FFF7FA
:1026C0002DFDFF20FFF72AFD6D1CB5F5A07FF5D38A
:1026D000641CF02CF0D370BD2DE9F05F04460D466C
:1026E00091461E46DDF828A04FF0100B2A20FFF778
:1026F000DFFC200AFFF712FDE0B2FFF70FFDE11D3E
:10270000C1F30720FFF70AFDE11DC8B2FFF706FD80
:102710002B20FFF7CDFC280AFFF700FDE8B2FFF7FA
:10272000FDFC05F10F01C1F30720FFF7F7FC05F1F0
:102730000F01C8B2FFF7F2FC2C20FFF7B9FC00270D
:1027400023E04FF000081BE0124800EB0910C15DC8
:10275000012000FA08F0014031B13012FFF7DEFC31
:10276000F0B2FFF7DBFC07E04FEA2A20FFF7D6FCC8
:102770000AF0FF00FFF7D2FC08F101001FFA80F811
:10278000B8F1080FE0DB781C87B25F45D9DBBDE804
:10279000F09F0000EC3F00082DE9F84F04460D467D
:1027A00091469A46DDF82CB02020009000265DE08E
:1027B0002A20FFF77DFC200AFFF7B0FCE0B2FFF70C
:1027C000ADFC04F10F01C1F30720FFF7A7FC04F1F2
:1027D0000F01C8B2FFF7A2FC2B20FFF769FC280A03
:1027E000FFF79CFCE8B2FFF799FC05F10F01C1F37C
:1027F0000720FFF793FC05F10F01C8B2FFF78EFC2D
:102800002C20FFF755FC002728E04FF0000820E0BF
:102810004FEA4A0000EB460009EB0010C15D0120C1
:1028200000FA08F0014041B14FEA2B20FFF776FC97
:102830000BF0FF00FFF772FC07E00C990812FFF79E
:102840006DFC0C99C8B2FFF769FC08F101001FFA92
:1028500080F8B8F1080FDBDB781C87B2009887425C
:10286000D3DB04F1100084B2701C86B20A98864251
:102870009EDBBDE8F88F2DE9F04704460D4616466D
:102880001F46DDF820902A20FFF712FC200AFFF7F0
:1028900045FCE0B2FFF742FC3119491EC1F30720A5
:1028A000FFF73CFC3119491EC8B2FFF737FC2B205B
:1028B000FFF7FEFB280AFFF731FCE8B2FFF72EFC1A
:1028C0007919491EC1F30720FFF728FC7919491E21
:1028D000C8B2FFF723FC2C20FFF7EAFB4FF00008FB
:1028E00005E019F80800FFF719FC08F1010806FBDC
:1028F00007F0B8EB400FF4D3BDE8F0872DE9F843BB
:1029000005460E4614461F46DDF820804FF00809A4
:102910000BE0CDF8008022783B4631462846FFF791
:10292000DBFE05EB090085B2641C20780028F0D19D
:10293000BDE8F8832DE9FF4F85B08A469046994659
:1029400041460598FDF70EFE33D151464846FDF746
:102950003BFC00210390FDF705FE0CD24946504692
:10296000FDF732FC0390FDF7A1FD84B24846FDF768
:102970009DFD86B20BE051464846FDF725FC0390CD
:10298000FDF794FD84B25046FDF790FD86B2002518
:102990000CE0701C86B20598FDF788FD80B20390AC
:1029A0003146129A00F05DF8681C85B2A542F0DB52
:1029B00054E041460598FDF70AFC5146039048460D
:1029C000FDF702FC02900399FDF736FC8346594659
:1029D0000598FDF7FFFB51460390FDF7F8FB0490C7
:1029E00041460598FDF7F3FB00210390FDF7BAFD82
:1029F0000CD241460598FDF7E7FB0390FDF756FD25
:102A000084B24046FDF752FD87B20BE0414605987F
:102A1000FDF7DDFB0390FDF749FD84B20598FDF756
:102A200045FD87B2002517E0781C87B23846FDF7D0
:102A30002BFD59460190FDF7CDFB02900499FDF75F
:102A400071FB0390FDF732FD86B231463846129A8B
:102A500000F007F8681C85B2A542E5DB09B0BDE8C7
:102A6000F08F2DE9F04104460D4616462A20FFF767
:102A70001FFB200AFFF752FBE0B2FFF74FFB200AD3
:102A8000FFF74CFBE0B2FFF749FB2B20FFF710FBF1
:102A9000280AFFF743FBE8B2FFF740FB280AFFF7DD
:102AA0003DFBE8B2FFF73AFB2C20FFF701FB0027C4
:102AB00006E03012FFF732FBF0B2FFF72FFB7F1C6E
:102AC000002FF6D0BDE8F08170B504462A20FFF74C
:102AD000EFFA0020FFF722FB0020FFF71FFB012089
:102AE000FFF71CFB4020FFF719FB2B20FFF7E0FA54
:102AF0000020FFF713FB0020FFF710FB0020FFF77B
:102B00000DFBF020FFF70AFB2C20FFF7D1FA002580
:102B10000DE0002607E0C4F30720FFF7FFFAE0B25C
:102B2000FFF7FCFA761CB6F5A07FF4D36D1CF02DF0
:102B3000EFD370BD10B500F0B3FC012076490860FA
:102B400000207649C1F8B00144F62060FFF7A8FAEA
:102B5000012071490831086042F21070FFF7A0FAB5
:102B60001120FFF7A5FA4CF25030FFF799FA012037
:102B70006A49C1F8BC013A20FFF79AFA0520FFF72D
:102B8000CDFAC520FFF794FA1A20FFF7C7FA3620CE
:102B9000FFF78EFA6020FFF7C1FAB220FFF788FA3C
:102BA0000520FFF7BBFA0520FFF7B8FA0020FFF772
:102BB000B5FA3320FFF7B2FA3320FFF7AFFAB720A8
:102BC000FFF776FA0520FFF7A9FABB20FFF770FAA6
:102BD0003F20FFF7A3FAC020FFF76AFA2C20FFF787
:102BE0009DFAC220FFF764FA0120FFF797FAC3208D
:102BF000FFF75EFA0F20FFF791FAC420FFF758FAAB
:102C00002020FFF78BFAC620FFF752FA0120FFF7CA
:102C100085FAD020FFF74CFAA420FFF77FFAA12015
:102C2000FFF77CFAE820FFF743FA0320FFF776FA74
:102C3000E920FFF73DFA0920FFF770FA0920FFF7B6
:102C40006DFA0820FFF76AFAE020FFF731FAD0208A
:102C5000FFF764FA0520FFF761FA0920FFF75EFA33
:102C60000920FFF75BFA0820FFF758FA1420FFF756
:102C700055FA2820FFF752FA3320FFF74FFA3F208A
:102C8000FFF74CFA0720FFF749FA1320FFF746FA3F
:102C90001420FFF743FA2820FFF740FA3020FFF70F
:102CA0003DFAE120FFF704FAD020FFF737FA0520BC
:102CB000FFF734FA0920FFF731FA0920FFF72EFA5F
:102CC0000820FFF72BFA0320FFF728FA2420FFF74C
:102CD00025FA3220FFF722FA3220FFF71FFA3B20B5
:102CE000FFF71CFA1420FFF719FA1320FFF716FA62
:102CF0002820FFF713FA2F20FFF710FA2020FFF704
:102D0000D7F92920FFF7D4F9FFF7B2FC4FF6FF708F
:102D1000FFF7DAFE10BD0000A881214200802142A9
:102D20002DE9F04704460D4616461F46DDF8208083
:102D30002A20FFF7BDF9200AFFF7F0F9E0B2FFF70C
:102D4000EDF93119491EC1F30720FFF7E7F93119F1
:102D5000491EC8B2FFF7E2F92B20FFF7A9F9280AAC
:102D6000FFF7DCF9E8B2FFF7D9F97919491EC1F389
:102D70000720FFF7D3F97919491EC8B2FFF7CEF93A
:102D80002C20FFF795F94FF0000909E04FEA2820C1
:102D9000FFF7C4F908F0FF00FFF7C0F909F10109D6
:102DA00006FB07F04845F1D8BDE8F087F0B50C46C2
:102DB000154600220021068C4FF6FE773E40068421
:102DC000028B018C4FF60C7632407E1C06EA03160D
:102DD0002E433243104EB0420ED0104EB0420BD0B4
:102DE000B0F1804F08D00E4EB04205D00D4EB0422B
:102DF00002D00D4EB04206D14FF6FD76314044F080
:102E00000106314305E04FF6F576314044F0010606
:102E1000314302830184F0BD002C014000340140A5
:102E20000004004000080040000C0040F0B50C46D3
:102E30001546002200210026078C4FF6EF7C07EA9A
:102E40000C070784028B018C4FF6FF7707EA041604
:102E500040F6FF473A404FF6FF7707EA03373A4319
:102E60004FF6FF7707EA05273A43114FB8420ED0D5
:102E7000104FB8420BD0B0F1804F08D00E4FB8427F
:102E800005D00E4FB84202D00D4FB84206D14FF6D2
:102E9000DF77394046F01007394305E04FF65F779A
:102EA000394044F01007394302830184F0BD00002B
:102EB000002C0140003401400004004000080040A4
:102EC000000C0040F0B50C461546002200210026FB
:102ED000078C4FF6FF6C07EA0C070784828B018C86
:102EE0004FF6FF7707EA04264FF60C773A404FF685
:102EF000FF7707EA03172F433A43114FB8420ED02A
:102F0000104FB8420BD0B0F1804F08D00E4FB842EE
:102F100005D00E4FB84202D00D4FB84206D14FF641
:102F2000FF57394046F48077394305E04FF2FF57A9
:102F3000394044F48077394382830184F0BD000036
:102F4000002C014000340140000400400008004013
:102F5000000C0040F0B50C4615460022002100266A
:102F6000078C4EF6FF7C07EA0C070784828B018CE6
:102F70004FF6FF7707EA043640F6FF473A404FF630
:102F8000FF7707EA05273A434FF6FF7707EA03374B
:102F90003A43114FB8420ED0104FB8420BD0B0F1A7
:102FA000804F08D00E4FB84205D00E4FB84202D025
:102FB0000D4FB84206D14DF6FF77394046F48057A1
:102FC000394305E047F6FF57394044F48057394309
:102FD00082830184F0BD0000002C014000340140D8
:102FE0000004004000080040000C00402DE9F05FA4
:102FF0000221480700F0E1F800286ED04FF0804031
:10300000808E4F4988804FF08040008FC8804D48A7
:103010000078401C4B4908704FF08041888EFDF7C6
:1030200038FA064632460B4600204749FDF7B4F908
:103030000446FDF77BFA4249086008684349FDF7FA
:103040009BFA4BD83E4908684049FDF7F5F804461D
:103050003F49FDF791FA07D205203E4908803E48D6
:103060008088091F088057E0354908683749FDF70F
:10307000E3F804463949FDF77FFA11D8304908686A
:103080003249FDF7D9F804463149FDF76BFA07D804
:1030900014203049088030488088091F08803BE0B0
:1030A00027490868FDF72FFA804600222C4BFDF7D0
:1030B00073F904460D4628490888FDF7EAF90646E3
:1030C00022462B46FDF768F98246FDF703FA2149AF
:1030D00008804720091F08801EE02AE01849086878
:1030E000FDF711FA064632460B4600201C49FDF753
:1030F00053F904460D4618490888FDF7CAF9804679
:1031000022462B46FDF7D6F88246FDF7E3F9114932
:1031100008804720091F08800A480078052808DD34
:1031200000200849087001200E4908700020FEF7B1
:103130009BFB0121880700F031F8BDE8F09F0000FB
:10314000640100201A00002080842E4100007A448F
:103150000000A0412C0400407401002000007041D8
:1031600000408F405601002010B50121044800F0B6
:1031700024F818B10121024800F010F810BD000039
:103180000004004021B1028842F08002028004E085
:1031900002884FF67F731A4002807047CA4302824A
:1031A000704721B1028842F00102028004E00288E7
:1031B0004FF6FE731A400280704730B50246002079
:1031C00000230024158A05EA0103958905EA010414
:1031D00013B10CB1012000E0002030BD70B50546F0
:1031E0000C46244885420ED0234885420BD0B5F1C9
:1031F000804F08D02148854205D02148854202D021
:103200002048854200D100E000BF208850B92389C2
:10321000A28861882846FFF7C9FDE188284600F0AA
:10322000C0F825E0208804280AD12389A288618873
:103230002846FFF7FBFDE188284600F0BBF817E0C1
:10324000208808280AD12389A28861882846FFF7A8
:1032500039FEE188284600F0BAF809E02389A288FF
:1032600061882846FFF776FEE188284600F0B8F826
:1032700070BD0000002C01400034014000040040FB
:1032800000080040000C00401AB183890B43838181
:1032900002E083898B4383817047000070B500246E
:1032A00000220023058C4FF6EF7635400584028C12
:1032B0008388048B48F6FF752C404FF6FF452C4061
:1032C0000D884FF6FF7606EA05252C434FF6DF758D
:1032D0002A400D8906EA05152A434D8806EA051598
:1032E0002A43154DA84202D0144DA8421DD14FF6D5
:1032F0007F752A404D894FF6FF7606EA05152A4369
:103300004FF6BF752A408D8806EA05152A434FF609
:10331000FF352B404FF2FF752B408D8906EA85055E
:103320002B43CD8906EA85052B4383800483CD8812
:103330000587028470BD0000002C0140003401406C
:103340000A460021018B4FF2FF7319404FF6FF73BD
:1033500003EA02231943018370470A4600210189C9
:103360004FF68F73194011430181704702894FF660
:103370007F731A40028102890A4302817047828862
:103380004FF68F731A40828082880A43828070478A
:1033900002894FF6F8731A40028102890A430281BA
:1033A0007047028B4FF6F3731A400283028B0A4375
:1033B00002837047028B4FF2FF331A400283028B65
:1033C0004FF6FF7303EA01231A4302837047828B8F
:1033D0004FF6F3731A408283828B0A4382837047CD
:1033E000828B4FF2FF331A408283828B4FF6FF733A
:1033F00003EA01231A4382837047000000220288F7
:103400001D4B98420ED01D4B98420BD0B0F1804F0F
:1034100008D01B4B984205D01A4B984202D01A4B49
:10342000984204D14FF68F731A404B881A43174BBA
:10343000984207D0164B984204D04FF6FF431A40EB
:10344000CB881A4302808B8883850B8803850A4BBF
:1034500098420BD0094B984208D00E4B984205D0A9
:103460000D4B984202D00D4B984201D10B7A038646
:103470000123838270470000002C0140003401408A
:103480000004004000080040000C00400010004014
:103490000014004000400140004401400048014049
:1034A00008B501210820FDF7C5FE4FF47C40ADF8BA
:1034B000000010208DF8030003208DF802006946FB
:1034C0000148FDF732FC08BD000C01400EB501219A
:1034D0000846FDF79FFE4FF6FF70ADF80400472049
:1034E000ADF800000020ADF80600ADF80200694616
:1034F0004FF08040FFF782FF0EBD000008B50121AC
:103500000420FDF797FE0120ADF8000004208DF89F
:10351000030069460148FDF708FC08BD00080140AA
:103520003EB50446FFF7EAFFFFF7D0FF0020ADF8F5
:103530000000ADF80200ADF806000120ADF804006F
:103540000020ADF8080069464FF08040FFF746FEC6
:1035500000F017F8224602214807FFF795FE502198
:103560008806FFF7FAFE04210807FFF711FF802104
:10357000C805FFF7FBFE21464FF08040FFF711FE24
:103580003EBD08B54FF4C060FDF71CFE1C208DF851
:10359000000001208DF801008DF802008DF8030075
:1035A0006846FDF7D7FD08BDFEB506460C46154634
:1035B00001210220FDF72EFEADF80460ADF80040B9
:1035C0000020ADF80200ADF8060069460748FFF795
:1035D00015FF20210548FFF7D2FE80210348FFF7A1
:1035E000C5FE29460148FFF7DCFDFEBD0004004092
:1035F0003EB505460C4601210420FDF70BFEADF853
:103600000450ADF800400020ADF80600ADF802000F
:1036100069460248FFF7F2FE3EBD00000008004088
:1036200008B501210820FDF705FE8020ADF8000057
:1036300018208DF8030003208DF802006946024827
:10364000FDF773FB08BD0000000C01402DE9FF41B0
:1036500006460F4614461D46FFF7E2FF3946304640
:10366000FFF7C6FF7020ADF800000020ADF808009D
:103670000120ADF80200ADF8064069460848FFF7A2
:103680000DFE01210648FFF77DFD08210448FFF7E4
:1036900057FE29460248FFF784FDBDE8FF81000080
:1036A0000008004010B540F22551134800F050F8D2
:1036B00000B3124890F86500642812DA0E4800F052
:1036C000DDF80E4908700846017890F86520401C26
:1036D0008154401E90F86500401C084981F865003F
:1036E00003E00020054981F8650040F225510248B9
:1036F00000F006F810BD000000380140A0010020D5
:1037000010B50022002340F66A14A14200D100BF88
:103710000A1201249440A3B2DC43048010BD21B1FD
:10372000828942F40052828104E082894DF6FF735F
:103730001A408281704702460020B1F5007F00D117
:1037400000BF13880B400BB1012000E00020704740
:1037500070B50246002400230025002040F66A16BA
:10376000B14200D100BFC1F3421501F01F03012691
:1037700006FA03F3012D02D19689334006E0022DAB
:1037800002D1168A334001E0968A33400C1201269A
:1037900006FA04F41688344013B10CB1012000E09D
:1037A000002070BD2DE9F04786B005460E46002486
:1037B000A24600BFA1460027B08900B100BF2F4636
:1037C0002C8A4CF6FF700440F08804432C82AC89AC
:1037D0004EF6F3100440B0883189084371890843DC
:1037E0000443AC81AC8A4FF6FF400440B0890443E7
:1037F000AC8201A8FDF72EFD1F48874202D1DDF8FB
:1038000010A001E0DDF80CA0A88900F4004040B150
:103810000AEBCA0000EB0A1031684900B0FBF1F86E
:1038200007E00AEBCA0000EB0A1031688900B0FB20
:10383000F1F86420B8FBF0F004012009642101FBD9
:103840001089A88900F4004040B1322000EBC90083
:10385000B0FBF1F000F00700044308E0322000EB79
:1038600009106421B0FBF1F000F00F0004432C813B
:1038700006B0BDE8F08700000038014001468888A6
:10388000C0F308007047C1F308028280704700BF90
:10389000FEE700001FB500F01FF801218803FDF7C7
:1038A000C9FC4FF4165000900820ADF80A00002023
:1038B000ADF80600ADF80800ADF80400ADF80C0056
:1038C00069460448FFF76EFF01210248FFF727FF12
:1038D0001FBD00000038014008B501210420FDF79C
:1038E000A9FC4FF40070ADF8000018208DF803001B
:1038F00003208DF8020069460748FDF716FA4FF4D9
:103900008060ADF8000048208DF803006946024849
:10391000FDF70BFA08BD00000008014038B59549D5
:1039200008689549FCF728FE41D892490868FCF7D9
:10393000BDFD6421B0FBF1F04FF47A71B0FBF1F002
:1039400030308E4908708B490868FCF7AFFD642160
:10395000B0FBF1F0B0FBF1F00A21B0FBF1F201FB9A
:10396000120030308549487082490868FCF79EFD96
:103970006421B0FBF1F00A21B0FBF1F0B0FBF1F2F1
:1039800001FB120030307D4988707A490868FCF7E5
:103990008DFD6421B0FBF1F00A21B0FBF1F201FBD7
:1039A00012003030754908714B2048715CE0714954
:1039B00008687349FCF70EFC0446FCF777FD80B2FB
:1039C00042F2107190FBF1F030306C490870694997
:1039D00008686B49FCF7FEFB0446FCF767FD80B204
:1039E0004FF47A7190FBF1F00A2190FBF1F201FBA8
:1039F00012003030614948705E4908686049FCF740
:103A0000E9FB0446FCF752FD80B2642190FBF1F023
:103A10000A2190FBF1F201FB120030305749887007
:103A2000544908685649FCF7D5FB0446FCF73EFDAF
:103A300080B20A2190FBF1F090FBF1F201FB120041
:103A400030304E4908714B4908684D49FCF7C2FBBC
:103A50000446FCF72BFD80B20A2190FBF1F201FB3A
:103A6000120030304549487142488088B0F57A7F6D
:103A70003BDB40488088642190FBF1F04FF47A7181
:103A800090FBF1F030303F4908703A48808864215B
:103A900090FBF1F090FBF1F00A2190FBF1F201FBB9
:103AA000120030303749487032488088642190FBDA
:103AB000F1F00A2190FBF1F090FBF1F201FB120012
:103AC0003030304988702B488088642190FBF1F0B9
:103AD0000A2190FBF1F201FB1200303029490871F4
:103AE0006D204871732088712FE0224880884FF440
:103AF0007A7190FBF1F03030224908701D488088BF
:103B0000642190FBF1F00A2190FBF1F201FB12001D
:103B100030301C494870174880880A2190FBF1F02A
:103B200090FBF1F201FB1200303016498870114809
:103B300080880A2190FBF1F201FB1200303011491C
:103B40000871752048717320887146F64D304FF624
:103B5000A0630A4AE12100900020FEF7CFFE46F65E
:103B60004D304FF6A063074AE12100904620FEF752
:103B7000C5FE38BD6401002000007A441801002011
:103B80000000C842210100202DE9FC47584908895E
:103B9000FCF77FFC0022574BCDE90001FCF7FCFB52
:103BA0008046FCF7C3FC8246FCF7ADFC06464FF0AE
:103BB0006632514BFCF77EFB0446FCF7B7FC4F49DD
:103BC00088604B494889FCF764FC06460022494B53
:103BD000FCF7E2FB8046FCF7A9FC8246FCF793FC6D
:103BE00004464FF06632444BFCF764FBCDE900011C
:103BF000FCF79CFC4149C86088684149FCF7EAFA37
:103C00000446FCF753FC80B2642190FBF1F03030A5
:103C10003C490870394988683949FCF7DBFA0446A1
:103C2000FCF744FC80B20A2190FBF1F090FBF1F22A
:103C300001FB1200303033498870304988683049C0
:103C4000FCF7C8FA0446FCF731FC80B20A2190FB6D
:103C5000F1F201FB120030302A49C8702749C868C8
:103C60002749FCF7B7FA0446FCF720FC80B2642130
:103C700090FBF1F03030244908702049C868204991
:103C8000FCF7A8FA0446FCF711FC80B20A2190FB6D
:103C9000F1F090FBF1F201FB120030301A4988700C
:103CA0001649C8681649FCF795FA0446FCF7FEFB6E
:103CB00080B20A2190FBF1F201FB12003030124970
:103CC000C87046F64D304FF6A0630E4AE1210090D1
:103CD0009120FEF713FE46F64D304FF6A0630A4AD8
:103CE000E1210090E620FEF709FEBDE8FC87000018
:103CF0008801002000FEAF4066660A406401002093
:103D00000000C842290100202F0100201920084985
:103D1000088005204860662088601420C860032061
:103D200008610120034948700020087070470000B6
:103D30007401002016010020014A024900F013B866
:103D4000893D00086001002002E008C8121F08C178
:103D5000002AFAD170477047002001E001C1121F0C
:103D6000002AFBD170472DE9F04116460F46044664
:103D7000002503E03946B047641C6D1C20780028FC
:103D8000F8D12846BDE8F08170B504460D46E1B291
:103D90000548FFF778FD00BF80210348FFF7CBFC03
:103DA0000028F9D0204670BD0038014000BFFDF763
:103DB000C7F8FDF7B1F8FEF72FFCFFF76BFD86A003
:103DC000FFF7BAFFFEF7B6FE01208549098801EB2F
:103DD0004101844A02EB810188701146886880475E
:103DE000F9E0FDF739F8804908707D48008800EB5C
:103DF00040007C4901EB8000007901287DD07A48A1
:103E00000078012806D0022831D003285DD004288C
:103E100074D184E07248008800EB4000714901EBE6
:103E200080008078401E6E49098801EB41016D4A8F
:103E300002EB810188706A48008800EB400011465F
:103E400001EB8000807800280DDC6548008800EBDD
:103E5000400001EB8000C0786149098801EB410115
:103E600002EB8101887000205F4908707FE05C48A8
:103E7000008800EB40005B4901EB80008078401C2B
:103E80005749098801EB4101564A02EB81018870CC
:103E90005348008800EB4000114601EB8000807819
:103EA0004F49098801EB410102EB8101C978884241
:103EB00007DD01204A49098801EB410102EB81013C
:103EC000887000204849087051E04548008800EBA0
:103ED0004000444901EB800080784149098801EBAA
:103EE0004101404A12F8211008443D49098808441C
:103EF0003B4908800120098801E039E036E001EB08
:103F0000410102EB8101887000203549098801EBED
:103F1000410102EB810148713349087027E03048C4
:103F2000008800EB40002F4901EB80004078012819
:103F30001BDB2B48008800EB400001EB8000407841
:103F400027490988081A264908800120098801EBB9
:103F50004101244A02EB8101887000202049098830
:103F600001EB410102EB8101887100E000BF29E013
:103F70001D480078042825D11948008800EB40002E
:103F8000184901EB8000407801281BDB14480088A9
:103F900000EB400001EB8000407811490988081AC5
:103FA0000F4908800120098801EB41010D4A02EB0D
:103FB0008101887000200A49098801EB410102EB68
:103FC000810188710649098801EB4101054A02EB2C
:103FD00081018868804704E7646664660000000029
:103FE000140000202400002016000020F0F0000043
:103FF00000000000000000000000000000FE0202BF
:10400000020202020202020202FE000000000000A0
:1040100000000000000000000000000000FE02029E
:10402000020202020202020202FE000000FE02027E
:10403000020202020202020202FE000000FE02026E
:10404000020202020202020202FE000000FE02025E
:10405000020202020202020202FE000000FE02024E
:10406000020202020202020202FE000000FE02023E
:10407000020202020202020202FE00000000000030
:104080000000000000000000000000000000000030
:104090000000000000000000000000000000000020
:1040A00000000000000000000000000000FE02020E
:1040B000020202020202020202FE000000FE0202EE
:1040C000020202020202020202FE000000FE0202DE
:1040D000020202020202020202FE000000FE0202CE
:1040E000020202020202020202FE000000FE0202BE
:1040F000020202020202020202FE000000FE0202AE
:10410000020202020202020202FE000000FE02029D
:10411000020202020202020202FE000000FE02028D
:10412000020202020202020202FE000000FE02027D
:10413000020202020202020202FE000000FE02026D
:10414000020202020202020202FE000000FE02025D
:10415000020202020202020202FE000000FE02024D
:10416000020202020202020202FE000000FE02023D
:10417000020202020202020202FE000000FE02022D
:10418000020202020202020202FE000000FE02021D
:10419000020202020202020202FE000000FE02020D
:1041A000020202020202020202FE000000000000FF
:1041B00000000000000000000000000000000000FF
:1041C00000000000000000000000000000000000EF
:1041D00000000000000000000000000000000000DF
:1041E00000000000000000000000000000000000CF
:1041F00000000000000000000000000000000008B7
:1042000008080808080800000808000000482424DE
:104210001200000000000000000000000000004844
:1042200048487E2424247E24242400000000103CDE
:104230005252121C30505052523C101000000022BA
:104240002515150D2A585454522200000000000C68
:104250001212120A76252919916E00000006040434
:1042600002000000000000000000000000402010DC
:104270001008080808080810102040000002040870
:1042800008101010101010080804020000000000B0
:1042900008086B1C1C6B08080000000000000000F0
:1042A00000101010FE1010100000000000000000B0
:1042B00000000000000000000604040200000000EE
:1042C000000000007E000000000000000000000070
:1042D0000000000000000000060600000000402072
:1042E0002020101008080804040202000000001832
:1042F0002442424242424242241800000000001080
:104300001C10101010101010107C00000000003C59
:104310004242424020100804427E00000000003C5F
:104320004242402018204042423C00000000002051
:10433000303028242422FE2020F800000000007ED7
:104340000202021E22404042221C0000000000180F
:104350002402023A46424242443800000000007EF5
:104360004220201010080808080800000000003C47
:104370004242422418244242423C00000000001CF9
:1043800022424242625C40402418000000000000CB
:1043900000001818000000001818000000000000BD
:1043A00000000008000000000008080800000040AD
:1043B0002010080402040810204000000000000043
:1043C00000007E00007E00000000000000000002EF
:1043D0000408102040201008040200000000003CE7
:1043E0004242462010101000181800000000001C67
:1043F000225A55555555553A423C000000000008D8
:1044000008181414243C224242E700000000001F58
:104410002222221E22424242221F00000000007C73
:104420004242010101010142221C00000000001F64
:104430002242424242424242221F00000000003F0C
:104440004212121E12120242423F00000000003FC0
:104450004212121E12120202020700000000003C6B
:104460002222010101712122221C0000000000E72C
:10447000424242427E42424242E700000000003E89
:104480000808080808080808083E00000000007C2A
:1044900010101010101010101010110F00000077E5
:1044A00022120A0E0A1212222277000000000007D0
:1044B0000202020202020202427F000000000077B4
:1044C00036363636362A2A2A2A6B0000000000E3E8
:1044D00046464A4A52525262624700000000001C9F
:1044E0002241414141414141221C00000000003F66
:1044F000424242423E020202020700000000001C4B
:10450000224141414141414D321C60000000003FC9
:104510004242423E1212222242C700000000007CAA
:104520004242020418204042423E00000000007F48
:104530004908080808080808081C0000000000E7EF
:104540004242424242424242423C0000000000E7F6
:104550004242222424141418080800000000006BB2
:104560002A2A2A2A2A36141414140000000000E70C
:10457000422424181818242442E700000000007781
:104580002222141408080808081C00000000007EFD
:104590002120101008040442423F0000007808085F
:1045A000080808080808080808087800000002043D
:1045B000040408080810102020204040001E10109D
:1045C000101010101010101010101E0000182400F1
:1045D00000000000000000000000000000000000DB
:1045E0000000000000000000000000FF00060800BE
:1045F00000000000000000000000000000000000BB
:104600000000001C22302C22326C00000000000050
:104610000302021A26424242261A0000000000004D
:10462000000000384402020244380000000000008C
:104630006040407C4242424262DC000000000000D8
:104640000000003C42427E02423C000000000000AC
:104650003048083E08080808083E00000000000036
:104660000000007C22221C023C42423C0000000070
:104670000302023A4642424242E700000000000CB8
:104680000C00000E08080808083E0000000000307A
:1046900030000038202020202020221E00000000B2
:1046A00003020272120A0E122277000000000008B4
:1046B0000E08080808080808083E0000000000006E
:1046C0000000007F9292929292B7000000000000DA
:1046D0000000003B4642424242E70000000000006A
:1046E0000000003C42424242423C00000000000008
:1046F0000000001B26424242261A0207000000006A
:104700000000005864424242645840E0000000004B
:10471000000000774C040404041F000000000000A7
:104720000000007C42023C40423E000000000000CD
:104730000008083E08080808483000000000000093
:10474000000000634242424262DC000000000000C0
:104750000000007722221414080800000000000066
:10476000000000DB91525A2A2424000000000000BF
:104770000000006E241818182476000000000000C5
:10478000000000E742242418180808060000000072
:104790000000007E22100808447E000000C0202097
:1047A00020202020102020202020C00010101010D9
:1047B000101010101010101010101010000304042E
:1047C000040404040804040404040300045A20003C
:1047D00000000000000000000000000000000000D9
:1047E00000000000000000000000000000000000C9
:1047F00000000000000000000000000000000000B9
:1048000000000000000000000000000000000000A8
:104810000000000000000000000000000000000098
:104820000000000000000000000000000000000088
:104830000000000000000000000000000000000078
:104840000000000000000000000000000000000068
:104850000000000000000000000000000000000058
:104860000000000000000000000000000000000048
:104870000000000000000000000000000000000038
:104880000000000000000000000000000000000028
:104890000000000000000000000000000000000018
:1048A0000000000000000000000000000000000008
:1048B00000000000000000000000000000000000F8
:1048C00000000000000000000000000000000000E8
:1048D00000000000000000000000000000000000D8
:1048E00000000000000000000000000000000000C8
:1048F00000000000000000000000000000000000B8
:1049000000000000000000000000000000000000A7
:104910000000000000000000000000000000000097
:104920000000000000000000000000000000000087
:104930000000000000000000000000000000000077
:104940000000000000000000000000000800887F58
:104950000A043A028A3F8A20FF2480248824AA2459
:10496000AA24AA22210A10118C2043404000800072
:10497000FE3F40002222F41188084412F22700046E
:104980008000FF7F80008000800080000000FC1F0E
:1049900084108410F41784108410FC1F0410E41396
:1049A00024122412E4130210021401084400443EAD
:1049B000FE22442244227C3E442244227C22443E65
:1049C0004422FF2220214421822841100000807FC0
:1049D0007F040802883F882088248824882488242B
:1049E00088248822080A0A1184204040080208020C
:1049F000083F0811AA0A2A042A1BEA642A1F2A046B
:104A00002A1F3A04E67F000400040004100210028A
:104A1000F03F08020802CC1F4C10CA1F4910C81FE3
:104A20004810C81F48104810F87F08001010103CAC
:104A3000D007480448044C044C04CA7F4904480881
:104A40004808484848504851C86448480802080285
:104A5000083F0811AA0A2A042A1BEA642A1F2A040A
:104A60002A1F3A04E67F000400040004100210022A
:104A7000F03F08020802CC1F4C10CA1F4910C81F83
:104A80004810C81F48104810F87F080080008000B8
:104A90008000807F8000800080008000FC1F041068
:104AA0000410041004100410FC1F041040008000C7
:104AB000FE7F02401124080804100000F80F800057
:104AC0008000800080008000FE3F000000010401A3
:104AD00004010421041104097C05040304010401F8
:104AE0000401044164411C41047E000000000000F8
:104AF00000000000000000000000000000000000B6
:104B000000000000000000000000000000000000A5
:104B10000000000000000000000000000000000095
:104B2000000000000000000000000000F7BEF7BE1B
:104B3000F7BEF7BEF7BEF7BEF7BEF7BEF7BEF7BECD
:104B4000F7BEF7BEF7BEF7BEF7BEF7BEF7BEF7BEBD
:104B5000F7BEF7BEF7BEF7BEF7BEF7BEF7BEF7BEAD
:104B6000F7BEF7BEF7BEF7BEF7BEF7BEF7BEF7BE9D
:10555000F7BEF7BEF79EFFDFF7BEEF5DFFDFEF5D43
:10556000FFDFFFDFFFDFF7BEEF5DD6BACE59CE79A2
:10557000CE79CE79CE79CE79CE79CE79CE79CE79F3
:10558000CE79CE79CE79CE79CE79CE79CE79CE79E3
:10559000CE79CE79CE79CE79CE79CE79CE79CE79D3
:1055A000CE79CE79CE79CE79CE79CE79CE79CE79C3
:1055B000CE79CE79CE79CE79CE79CE79CE79CE79B3
:1055C000CE79CE79CE79CE79CE79CE79CE79CE79A3
:1055D000CE79CE79CE79CE79CE79CE79CE79CE7993
:1055E000CE79CE79CE79CE79CE79CE79CE79CE7983
:1055F000CE79CE79CE79CE79CE79CE79CE79CE7973
:10560000CE79CE79DEDBE71CEF7DFFDFFFFFFFFF0A
:10561000F79EFFDFE73CF79EFFDFF7BEEF5DFFFF82
:10562000F79EF7BEEF7DFFFFFFFFC6387BCF10A2CE
:10563000000000000000000000000000000000006A
:10564000000000000000000000000000000000005A
:10565000000000000000000000000000000000004A
:10566000000000000000000000000000000000003A
:10567000000000000000000000000000000000002A
:10568000000000000000000000000000000000001A
:10569000000000000000000000000000000000000A
:1056A00000000000000000000000000000000000FA
:1056B00000000000000000000000000000000000EA
:1056C00000000000000000000000000000000020BA
:1056D00010A27BCFC618FFDFF7BEEF7DFFDFFFDF35
:1056E000FFFFEF5DFFFFEF5DFFFFFFFFEF7DAD759C
:1056F00039E718E30000000000000000000000008F
:105700000000000000000000000000000000000099
:105710000000000000000000000000000000000089
:105720000000000000000000000000000000000079
:105730000000000000000000000000000000000069
:105740000000000000000000000000000000000059
:105750000000000000000000000000000000000049
:105760000000000000000000000000000000000039
:105770000000000000000000000000000000000029
:105780000000000000000000000000000000000019
:1057900000000000000000000000000010A23186A0
:1057A000C618F79EF7BEF7BEE71CFFFFFFFFE71C1A
:1057B000F7BEEF5D39C7002000000000000008417F
:1057C00000000000000000000000000000000000D9
:1057D00000000000000000000000000000000000C9
:1057E00000000000000000000000000000000000B9
:1057F00000000000000000000000000000000000A9
:105800000000000000000000000000000000000098
:105810000000000000000000000000000000000088
:105820000000000000000000000000000000000078
:105830000000000000000000000000000000000068
:105840000000000000000000000000000000000058
:105850000000000000000000000000000000000048
:105860000020000000000000108239C7E73CEF7DF7
:10587000DEFBFFFFF7BEF79EDEDB210408610020A0
:105880000861084100000000000000000020000046
:105890000000000000000000000000000000000008
:1058A00000000000000000000000000000000000F8
:1058B00000000000000000000000000000000000E8
:1058C00000000000000000000000000000000000D8
:1058D00000000000000000000000000000000000C8
:1058E00000000000000000000000000000000000B8
:1058F00000000000000000000000000000000000A8
:105900000000000000000000000000000000000097
:105910000000000000000000000000000000000087
:105920000000000000000000000000200020002017
:10593000000008412124DEFBEF7DEF7DF79EFFFF95
:1059400042080020084100000000000000000000A4
:105950000000000000000000000000000000000047
:105960000000000000000000000000000000000037
:105970000000000000000000000000000000000027
:105980000000000000000000000000000000000017
:105990000000000000000000000000000000000007
:1059A00000000000000000000000000000000000F7
:1059B00000000000000000000000000000000000E7
:1059C00000000000000000000000000000000000D7
:1059D00000000000000000000000000000000000C7
:1059E00000000000000000000000000000000000B7
:1059F000000000000000000000200000000042083D
:105A0000FFFFF79EFFDFF7BE000000000020002030
:105A10000000002000000000000000200000000046
:105A20000000000000000000000000000000000076
:105A30000000000000000000000000000000000066
:105A40000000000000000000000000000000000056
:105A50000000000000000000000000000000000046
:105A60000000000000000000000000000000000036
:105A70000000000000000000000000000000000026
:105A80000000000000000000000000000000000016
:105A90000000000000000000000000000000000006
:105AA00000000000000000000000000000000000F6
:105AB000000000000000000000200000084100007D
:105AC0000000084100000000F7BEF79EF7BE632CFF
:105AD000000000000841000000000000000000007D
:105AE0000020002000000000000000000000000076
:105AF00000000000000000000000000000000000A6
:105B00000000000000000000000000000000000095
:105B10000000000000000000000000000000000085
:105B20000000000000000000000000000000000075
:105B30000000000000000000000000000000000065
:105B40000000000000000000000000000000000055
:105B50000000000000000000000000000000000045
:105B60000000000000000000000000000000000035
:105B70000000000000000000000000000000002005
:105B800000000000000000000020002000000000D5
:105B9000632CFFDFDEFB00200000086108410020CD
:105BA0000020000008410841000000000000000043
:105BB00000000000000000000000000000000000E5
:105BC00000000000000000000000000000000000D5
:105BD00000000000000000000000000000000000C5
:105BE00000000000000000000000000000000000B5
:105BF00000000000000000000000000000000000A5
:105C00000000000000000000000000000000000094
:105C10000000000000000000000000000000000084
:105C20000000000000000000000000000000000074
:105C30000000000000000000000000000000000064
:105C40000000000000000000108208410000000079
:105C500008410020084100000020E71C9CD3000000
:105C60000841000000000000000000000861000082
:105C7000086100000020000000000000000000009B
:105C80000000000000000000000000000000000014
:105C90000000000000000000000000000000000004
:105CA00000000000000000000000000000000000F4
:105CB00000000000000000000000000000000000E4
:105CC00000000000000000000000000000000000D4
:105CD00000000000000000000000000000000000C4
:105CE00000000000000000000000000000000000B4
:105CF00000000000000000000000000000000000A4
:105D0000000000000000000000000000002008610A
:105D100000000861000000000000000000000841D1
:105D200000009CD331A6000000000000000000002D
:105D3000000000000020E71CF7BEFFFFEF7DF7BE6C
:105D4000F7BEF7BEF7BEF7BEF7BEF79EF79EF79E0B
:105D5000F79EF79EF79EF79EF79EF79EF79EF79E9B
:105D6000F79EF79EF79EF79EF79EF79EF79EF79E8B
:105D7000F79EF79EF79EF79EF79EF79EF79EF79E7B
:105D8000F79EF79EF79EF79EF79EF79EF79EF79E6B
:105D9000F79EF79EF79EF79EF79EF79EF79EF79E5B
:105DA000F79EF79EF79EF79EF79EF79EF79EF79E4B
:105DB000F79EF79EF79EF79EF79EF79EF79EF79E3B
:105DC000F79EF79EF79EF79EF79EF79EF79EF79E2B
:105DD000F79EF79EFFDFF7BEEF5D0000002000009A
:105DE000000000200000000000003186108200202A
:105DF0000020002000000000000000000841F79E85
:105E0000FFFFEF7DFFDFF7BEF7BEF7BEF7BEF7BEC1
:105E1000F7BEF7BEF7BEF7BEF7BEF7BEF7BEF7BEDA
:105E2000F7BEF7BEF7BEF7BEF7BEF7BEF7BEF7BECA
:105E3000F7BEF7BEF7BEF7BEF7BEF7BEF7BEF7BEBA
:105E4000F7BEF7BEF7BEF7BEF7BEF7BEF7BEF7BEAA
:105E5000F7BEF7BEF7BEF7BEF7BEF7BEF7BEF7BE9A
:105E6000F7BEF7BEF7BEF7BEF7BEF7BEF7BEF7BE8A
:105E7000F7BEF7BEF7BEF7BEF7BEF7BEF7BEF7BE7A
:105E8000F7BEF7BEF7BEF7BEF7BEF7BEF7BEF7BE6A
:105E9000F7BEF7BEF7BEF7BEF7BEF7BEF79EFFDF51
:105EA000EF7D0841000000200000000000000020FD
:105EB0000020086100000000000000000000000059
:105EC000000000000000F7BEF7BEFFDFF7BEF7BE20
:105ED000F7BEF7BEF7BEF7BEF7BEF7BEF7BEF7BE1A
:105EE000F7BEF7BEF7BEF7BEF7BEF7BEF7BEF7BE0A
:105EF000F7BEF7BEF7BEF7BEF7BEF7BEF7BEF7BEFA
:105F0000F7BEF7BEF7BEF7BEF7BEF7BEF7BEF7BEE9
:105F1000F7BEF7BEF7BEF7BEF7BEF7BEF7BEF7BED9
:105F2000F7BEF7BEF7BEF7BEF7BEF7BEF7BEF7BEC9
:105F3000F7BEF7BEF7BEF7BEF7BEF7BEF7BEF7BEB9
:105F4000F7BEF7BEF7BEF7BEF7BEF7BEF7BEF7BEA9
:105F5000F7BEF7BEF7BEF7BEF7BEF7BEF7BEF7BE99
:105F6000F7BEF7BEFFDFF79EF7BE0000000000009F
:105F70000000000000000000000000000000000021
:105F80000000000000000000000000000000F7BE5C
:105F9000F7BEFFDFF7BEF7BEF7BEF7BEF7BEF7BE30
:105FA000F7BEF7BEF7BEF7BEF7BEF7BEF7BEF7BE49
:105FB000F7BEF7BEF7BEF7BEF7BEF7BEF7BEF7BE39
:105FC000F7BEF7BEF7BEF7BEF7BEF7BEF7BEF7BE29
:105FD000F7BEF7BEF7BEF7BEF7BEF7BEF7BEF7BE19
:105FE000F7BEF7BEF7BEF7BEF7BEF7BEF7BEF7BE09
:105FF000F7BEF7BEF7BEF7BEF7BEF7BEF7BEF7BEF9
:10600000F7BEF7BEF7BEF7BEF7BEF7BEF7BEF7BEE8
:10601000F7BEF7BEF7BEF7BEF7BEF7BEF7BEF7BED8
:10602000F7BEF7BEF7BEF7BEF7BEF7BEF7BEF79EE8
:10603000F7BE0000000000000000000000000000AB
:106040000000000000000000000000000000000050
:10605000000000000000F7BEF7BEFFDFF7BEF7BE8E
:10606000F7BEF7BEF7BEF7BEF7BEF7BEF7BEF7BE88
:10607000F7BEF7BEF7BEF7BEF7BEF7BEF7BEF7BE78
:10608000F7BEF7BEF7BEF7BEF7BEF7BEF7BEF7BE68
:10609000F7BEF7BEF7BEF7BEF7BEF7BEF7BEF7BE58
:1060A000F7BEF7BEF7BEF7BEF7BEF7BEF7BEF7BE48
:1060B000F7BEF7BEF7BEF7BEF7BEF7BEF7BEF7BE38
:1060C000F7BEF7BEF7BEF7BEF7BEF7BEF7BEF7BE28
:1060D000F7BEF7BEF7BEF7BEF7BEF7BEF7BEF7BE18
:1060E000F7BEF7BEF7BEF7BEF7BEF7BEF7BEF7BE08
:1060F000F7BEF7BEF7BEF79EF7BE00000000000037
:10610000000000000000000000000000000000008F
:106110000000000000000000000000000000F7BECA
:10612000F7BEFFDFF7BEF7BEF7BEF7BEF7BEF7BE9E
:10613000F7BEF7BEF7BEF7BEF7BEF7BEF7BEF7BEB7
:10614000F7BEF7BEF7BEF7BEF7BEF7BEF7BEF7BEA7
:10615000F7BEF7BEF7BEF7BEF7BEF7BEF7BEF7BE97
:10616000F7BEF7BEF7BEF7BEF7BEF7BEF7BEF7BE87
:10617000F7BEF7BEF7BEF7BEF7BEF7BEF7BEF7BE77
:10618000F7BEF7BEF7BEF7BEF7BEF7BEF7BEF7BE67
:10619000F7BEF7BEF7BEF7BEF7BEF7BEF7BEF7BE57
:1061A000F7BEF7BEF7BEF7BEF7BEF7BEF7BEF7BE47
:1061B000F7BEF7BEF7BEF7BEF7BEF7BEF7BEF7BE37
:1061C000F7BE00000000000000000000000000001A
:1061D00000000000000000000000000000000000BF
:1061E000000000000000F7BEF7BEFFDFF7BEF7BEFD
:1061F000F7BEF7BEF7BEF7BEF7BEF7BEF7BEF7BEF7
:10620000F7BEF7BEF7BEF7BEF7BEF7BEF7BEF7BEE6
:10621000F7BEF7BEF7BEF7BEF7BEF7BEF7BEF7BED6
:10622000F7BEF7BEF7BEF7BEF7BEF7BEF7BEF7BEC6
:10623000F7BEF7BEF7BEF7BEF7BEF7BEF7BEF7BEB6
:10624000F7BEF7BEF7BEF7BEF7BEF7BEF7BEF7BEA6
:10625000F7BEF7BEF7BEF7BEF7BEF7BEF7BEF7BE96
:10626000F7BEF7BEF7BEF7BEF7BEF7BEF7BEF7BE86
:10627000F7BEF7BEF7BEF7BEF7BEF7BEF7BEF7BE76
:10628000F7BEF7BEF7BEF7BEFFDF0000000000005C
:1062900000000000000000000000000000000000FE
:1062A0000000000000000000000000000000F7BE39
:1062B000F7BEFFDFF7BEF7BEF7BEF7BEF7BEF7BE0D
:1062C000F7BEF7BEF7BEF7BEF7BEF7BEF7BEF7BE26
:1062D000F7BEF7BEF7BEF7BEF7BEF7BEF7BEF7BE16
:1062E000F7BEF7BEF7BEF7BEF7BEF7BEF7BEF7BE06
:1062F000F7BEF7BEF7BEF7BEF7BEF7BEF7BEF7BEF6
:10630000F7BEF7BEF7BEF7BEF7BEF7BEF7BEF7BEE5
:10631000F7BEF7BEF7BEF7BEF7BEF7BEF7BEF7BED5
:10632000F7BEF7BEF7BEF7BEF7BEF7BEF7BEF7BEC5
:10633000F7BEF7BEF7BEF7BEF7BEF7BEF7BEF7BEB5
:10634000F7BEF7BEF7BEF7BEF7BEF7BEF7BEF7BEA5
:10635000FFDF00200000000000000000000000003F
:10636000000000000000000000000000000000002D
:10637000000000000000FFDFF7BEF7BEF7BEF7BE6B
:10638000F7BEF7BEF7BEF7BEF7BEF7BEF7BEF7BE65
:10639000F7BEF7BEF7BEF7BEF7BEF7BEF7BEF7BE55
:1063A000F7BEF7BEF7BEF7BEF7BEF7BEF7BEF7BE45
:1063B000FFFFE73CFFDFFFDFF7BEFFDFF7BEF79E23
:1063C000F7BEFFDFF7BEF7BEF79EF7BEFFDFFFDFCA
:1063D000F7BEF7BEF7BEF7BEF7BEF7BEF7BEF7BE15
:1063E000F7BEF7BEF7BEF7BEF7BEF7BEF7BEF7BE05
:1063F000F7BEF7BEF7BEF7BEF7BEF7BEF7BEF7BEF5
:10640000F7BEF7BEF7BEF7BEF7BEF7BEF7BEF7BEE4
:10641000F7BEF7BEF7BEF7BEFFDF000000000000CA
:10642000000000000000000000000000000000006C
:106430000000000000000000000000000000FFDF7E
:10644000F7BEF7BEF7BEF7BEF7BEF7BEF7BEF7BEA4
:10645000F7BEF7BEF7BEF7BEF7BEF7BEF7BEF7BE94
:10646000F7BEF7BEF7BEF7BEF7BEF7BEF7BEF7BE84
:10647000F7BEF7BEF7BEF7BEFFDFF7BEFFDFE73CB4
:10648000FFFFE73CFFFFFFFFFFFFEF7DF79EFFDF12
:10649000FFDFF7BEF79EF7BEFFDFF7BEF7BEF7BE22
:1064A000F7BEF7BEF7BEF7BEF7BEF7BEF7BEF7BE44
:1064B000F7BEF7BEF7BEF7BEF7BEF7BEF7BEF7BE34
