:020000040800F2
:100000004824002045010008B13400086926000892
:10001000AD340008C91A00086B4400080000000055
:10002000000000000000000000000000513B00083C
:10003000311F000800000000B1380008D13D000861
:100040005F0100085F0100085F0100085F01000810
:100050005F0100085F0100085F0100085F01000800
:100060005F0100085F0100085F0100085F010008F0
:100070005F0100085F0100085F0100085F010008E0
:100080005F0100085F0100085F0100085F010008D0
:100090005F0100085F0100085F0100085F010008C0
:1000A0005F0100085F0100085F0100085F010008B0
:1000B000C93E00085F0100085F0100085F010008F9
:1000C0005F0100085F0100085F0100085F01000890
:1000D0005F010008354200085F0100085F01000869
:1000E0004D2200085F0100085F0100085F01000861
:1000F0005F0100085F0100085F0100085F01000860
:100100005F0100085F0100085F0100085F0100084F
:100110005F0100085F0100085F0100085F0100083F
:100120005F0100085F0100085F0100085F0100082F
:10013000DFF80CD001F062F900480047E1980008B0
:10014000482400200648804706480047FEE7FEE7AF
:10015000FEE7FEE7FEE7FEE7FEE7FEE7FEE7FEE777
:10016000193E0008310100082DE9FF4FA3B06FF0E0
:10017000030223982399406802908968209123996B
:100180000988189102EB8101084403902698C00861
:100190001F9000F084831898C0082190249801686B
:1001A000039801602498039950F8042F41F8042F14
:1001B00050F8042F41F8042F50F8042F41F8042F71
:1001C00000220C9201921392129210920F920E92B0
:1001D0000D92209D029C50F8042F41F8042F50F8F6
:1001E000042F41F8042F50F8042F41F8042F4268DF
:1001F0004A60083108300391249054F8040B0B90A6
:1002000054F804AB54F8040B089054F8049BDDF840
:1002100084B054F8048BBBF1000F54F8047B54F8FD
:10022000046B00F0B28200BF55F8040B009054F844
:10023000040B0A9000990B9800F0EDFC11905046C9
:10024000009900F0E8FC1B900099089800F0E3FC8E
:1002500017904846009900F0DEFC1A90404600993D
:1002600000F0D9FC19903846009900F0D4FC1690A3
:100270003046009900F0CFFC159000990A9800F0E4
:10028000CAFC149055F8040B009054F8040B0B9022
:100290001199019800F067FC01901B99139800F0E8
:1002A00062FC13901799129800F05DFC12901A9955
:1002B000109800F058FC109019990F9800F053FC1A
:1002C0000F9016990E9800F04EFC0E9015990D980F
:1002D00000F049FC0D9014990C9800F044FC0C902F
:1002E0005046009900F097FC11900099089800F092
:1002F00092FC1B904846009900F08DFC17904046F8
:10030000009900F088FC1A903846009900F083FCB0
:1003100019903046009900F07EFC169000990A98DA
:1003200000F079FC159000990B9800F074FC149083
:1003300055F8040B009054F804AB1199019800F0A3
:1003400012FC01901B99139800F00DFC1390179963
:10035000129800F008FC12901A99109800F003FC13
:10036000109019990F9800F0FEFB0F9016990E98B7
:1003700000F0F9FB0E9015990D9800F0F4FB0D902C
:1003800014990C9800F0EFFB0C900099089800F07D
:1003900042FC11904846009900F03DFC1B904046FD
:1003A000009900F038FC17903846009900F033FCB3
:1003B0001A903046009900F02EFC199000990A9886
:1003C00000F029FC169000990B9800F024FC159081
:1003D0005046009900F01FFC149055F8040B009053
:1003E00054F8040B08901199019800F0BCFB01909F
:1003F0001B99139800F0B7FB13901799129800F00F
:10040000B2FB12901A99109800F0ADFB1090199958
:100410000F9800F0A8FB0F9016990E9800F0A3FB20
:100420000E9015990D9800F09EFB0D9014990C9864
:1004300000F099FB0C904846009900F0ECFB1190FD
:100440004046009900F0E7FB1B903846009900F009
:10045000E2FB17903046009900F0DDFB1A900099FE
:100460000A9800F0D8FB199000990B9800F0D3FB84
:1004700016905046009900F0CEFB15900099089810
:1004800000F0C9FB149055F8040B009054F8049B3D
:100490001199019800F067FB01901B99139800F0E7
:1004A00062FB13901799129800F05DFB12901A9955
:1004B000109800F058FB109019990F9800F053FB1A
:1004C0000F9016990E9800F04EFB0E9015990D980E
:1004D00000F049FB0D9014990C9800F044FB0C902F
:1004E0004046009900F097FB11903846009900F0C3
:1004F00092FB1B903046009900F08DFB17900099FD
:100500000A9800F088FB1A9000990B9800F083FB82
:1005100019905046009900F07EFB169000990898BB
:1005200000F079FB15904846009900F074FB149098
:1005300055F8040B009054F8048B1199019800F0C1
:1005400012FB01901B99139800F00DFB1390179963
:10055000129800F008FB12901A99109800F003FB13
:10056000109019990F9800F0FEFA0F9016990E98B6
:1005700000F0F9FA0E9015990D9800F0F4FA0D902C
:1005800014990C9800F0EFFA0C903846009900F09E
:1005900042FB11903046009900F03DFB1B90009902
:1005A0000A9800F038FB179000990B9800F033FB85
:1005B0001A905046009900F02EFB19900099089867
:1005C00000F029FB16904846009900F024FB159096
:1005D0004046009900F01FFB149055F8040B009062
:1005E00054F8047B1199019800F0BDFA01901B9911
:1005F000139800F0B8FA13901799129800F0B3FA14
:1006000012901A99109800F0AEFA109019990F985C
:1006100000F0A9FA0F9016990E9800F0A4FA0E9027
:1006200015990D9800F09FFA0D9014990C9800F010
:100630009AFA0C903046009900F0EDFA119000996A
:100640000A9800F0E8FA1B9000990B9800F0E3FA82
:1006500017905046009900F0DEFA1A900099089819
:1006600000F0D9FA19904846009900F0D4FA169093
:100670004046009900F0CFFA15903846009900F0F6
:10068000CAFA149055F8040B009054F8046B1199B1
:10069000019800F068FA01901B99139800F063FA32
:1006A00013901799129800F05EFA12901A99109808
:1006B00000F059FA109019990F9800F054FA0F9021
:1006C00016990E9800F04FFA0E9015990D9800F0BB
:1006D0004AFA0D9014990C9800F045FA0C90009984
:1006E0000A9800F098FA119000990B9800F093FA8C
:1006F0001B905046009900F08EFA179000990898C8
:1007000000F089FA1A904846009900F084FA19908E
:100710004046009900F07FFA16903846009900F0A4
:100720007AFA15903046009900F075FA1490ABF102
:10073000010B1199019800F016FA01901B9913987A
:1007400000F011FA13901799129800F00CFA129019
:100750001A99109800F007FA109019990F9800F064
:1007600002FA0F9016990E9800F0FDF90E90159967
:100770000D9800F0F8F90D9014990C9800F0F3F929
:100780000C90BBF1000F7FF44FAD189810F0070BE1
:1007900063D000BF55F8040B009054F8040B0A9086
:1007A00000990B9800F037FA11905046009900F02C
:1007B00032FA1B900099089800F02DFA17904846DD
:1007C000009900F028FA1A904046009900F023FAA8
:1007D00019903846009900F01EFA1690304600999C
:1007E00000F019FA159000990A9800F014FACDF863
:1007F0002CA0DDF820A0CDF82090C1461490B8467A
:1008000037460A9E1199019800F0ADF901901B99A5
:10081000139800F0A8F913901799129800F0A3F913
:1008200012901A99109800F09EF9109019990F984B
:1008300000F099F90F9016990E9800F094F90E9027
:1008400015990D9800F08FF90D9014990C9800F0FF
:100850008AF90C90BBF1010B9CD1029820300290D8
:100860002599019808602598139940F8041F12995A
:1008700040F8041F109940F8041F0F9940F8041F16
:100880000E9940F8041F0D9940F8041F0C9941601F
:10089000083025901F98401E1F907FF47FAC26984B
:1008A00010F0070850D024980025016803980160D3
:1008B0002498209E001D24900398029C001D039004
:1008C000DDF860903168206800F0A5F9294600F055
:1008D0004AF9371D261D0546B9F1010429D0B4F1A6
:1008E000004F7DD2002C24DD361F3F1F14F0010F76
:1008F00009D057F8041F56F8040F00F08CF9294668
:1009000000F031F90546641013D07968706800F082
:1009100082F9294600F027F9054657F8081F56F8CE
:10092000080F00F078F9294600F01DF90546641E0D
:10093000EBD1259805602598001D25900298001D93
:100940000290B8F10108AED12398189940684C1E66
:10095000A30820D0B3F1004F56D2002B1BDD029A22
:1009600001469C4652F8045B41F8045B52F8045B74
:1009700041F8045B52F8085B41F8085B52F8045CEC
:1009800041F8045CBCF1010CECD1029900EB0310BE
:1009900001EB0311029114F0030104BF27B0BDE87D
:1009A000F08FB1F1004F44D20029DCBF27B0BDE881
:1009B000F08F031F029A121F11F0010F03D052F89B
:1009C000040F43F8040F480804BF27B0BDE8F08FB8
:1009D0005168596052F8081F43F8081F401E00E094
:1009E00003E0F5D127B0BDE8F08F3968306800F03A
:1009F00012F9294600F0B7F80546641E06F1040610
:100A000007F10407F1D194E70299096840F8041B43
:100A1000029951F8042F40F8042B51F8042F40F8A4
:100A2000042B4A68083140F8042B02915B1EEBD17D
:100A3000B1E7029A126840F8042B029A121D029242
:100A4000491EF6D127B0BDE8F08F70B50446049872
:100A5000218008448000011F1D461846A26000F056
:100A60004CF8656070BD2DE9F0410024061B254659
:100A700071F1000605DA01240027D0EB070067EBCF
:100A80000101161E73F1000605DA0027D2EB0702FA
:100A9000012567EB030300F0A3FB86460E461746CD
:100AA0009C46AC4204D00025D0EB050E65EB010658
:100AB00024B10020D2EB000760EB030C70463146F6
:100AC0003A466346BDE8F0810649074A0868504344
:100AD00043F2390210440860400870470149086039
:100AE00070470000A40200206D4EC641D2B201E062
:100AF00000F8012B491EFBD270470022F6E710B523
:100B000013460A4604461946FFF7F0FF204610BD7B
:100B1000421C10F8011B0029FBD1801A704730B528
:100B200004460020034600E05B1C934203D2E05CD5
:100B3000CD5C401BF8D030BD034611F8012B00F806
:100B4000012B002AF9D11846704710B548430446D6
:100B500008F08AFF002805D00021002C02D0641E76
:100B60000155FAE710BDF0B480EA0102D40F42004B
:100B7000B2EB410F02D20246084611464A0042D06B
:100B8000C30DDDB2C1F3C752AD1A202D35DAC1F362
:100B9000160141F4000204B15242C5F1200602FAE6
:100BA00006F12A411044B3EBD05F23D0C4B1012D2C
:100BB000A0EBC35009DCF0BC4FF0004202EAC35284
:100BC000DBB200F5000000F076BB400000F1807061
:100BD00000EBC350A0F1807040EAD170490009E0F9
:100BE000490841EAC071A0EBC35000F5000040087D
:100BF00000EBC350F0BC00F055BB6142012202EB98
:100C00004101001BF6E7F0BC704781F00041AAE704
:100C100080F00040A7E780EA010210B502F000432F
:100C2000400022D04A001FD0010E01EB1261C0F338
:100C30005600C2F3560240F4000042F40002A0FB4A
:100C4000022000047F39140400D0401C50EA1240F6
:100C500001D44000491EC2B20C0604EBD010401C67
:100C60004008802A02D003E0002010BD20F00100DF
:100C7000002900DA0020184310BD30B480EA0102D8
:100C800002F0004530F0004221F0004013D090B156
:100C9000C30DD40DC2F31601C0F31600E41A41F4DB
:100CA000000140F400027D34914201D3641C00E055
:100CB0004900002C02DA30BC002070474FF40000DD
:100CC0000023914201D3891A034340084FEA4101AE
:100CD000F7D151B1914202D14FF0004105E002D26B
:100CE0004FF0010101E06FF0010103EBC450284413
:100CF00030BC00F0D7BA2DE9FE4F804681EA0300F0
:100D0000C00F0C46009021F0004123F00045B8EBE5
:100D10000200A94105D24046214690461C460B469A
:100D2000024623F00040104347D0270DC7F30A00C6
:100D3000C3F30A510290401A019040286BDAC3F3C2
:100D4000130040F4801B0098924620B10023D2EBA0
:100D5000030A63EB0B0B01985946C0F14002504661
:100D600000F06FFA06460D4650465946019A00F0CB
:100D700087FA10EB08006141002487EA115284EAE7
:100D8000E7731A4340D0009A62B3019A012A4FEAEE
:100D9000075215DC001B61EB02014FF0004202EA32
:100DA0000752CDE90042001C41F5801132462B4626
:100DB00000F0BEFA03B0BDE8F08F40462146F9E7E7
:100DC000001B61EB0201001C41F5801300185B4120
:100DD0002018A2F5001747EB030140EAD570B619B9
:100DE0006D4111E06D084FEA360645EAC0754FEADD
:100DF0000752001B61EB0201001C41F580114908FC
:100E00004FEA30000019514132462B4603B0BDE88D
:100E1000F04F00F07EBA0098012240000023D0EB92
:100E2000020263EBE073009821464FEAE074B8EBEE
:100E3000000061EB0401E9E783F000435BE781F028
:100E4000004158E72DE9FE4F81EA030404F0004415
:100E500021F0004100944FF0000B23F0004350EAD2
:100E600001045ED052EA03045BD0C3F30A54C1F319
:100E70000A552C44A4F2F3340194A0FB0254C1F3AC
:100E8000130141F48011C3F3130343F4801301FBF6
:100E9000024400FB034E840A970A44EA815447EA5D
:100EA0008357A4FB076802958D0A05FB07854FEA67
:100EB000932C04FB0C542705029D4FEA065847EA81
:100EC0001637B5EB08056EEB070C870E920E47EA56
:100ED000811742EA8312A7FB0201B6EB0B0164EB18
:100EE00000042B0D43EA0C335E1844EB1C50DA4629
:100EF0005146E7FB0201C5F313044FEA0B3343EA03
:100F000014534FEA0432019C43EA0603A4F10C0493
:100F10000294009CCDE900B400F00AFA03B0BDE8E9
:100F2000F08F00200146F9E72DE9F04D81EA030436
:100F300004F0004B21F0004514464FF0000A23F066
:100F4000004150EA050220D054EA01021DD0C5F349
:100F50000A570246C5F31303C1F31300C1F30A563F
:100F600040F4801543F48013A7EB0608101BD64607
:100F700008F2FD3873EB050002D308F1010801E027
:100F800092185B41B8F1000F03DA00200146BDE87A
:100F9000F08D00204FF48011064684460EE0171BAA
:100FA00073EB050705D3121B63EB050306434CEAFD
:100FB000010C49084FEA300092185B4150EA0107E2
:100FC000EDD152EA030012D082EA040083EA05015F
:100FD000084305D0101BAB4106D20122002306E0D6
:100FE00000224FF0004302E06FF0010253101AEBB1
:100FF00006004CEB085110EB0A0041EB0B01BDE879
:10100000F04D00F086B9C10F80EAE0700844CA07CD
:101010009623002100F04FB996230022114600F0DC
:101020004AB90EB5C10F80EAE0700844CA07002132
:1010300040F233438DE80E000A460B4600F078F983
:1010400003B000BD0EB540F2334102910021CDE95D
:1010500000110A460B4600F06BF903B000BD00F02A
:10106000004220F00040C10DC0F3160040F4000023
:101070007F2901DA00207047962903DCC1F196012F
:10108000C84001E096398840002AF4D040427047B9
:1010900020F00040C10DC0F3160040F400007F298D
:1010A00001DA00207047962903DCC1F19601C8409F
:1010B000704796398840704770B5C1F30A5201F005
:1010C00000450024C1F3130140F2FF3341F48011C5
:1010D0009A4201DA002070BD40F233439A42A2F2F4
:1010E000334203DC524200F0BBF800E090402C4356
:1010F000F1D0404270BDC1F30A5210B5C1F31301E3
:1011000040F2FF3341F480119A4201DA002010BD11
:1011100040F233439A42A2F2334203DC524200F0DF
:101120009FF810BD904010BD00F0004230F000402C
:101130000AD0C10D01F56071C0F3160042EA0151F9
:10114000C208400711437047002001467047000065
:1011500030B5041E71F1000404DB4FF0004440423E
:1011600064EB0101141E73F1000405DB1C464FF013
:101170000043524263EB04038B4208BF824230BDFE
:1011800001F0004330B421F0004150EA010206D0E2
:101190000A0DA2F56072C1F31301002A02DC30BC13
:1011A00000207047440F44EAC104C100E01830BC7D
:1011B00000EBC25000F076B8002801DBC0F100401F
:1011C000002901DBC1F1004181427047002801DBA9
:1011D000C0F10040002901DBC1F1004188427047A5
:1011E0002DE9F05F0546002092469B46884606465C
:1011F000814640241BE0284641464746224600F0EF
:101200002FF853465A46C01A914110D3114618463A
:10121000224600F016F82D1A67EB01084F462246C9
:101220000120002100F00DF817EB00094E41201EAF
:10123000A4F10104DFDC484631462A464346BDE8B6
:10124000F09F202A04DB203A00FA02F100207047C8
:101250009140C2F1200320FA03F3194390407047F4
:10126000202A04DB203A21FA02F00021704721FAFB
:1012700002F3D040C2F12002914008431946704762
:10128000202A06DBCB17203A41FA02F043EAE0734A
:1012900006E041FA02F3D040C2F120029140084337
:1012A000194670470029A8BF7047401C490008BF75
:1012B00020F00100704710B4B0FA80FC00FA0CF086
:1012C00050EA010404BF10BC704749B1CCF12004BE
:1012D00021FA04F411FA0CF118BF0121214308434B
:1012E000A3EB0C01CB1D4FEA00614FEA102042BF77
:1012F000002010BC704700EBC35010440029A4BF6D
:1013000010BC7047401C490008BF20F0010010BC11
:10131000704710B5141E73F1000408DA401C41F147
:10132000000192185B411A4301D120F0010010BD69
:101330002DE9F04D92469B4611B1B1FA81F202E0DF
:10134000B0FA80F220329046FFF77BFF04460F464A
:1013500040EA0A0041EA0B0153465A46084313D0BB
:10136000114653EA010019D0C8F140025046FFF778
:1013700077FF05460E46504659464246FFF761FF45
:10138000084305D0012004E020463946BDE8F08D31
:101390000020054346EAE0762C4337430A9863056C
:1013A000E40AA0EB08000022FD0A44EA47540A3090
:1013B00002D500200146E9E7010510196941DDE980
:1013C000084500196941BDE8F04DA2E770B521F06C
:1013D000004303430CD0C1F30A550024D5EB0405A8
:1013E00064EB0403D617AD1AB34102DB00200146BB
:1013F00070BD201841EB025170BD0000064C074D36
:1014000006E0E06840F0010394E8070098471034D4
:10141000AC42F6D3FEF790FE080001082800010850
:101420002DE9F04D00231A461B1A8A4103DB0020E8
:101430000146BDE8F08DC1F30A52C1F3130141F436
:1014400080154FF0000BD10702D100186D41521EDC
:101450000027044640F2FF11384601EB620A3E467F
:101460008046024600204FF48011FFF7F9FEC219B2
:101470007141BB1846EB0100B4EB030C75EB000C9B
:1014800004D3E41A65EB000517460E46241908F14B
:1014900001006D4180463428E3DDF91946EB060072
:1014A000091BA84103D24FF0FF32134601E000228E
:1014B00013461BEB070046EB0A51BDE8F04DFFF762
:1014C00028BF70B58C1810F8015B15F0070301D127
:1014D00010F8013B2A1106D110F8012B03E010F897
:1014E000016B01F8016B5B1EF9D12B0705D40023BA
:1014F000521E0DD401F8013BFAE710F8013BCB1A5C
:10150000921C03E013F8015B01F8015B521EF9D550
:10151000A142D8D3002070BD21B1826842F00102FF
:10152000826003E0826822F0010282607047014617
:1015300000208A6802F004020AB1012000E00020C5
:1015400070470146C86C80B27047000030B5024653
:101550000020002350680F4C20400D790C6844EAAD
:1015600005242043506090680B4C2040D1E9025480
:101570002C434D7944EA450420439060D06A20F41E
:1015800070000C7C641EE4B2234340EA0350D06236
:1015900030BD0000FFFEF0FFFDF7F1FFF0B504469F
:1015A0000D4600200021092D11DDE068A5F10A0695
:1015B00006EB4607072606FA07F18843A5F10A0657
:1015C00006EB460603FA06F10843E0600CE02069EA
:1015D00005EB4507072606FA07F1884305EB4506A4
:1015E00003FA06F108432061072A0FDA606B561EE2
:1015F00006EB86071F2606FA07F18843561E06EB00
:10160000860605FA06F10843606322E00D2A0FDA28
:10161000206BD61F06EB86071F2606FA07F18843C4
:10162000D61F06EB860605FA06F10843206310E094
:10163000E06AA2F10D0606EB86071F2606FA07F1FF
:101640008843A2F10D0606EB860605FA06F108436B
:10165000E062F0BD21B1826842F4A002826003E042
:10166000826822F4A00282607047816841F0040120
:1016700081607047002001E0411CC8B23228FBDBCA
:101680007047000008B50121042002F05BF9012039
:10169000ADF8000000208DF803006946014800F015
:1016A000A1FE08BD0008014000B585B00121480237
:1016B00002F048F9FFF7E6FF0020009001208DF8C6
:1016C0000500002003908DF804004FF46020029084
:1016D00001208DF8100069460F48FFF737FF012100
:1016E0000D48FFF719FF4FF4404002F0FFF80723C1
:1016F000012200210848FFF751FF01210648FFF7AA
:10170000A9FF0548FFF7B1FF00BF0348FFF70FFF30
:101710000028FAD105B000BD0024014070B5044690
:101720000021F32000F05EF9054605EA040008B147
:10173000012070BD0020FCE72DE9F04700BF082024
:10174000FFF7ECFF0028FAD100BF0120FFF7E6FF0A
:101750000028FAD10021F92000F044F906460021C2
:10176000F82000F03FF907460021F72000F03AF991
:1017700080464FEA083040EA071040EA26194846FA
:1017800004F0C0FA04460D4620462946BDE8F0871D
:1017900070B5044620784001617840EA8100A17864
:1017A0000843C5B22946F52000F04EF970BD70B56A
:1017B000044660784001217840EA8100A17808431E
:1017C000C5B22946F42000F03FF970BD7CB501F0A8
:1017D00005FB0021882000F005F90446002189203E
:1017E00000F000F9054604EB05207C490880002143
:1017F0008A2000F0F7F8044600218B2000F0F2F870
:10180000054604EB052000B27449488000218C2075
:1018100000F0E8F8044600218D2000F0E3F80546CA
:1018200004EB052000B26D49888000218E2000F075
:10183000D9F8044600218F2000F0D4F8054604EBC7
:1018400005206649C8800846C18865A002F0DEFE12
:101850000021902000F0C6F804460021912000F0FD
:10186000C1F8054604EB052000B25C490881084632
:10187000B0F908105AA002F0C9FE0021922000F031
:10188000B1F804460021932000F0ACF8054604EBC3
:10189000052000B2514948810846B0F90A1050A00D
:1018A00002F0B4FE0021942000F09CF804460021D0
:1018B000952000F097F8054604EB052000B2474953
:1018C00088810846B0F90C1045A002F09FFE002167
:1018D000962000F087F804460021972000F082F857
:1018E000054604EB052000B23C49C8810846B0F922
:1018F0000E103BA002F08AFE0021982000F072F842
:1019000004460021992000F06DF8054604EB0520FF
:1019100000B2324908820846B0F9101030A002F037
:1019200075FE00219A2000F05DF8044600219B20FE
:1019300000F058F8054604EB052000B2274948821C
:101940000846B0F9121026A002F060FE00219C208B
:1019500000F048F8044600219D2000F043F80546B9
:1019600004EB052000B21D4988820846B0F9141026
:101970001BA002F04BFE00219E2000F033F804462D
:1019800000219F2000F02EF8054604EB052000B250
:101990001249C8820846B0F9161011A002F036FEAE
:1019A000B621E02000F050F803208DF8040001205B
:1019B0008DF8050003208DF8060001A8FFF7F7FE5B
:1019C00000208DF8000004208DF8010000208DF823
:1019D00002006846FFF7DCFE7CBD00009407002093
:1019E00025640A0070B505460C46552601F05CFAE0
:1019F000EC2001F0B3FA01F085FA012804D010A020
:101A000002F004FE012070BD284601F0A7FA01F0A3
:101A100079FA012801D00120F5E701F045FAED201F
:101A200001F09CFA01F06EFA012801D00120EAE7EA
:101A3000204601F00FFA064601F050FA3046E2E780
:101A4000736473640000000070B505460C4601F035
:101A50002BFAEC2001F082FA01F054FA20B90DA023
:101A600002F0D4FD012070BD284601F077FA01F0A4
:101A700049FA012801D00120F5E7204601F06EFA6D
:101A800001F040FA012801D00120ECE701F026FA2C
:101A90000020E8E7736473667366000008B50121EF
:101AA000082001F04FFF0120ADF8000000208DF864
:101AB000030003208DF802006946024800F092FC02
:101AC00008BD0000000C014000BFFEE710B5234A2E
:101AD0002349244808F056F92348008808B9012012
:101AE00010BD2148008800EB800040004FF47A715F
:101AF00000FB01F408F000F91C490968401AA042F3
:101B000001D20120ECE71A4916480068FFF754FBA0
:101B10000BD2184913480068FFF758FB05D2164846
:101B2000007810B901201449087014490D48006864
:101B3000FFF742FB10D200210A480068FFF746FB7E
:101B40000AD20D480078012806D108F0D5F80749D7
:101B500008600020084908700020C1E71802002032
:101B60001402002010020020320100200C0200208C
:101B700000008CC20000B4C2090200200000F04145
:101B800021B1026842F00102026004E002684FF6EF
:101B9000FE731A400260704710B50022026847F6D3
:101BA000F0739A430C6A8B6823430C6923434C6996
:101BB00023438C692343CC6923434C6A23438C6AB7
:101BC00023431A430260CB6843600B6883604B6811
:101BD000C36010BD2DE9F04107460D46164601F0E1
:101BE00085F8D02000F0DCFF01F0B0F810B1002043
:101BF000BDE8F081384600F0D3FF01F0A7F808B146
:101C00000020F5E701F072F8D12000F0C9FF01F0E3
:101C10009DF808B10020EBE7701EC6B2002405E075
:101C2000012001F039F82855601C84B2B442F7DB7A
:101C3000002001F031F8285501F074F80120D7E7B1
:101C400070B505460C4601F051F8D02000F0A8FF11
:101C500001F07CF808B1002070BD284600F0A0FF1C
:101C600001F074F808B10020F6E7204600F098FF74
:101C700001F06CF808B10020EEE701F053F8012004
:101C8000EAE700002DE9F84FA0480168A048006885
:101C9000FEF7BBFF8246FFF747FA07463A460B4678
:101CA00000209C49FFF740F90546FFF769FA9A4979
:101CB0000860302378221946002001F064FC3023AC
:101CC00000221146104601F05EFC3A231E221946FE
:101CD000002001F058FC01201023904A312100908F
:101CE000282000F089FC3A2378221946532001F07D
:101CF0004AFC432314223121104601F044FC4323C3
:101D00005F223121104601F03EFC0124E8E0022C64
:101D100078DB834931F81420824951F822007B494D
:101D20000968FEF772FF07467B4801683846FEF7F0
:101D300072FF0646FFF7ACF9C0B2C0F12D05C4EB47
:101D400004111E2202EB41000122294601F07CFC15
:101D5000734830F81410601E714A32F81000081AE7
:101D60001E2190FBF1F070490880601E114631F889
:101D7000109040E06C48008899FBF0F100FB119056
:101D8000A8BB684951F8290060490968FEF73DFF82
:101D90008046614801684046FEF73DFF0746FFF771
:101DA00077F9C0F12D00C5B2A9F101015D4A52F8E1
:101DB000210056490968FEF728FF80465648016809
:101DC0004046FEF728FF0746FFF762F9C0F12D00F5
:101DD000C6B256490A780978491EC8B22B46314620
:101DE00001F0D1FB51480088401C5049088009F19E
:101DF00001001FFA80F94A4830F814004845B9DC60
:101E00006CE0FFE7464931F81420464951F82200BA
:101E10003E490968FEF7F9FE07463F480168384623
:101E2000FEF7F9FE0646FFF733F9C0B2C0F12D0503
:101E3000012229461E2001F007FC394830F8140021
:101E40001E2190FBF1F0384908804FF0010940E075
:101E50003548008899FBF0F100FB1190A8BB31498F
:101E600051F8290029490968FEF7CFFE80462A4823
:101E700001684046FEF7CFFE0746FFF709F9C0F1BB
:101E80002D00C5B2A9F10101264A52F821001F49CF
:101E90000968FEF7BAFE80461F4801684046FEF713
:101EA000BAFE0746FFF7F4F8C0F12D00C6B21F498D
:101EB0000A780978491EC8B22B46314601F063FB07
:101EC0001A480088401C1949088009F101001FFACE
:101ED00080F9134830F814004845B9DC601C84B21E
:101EE000052CFFF614AF002405E000200C4921F872
:101EF0001400601C84B20B481038B0F8B00FA04238
:101F0000F3DC012009490880BDE8F88FC4010020F6
:101F1000C001002000004440C801002090010020C2
:101F2000201800207C080020CE010020CC010020D9
:101F3000704710B503F0E0FA02F09AFA04F010F9D5
:101F400000F07AFE01F0A2FE01F068F806F01DFA3A
:101F50000AF006FA04F0B6F903F038FE02F0E8FAE7
:101F600000F0F0FDFFF732FC01F051FA08F01CF828
:101F700009F04AF802F09AF810BD00002DE9F04788
:101F80000021A9480068FFF721F93AD8A64800685F
:101F9000FFF7CAF807460022A44BFEF753FF054699
:101FA000FFF7EEF804462B20A14988712046FFF781
:101FB0006FF880B2642190FBF1F030309C49C87119
:101FC0002046FFF765F880B20A2190FBF1F090FB04
:101FD000F1F201FB12003030954908722046FFF7FC
:101FE00057F880B20A2190FBF1F201FB1200303069
:101FF0008F4988720A231A4600218D4806F02CF971
:1020000032E08C4988480068FEF705FE04462D2022
:10201000874988712046FFF73BF880B2642190FB26
:10202000F1F030308249C8712046FFF731F880B2B4
:102030000A2190FBF1F090FBF1F201FB120030302D
:102040007B4908722046FFF723F880B20A2190FBF3
:10205000F1F201FB12003030754988720A231A46EA
:102060000021734806F0F8F8002173480068FFF774
:10207000ADF833D8714970480068FEF7CCFD824650
:102080002B206F4948715046FFF702F880B2642157
:1020900090FBF1F030306A4988715046FEF7F8FF46
:1020A00080B20A2190FBF1F090FBF1F201FB1200EB
:1020B00030306349C8715046FEF7EAFF80B20A210A
:1020C00090FBF1F201FB120030305D49487214239D
:1020D0000A2200215A4806F0BFF832E05549564816
:1020E0000068FEF798FD82462D20554948715046FC
:1020F000FEF7CEFF80B2642190FBF1F03030504902
:1021000088715046FEF7C4FF80B20A2190FBF1F0BF
:1021100090FBF1F201FB120030304949C871504682
:10212000FEF7B6FF80B20A2190FBF1F201FB12002C
:1021300030304349487214230A220021404806F0F7
:102140008BF800213F480068FFF740F83AD83D4837
:102150000068FEF7E9FF07460022344BFEF772FEE7
:102160000546FFF70DF881462B2037490871484690
:10217000FEF78EFF80B2642190FBF1F030303249DF
:1021800048714846FEF784FF80B20A2190FBF1F0C7
:1021900090FBF1F201FB120030302B498871484668
:1021A000FEF776FF80B20A2190FBF1F201FB1200EC
:1021B0003030254908721E230A220021224806F0E9
:1021C0004BF82FE01F48D0F800902D201E490871D1
:1021D0004846FEF75DFF80B2642190FBF1F030309D
:1021E000194948714846FEF753FF80B20A2190FB17
:1021F000F1F090FBF1F201FB1200303012498871CE
:102200004846FEF745FF80B20A2190FBF1F201FB40
:10221000120030300C4908721E230A2200210A489D
:1022200006F01AF8BDE8F0871002002000002440F4
:10223000E8010020000020C114020020000020411D
:10224000F401002018020020FF01002070B54FF4B7
:10225000806000F035F830B31349B1F1807F00D3CE
:102260001DE021F07F40401E4FF0E02250615017EA
:102270000F22002807DA13071D0E0C4B00F00F0485
:10228000241F1D5503E013071C0E094B1C5400BFEF
:1022900000204FF0E02290610720106100BF4FF452
:1022A000806000F007F870BD4019010018ED00E0F3
:1022B00000E400E001490860704700001404014098
:1022C000014600200022074B1B6803EA0102054B70
:1022D00014331B680B4013B10AB1012000E0002049
:1022E0007047000000040140002123498279002A40
:1022F0003AD00A46126803689A430B461A600A1DD0
:10230000126803689A430B1D1A60027911440A6827
:1023100003681A430A60184A0832126803689A432D
:10232000154B08331A601A1D126803689A43124B42
:102330000C331A604279102A0ED11A1F12680368F2
:102340001A430D4B08331A601A1D126803681A43AA
:10235000094B0C331A600DE00749427911440A68B1
:1023600003681A430A6005E0027911440A680368A9
:102370009A430A60704700000004014008B54FF41A
:10238000C06001F0CFF828208DF8000001208DF802
:1023900001008DF802008DF80300684601F08AF80C
:1023A00008BD000030B500228B071C0F0F2303FA75
:1023B00004F20B4B8C1053F824309343084C8D10CF
:1023C00044F8253023468C1053F824308C07240F12
:1023D00000FA04F42343024C8D1044F8253030BD3C
:1023E000080001402DE9F0410246002500260020AA
:1023F00000230024002791F803C00CF00F0591F88A
:1024000003C00CF0100CBCF1000F03D091F802C017
:102410004CEA050591F800C0BCF1000F31D01468FA
:1024200000202BE04FF0010C0CFA00F3B1F800C0D3
:102430000CEA03069E4220D183004FF00F0C0CFAE9
:1024400003F7BC4305FA03FC4CEA040491F803C00B
:10245000BCF1280F06D14FF0010C0CFA00FCC2F8B9
:1024600014C00AE091F803C0BCF1480F05D14FF049
:10247000010C0CFA00FCC2F810C0401C0828D1D393
:102480001460B1F800C0BCF1FF0F34DD54680020C7
:102490002EE000F1080C4FF0010808FA0CF3B1F837
:1024A00000C00CEA03069E4221D183004FF00F0CBE
:1024B0000CFA03F7BC4305FA03FC4CEA040491F858
:1024C00003C0BCF1280F05D100F1080C08FA0CF884
:1024D000C2F8148091F803C0BCF1480F07D100F195
:1024E000080C4FF0010808FA0CF8C2F81080401CE4
:1024F0000828CED35460BDE8F081024600209368DE
:102500000B400BB1012000E0002070474161704793
:10251000016170472DE9FC5F06460F4691469846DB
:10252000DDF830B00020019000240025A9F103005F
:102530000001009010222F49009802F00FF87F2E22
:1025400002DD0026B81CC7B2B8F1100F2AD1002452
:1025500025E0BBF1000F03D0264810F804A002E0EC
:10256000244810F804A0002515E08020284100EA46
:102570000A0038B13A19D1B27219D0B2012201F071
:1025800063F806E03A19D1B27219D0B2002201F014
:102590005BF8681CC5B2082DE7DB601CC4B2102CC8
:1025A000D7DB25E0B8F1080F20D100241BE000257F
:1025B00015E08020284100EA0A0038B13A19D1B26A
:1025C0007219D0B2012201F03FF806E03A19D1B2F7
:1025D0007219D0B2002201F037F8681CC5B2082D7C
:1025E000E7DB601CC4B2082CE1DB01E0BDE8FC9F26
:1025F00000BFFBE7470300202DE9F84F0546894659
:1026000016461C46DDF828A00027102C05D12046D0
:1026100004EBD071C1F347080BE0082C07D120462A
:1026200004EBD0714910891C01F0FF0801E0BDE8FE
:10263000F88F13E0CDF800A0F25D23464946284606
:10264000FFF768FF05EB0800C5B2782D04DD002513
:1026500009EB040000F0FF09781CC7B2F05D002808
:10266000E8D100BFE3E7000002E000200149086074
:10267000FBE70000888121422DE9FC47FE480078F5
:1026800001286FD10020FC490870FC49081F00F0A8
:1026900028FDFA4908398868FEF7BEFCF849086049
:1026A000F848F94A0368F948FDF75EFDF849F6482D
:1026B0000068FEF78BFD73D2F048083800780128D7
:1026C00007D1F1480168ED480838C268103040F879
:1026D0002210EA480838C068401CE8490839C86038
:1026E0000846C068B0F5967F06D10846007818B94C
:1026F0000020C86001200870E0480838C068B0F5C4
:10270000FA7FBED1DD48083800780128B9D1002011
:10271000DA490839C860012008700020DD490860E6
:102720000220DD4908808BE004E0DC480088401C82
:10273000DA490880D9480088B0F5FA7F0CDACF4A28
:102740000832D74B1B8852F82310D44B1B8852F801
:102750002300FEF731FDE8D0D0480088401CCE4968
:10276000088005E0D8E1CC480088401CCA490880B0
:10277000C9480088B0F5FA7F0CDAC04A0832C64B67
:102780001B8852F82310C54B1B8852F82300FEF714
:1027900013FDE8D0C0480088B0F5FA7F01DD55E0B0
:1027A000AFE1B64A0832BE4B1B8852F82310BB4B30
:1027B0001B8852F82300FEF709FD14D2AF4A0832F5
:1027C000B54B1B8852F82310B44B1B8852F82300DA
:1027D000FEF7FCFC07D24FF07E51B248AF4A128898
:1027E00040F822101FE0A54A0832AD4B1B8852F872
:1027F0002310AA4B1B8852F82300FEF7DDFC12D2EF
:102800009E4A0832A44B1B8852F82310A34B1B8806
:1028100052F82300FEF7D0FC05D2A349A1489F4AF5
:10282000128840F822109D4800889D4908809A48E7
:1028300000889A49088098480088401C964908807A
:1028400095480088B0F5FA7FFFF66EAF00BF974855
:102850009749086000209749086082462BE0874826
:10286000083050F82A1092480068FEF7AFFC05D2F5
:102870008248083050F82A008D4908607F480830A7
:1028800050F82A108B480068FEF796FC05D27B486A
:10289000083050F82A00874908607848083050F816
:1028A0002A1085480068FEF75EF9834908600AF13E
:1028B00001001FFA80FABAF5FA7FD0DB7E48006883
:1028C000FEF732FC044600227C4BFEF72DFB064649
:1028D000FEF756FC784908604FF0000A27E071497E
:1028E00051F82A000021FEF771FC08D26349083133
:1028F00051F82A0070490968FEF75EFC0FD3694958
:1029000051F82A000021FEF757FC0CD25B49083130
:1029100051F82A0068490968FEF758FC03D20021E3
:10292000604840F82A100AF101001FFA80FABAF54F
:10293000FA7FD4DB4FF0000A37E003E00AF1010030
:102940001FFA80FABAF5FA7F06DA564951F82A00DA
:102950000021FEF731FCF1D9BAF5FA7F00DD27E05E
:10296000AAF1010045490839B1F8B01F544A22F8CC
:10297000110042480838B0F8B00F401C3F490839F0
:10298000A1F8B00F03E00AF101001FFA80FABAF5CE
:10299000FA7F06DA434951F82A000021FEF716FCB7
:1029A000F1D90AF101001FFA80FABAF5FA7FC4DB07
:1029B00000BF4FF0000A21E0414830F81A10AAF198
:1029C00001003F4A32F81000081A41280DDD104678
:1029D00030F81A10AAF1010032F81000081A39492B
:1029E000098808443749088004E037480078401CCB
:1029F000354908700AF101001FFA80FA1F480838AB
:102A0000B0F8B00F5045D7DC1C490839B1F8B01FF9
:102A10002D4A1278881AFEF7F6FA044629480088EB
:102A2000FEF7FAFA05462146FEF727F92249086023
:102A300008460068FEF778FB06460022234BFEF7A7
:102A400001FA044622460B4600202149FEF76CFAA3
:102A5000804600221F4BFEF7F5F9CDE90001FEF795
:102A60008FFB1D49086000F0E5FD01200949086061
:102A700000200249083931E01400002074080020C9
:102A8000B801002088010020BC010020600800205F
:102A9000007C124888812142A8010020A601002064
:102AA000A40100204C100020000080BF00144D48FD
:102AB000C4010020C0010020AC01002000407F4084
:102AC00020180020B0010020B201002000002140A9
:102AD00000408F4000004E40B4010020A1F8B00F2C
:102AE0000E49088001200E49088002200D49088007
:102AF00000200D4908800D4908700D480068BDE8A8
:102B0000FC8700200B4908700B480C490860002026
:102B10000849C8600A48F2E70948F0E7A401002024
:102B2000A6010020A8010020B0010020B201002071
:102B3000B40100206C0800200000C842BC01002045
:102B4000000080BF08B500F09FFA41F61F416420E5
:102B500001F0DCFA09480068094B0A4A1321009089
:102B60000948FDF772FF00200849C8604860A1F8D5
:102B7000B00F08708860487008BD00008801002010
:102B80001408002058FD0008600800206C08002090
:102B900010B502480068804710BD00007801002091
:102BA00070B5044608251DE04FF480701249086096
:102BB00006F052F904F0800028B14FF400700E497D
:102BC000091F086003E04FF400700B4908606006BD
:102BD000040E06F041F94FF480700749091F0860A0
:102BE00006F03AF9281EA5F10101CDB2DCD14FF46F
:102BF00080700149086070BD140C014010B500F0F0
:102C000041FF00200A49086006F026F90120094921
:102C1000C1F8A00106F020F900200549091F08604D
:102C200006F01AF901200349C1F8A40110BD000003
:102C3000A48121420080214208B50121082000F032
:102C400081FE4FF44070ADF8000014208DF80300B1
:102C500003208DF8020069460148FFF7C3FB08BD59
:102C6000000C014010B500F00DFF0120084908607C
:102C700006F0F2F801200749C1F8A00106F0ECF8CF
:102C800000200349091F086006F0E6F810BD0000A7
:102C9000A48121420080214270B5054600F0CCFE9F
:102CA000002614E06006040E01200E49086006F0BC
:102CB000D3F80D48D0F82401012801D1601CC4B21A
:102CC00000200849086006F0C7F8701CC6B2082E3C
:102CD000E8DB15B1FFF792FF01E0FFF7C3FF2046E5
:102CE00070BD0000A08121420080214210B500F09B
:102CF000C9FE0120094908600949C1F8A00106F090
:102D0000ABF800200549086006F0A6F80020044949
:102D1000C1F8A00106F0A0F810BD0000A481214276
:102D20000080214210B500F0ADFE0020054908608A
:102D300001200549C1F8A00106F08EF801200149E3
:102D4000086010BDA48121420080214210B500F02E
:102D500099FE00201049086006F07EF801200F4916
:102D6000C1F8A40106F078F801200B49086007E0DB
:102D7000601CC4B2FA2C03DDFFF7D4FF012010BDA4
:102D800005487C3800680028F2D10349086006F045
:102D900063F80020F3E70000A08121420080214277
:102DA00010B500F085FE00200A49086006F05BF8C7
:102DB00001200949C1F8980106F055F8002005499D
:102DC000091D086006F04FF801200349C1F894017D
:102DD00010BD0000948121420080214208B50121EC
:102DE000082000F0AFFD6020ADF8000014208DF841
:102DF000030003208DF8020069460648FFF7F2FA47
:102E00000120054908600549C1F8900100F066F805
:102E100008BD0000000C0140948121420080214245
:102E200010B500F045FE01200849086006F01BF8C7
:102E300001200749C1F8980106F015F80020034960
:102E4000091D086006F00FF810BD000094812142B2
:102E50000080214270B5054600F002FE002614E015
:102E60006006040E01200E49086005F0FCFF0D48C5
:102E7000D0F81401012801D1601CC4B20020084917
:102E8000086005F0F0FF701CC6B2082EE8DB15B133
:102E9000FFF786FF01E0FFF7C3FF204670BD00008B
:102EA000988121420080214210B501200949086023
:102EB0000949C1F8980105F0D6FF002005490860CE
:102EC00005F0D1FF00200449C1F8980105F0CBFFBF
:102ED00010BD0000948121420080214210B500F015
:102EE000E7FD00200549086001200549C1F8980167
:102EF00005F0B9FF01200149086010BD948121420D
:102F00000080214210B5002400F0D2FD00201149BC
:102F1000086005F0A8FF01200F49C1F8940105F0F1
:102F2000A2FF01200B49086009E0601CC4B2FA2C22
:102F300003DDFFF7D3FF002010BD05F094FF054827
:102F4000843800680028F0D10249086005F08BFF42
:102F50000120F1E7988121420080214270B50446AA
:102F600000F0A6FD002520E004F0800018B101204B
:102F70000F49086002E000200D49086005F073FF6A
:102F800001200B49091D086005F06DFF002009496B
:102F9000C1F89801072D02D101200549086060069B
:102FA000040E05F060FF681CC5B2082DDCDB70BDA7
:102FB00094812142008021421CB50121084600F085
:102FC000C1FC0A210120FFF7EDF900F013F8FFF72B
:102FD000D5F94FF48060009000208DF804000C209B
:102FE0008DF8050001208DF806006846FFF77CF992
:102FF0001CBD000008B50121082000F0A3FC4FF41F
:10300000C840ADF8000048208DF80300694602482A
:10301000FFF7E8F908BD0000000C014008B50121E8
:10302000082000F08FFC40F60400ADF800001020EE
:103030008DF8030003208DF8020069460448FFF76D
:10304000D1F90120034908600349C1F8AC0108BD6A
:10305000000C0140888121420080214208B50121F5
:10306000082000F06FFC4FF40070ADF8000048201D
:103070008DF8030003208DF8020069460148FFF730
:10308000B1F908BD000C014010B5FFF7A7FEFFF72E
:10309000E5FF00F098F8142000F0B2FEC0210220F5
:1030A00000F098F80021032000F094F8002104209B
:1030B00000F090F80021052000F08CF80021062097
:1030C00000F088F80F21082000F084F8032109207F
:1030D00000F080F827210A2000F07CF800F040FA88
:1030E00010BD3EB504460D4600200090694600F034
:1030F00060F803E06946002000F05BF89DF80000EE
:1031000000F040004028F5D101AB06220721AE2097
:1031100000F019F89DF804008007800B9DF8051059
:1031200040EA01209DF80610084328609DF807003A
:103130008007800B9DF8081040EA01209DF80910D7
:10314000084320603EBD2DE9F04106460F46144677
:103150001D46FFF7A9FE3046FFF700FFFFF7D2FE3E
:10316000012804D0FFF7BAFE0120BDE8F0813846FF
:10317000FFF7F4FEFFF7C6FEFFF796FE46F00100EC
:10318000FFF7ECFEFFF7BEFE0DE0012C04D100209E
:10319000FFF760FE287003E00120FFF75BFE287058
:1031A000601EC4B26D1C002CEFD1FFF797FE00200B
:1031B000DBE770B504460D462B4601222146AE20C2
:1031C000FFF7C1FF70BD10B54021092000F002F8E3
:1031D00010BD000070B505460C46FFF765FEAE2039
:1031E000FFF7BCFEFFF78EFE20B90DA001F00EFA2E
:1031F000012070BD2846FFF7B1FEFFF783FE0128CE
:1032000001D00120F5E72046FFF7A8FEFFF77AFE80
:10321000012801D00120ECE7FFF760FE0020E8E77D
:103220006464640070B505460C465526FFF73CFE05
:10323000D020FFF793FEFFF765FE012801D00120A3
:1032400070BD2846FFF78AFEFFF75CFE012801D01B
:103250000120F5E7FFF728FED120FFF77FFEFFF7FB
:1032600051FE012801D00120EAE72046FFF7F2FDD8
:103270000646FFF733FE3046E2E72DE9F041064609
:103280000F4614461D46FFF70FFE002141EA460196
:10329000C8B2FFF763FEFFF735FE012804D0FFF741
:1032A0001DFE0120BDE8F0813846FFF757FEFFF70D
:1032B00029FEFFF7F9FD012101EB4601C8B2FFF736
:1032C0004DFEFFF71FFE0DE0012C04D10020FFF79B
:1032D000C1FD287003E00120FFF7BCFD2870601ECF
:1032E000C4B26D1C002CEFD1FFF7F8FD0020D9E728
:1032F00070B504460025BC2C01DB012510E0622CD2
:1033000001DB02250CE02A2C01DB032508E0142C4C
:1033100001DB042504E00A2C01DB052500E006257D
:1033200029461A2000F01EF870BD70B50446B4F5A9
:103330007A7F01DD4FF47A74042C00DA04244FF410
:103340007A7090FBF4F0401EC5B22946192000F0B7
:1033500009F80546264604EBD671C1F34F00FFF786
:10336000C7FF70BD70B505460C46FFF79DFDD02028
:10337000FFF7F4FDFFF7C6FD08B9012070BD284630
:10338000FFF7ECFDFFF7BEFD012801D00120F5E7B6
:103390002046FFF7E3FDFFF7B5FD012801D001202E
:1033A000ECE7FFF79BFD0020E8E72DE9F04105463B
:1033B0000E4617469846FFF777FD002141EA450182
:1033C000C8B2FFF7CBFDFFF79DFD012804D0FFF742
:1033D00085FD0120BDE8F0813046FFF7BFFDFFF716
:1033E00091FD00240DE018F80400FFF7B7FDFFF78A
:1033F00089FD012803D0FFF771FD0120EAE7601C79
:10340000C4B2BC42EFDBFFF769FD0020E2E770B514
:103410000025002600BF06E0002600E0761CB6F579
:103420007A7FFBDB6D1CB5F57A7FF5DBFFF7D6FC09
:1034300080216B20FFF796FF642000F0E1FC002163
:103440006B20FFF78FFF18211B20FFF78BFF002158
:103450001C20FFF787FFC820FFF767FF00213820F7
:10346000FFF780FF00216A20FFF77CFF0021232067
:10347000FFF778FF80213720FFF774FF00217520C8
:10348000FFF7D0FE0446682C0CD101216B20FFF71A
:1034900069FF00216C20FFF765FF01211920FFF76C
:1034A00061FF01E0012070BD0020FCE700BFFEE7E6
:1034B0007047000070B5002100230F22C47804B3C8
:1034C000154C246804F4E064C4F5E064210AC1F1F9
:1034D0000403CA40447804FA03F184781440214379
:1034E00009010E4C0678A155047804F01F0501244B
:1034F000AC4005786D11AD0005F1E025C5F800413F
:1035000009E0047804F01F050124AC40044D06785E
:10351000761145F8264070BD0CED00E000E400E0B7
:1035200080E100E002490143024A11607047000057
:103530000000FA050CED00E010B5002807DA0A07D4
:10354000140E054A00F00F031B1FD45403E00A07B2
:10355000130E024A135410BD18ED00E000E400E021
:1035600010B500210C20FFF735FE00210D20FFF7DC
:1035700031FE00211020FFF72DFE00214FF080408A
:1035800000F0C1FC10BD2DE9F84F04460D4616466B
:103590001F46002000907F2C00DD7F243F2D00DDA2
:1035A0003F257F2E00DD7F263F2F00DD3F27301B8C
:1035B00000F0FF08781B00F0FF09C1450BDD01207A
:1035C00000904046C846814620462C460546304677
:1035D0003E46074600BFB44206DD20463446064656
:1035E00028463D46074600BF4FEA680ABD4202DA58
:1035F0004FF0010B01E04FF0FF0B17E0009828B9E6
:1036000001222946204600F01FF804E0012221464D
:10361000284600F019F8AAEB090ABAF1000F03DAFC
:1036200005EB0B00C5B2C244601CC4B2B442E5DD78
:10363000BDE8F88F10B54FF480610248FDF75DFAE0
:10364000012010BD57030020F0B503461446E4B135
:10365000CD1701EB5575ED1003EBC515194E755DD2
:103660000A46CE1701EB5676F610A1EBC6070126E7
:10367000BE40F6B235430846CE1701EB5676F6103B
:1036800003EBC6160F4FBD551AE0CD1701EB55756C
:10369000ED1003EBC5150B4E755D0A46CE1701EB19
:1036A0005676F610A1EBC6070126BE40B543084684
:1036B000CE1701EB5676F61003EBC616014FBD553B
:1036C000F0BD00005703002010B530210C20FFF79B
:1036D00081FD30210D20FFF77DFD7F211020FFF7B8
:1036E00079FD0121880700F00EFC10BD00B58BB0FC
:1036F0000121084600F006F90F4800900F4801909C
:1037000010200290800103900020049080200590FA
:1037100000200690202008904FF44050099000208F
:103720000A9069460648FEF737FA00210448FEF77A
:1037300027FA0BB000BD00000C30014057030020F9
:103740003000024008B50121042000F0FBF8A02061
:10375000ADF8000018208DF8030003208DF802005A
:1037600069460A48FEF73EFE0E20ADF80000102024
:103770008DF8030003208DF8020069460348FEF728
:1037800031FE01200249086008BD00000008014028
:103790008401214200B585B0FFF7D4FF0121080361
:1037A00000F0D0F80020ADF800004FF48270ADF8C2
:1037B00002000020ADF80400ADF80600ADF80800E6
:1037C0004FF40070ADF80A000020ADF80C00ADF821
:1037D0000E000720ADF810006946104800F09AF975
:1037E00001210E4800F076F9FFF780FF0122022147
:1037F0000A4800F07BF9012009490860642000F0C4
:10380000FFFA00200749C1F88801642000F0F8FAA7
:1038100001200349086005B000BD000000300140F0
:10382000880121420000214210B5044600200C49C5
:1038300008600C49C1F8840121460B4800F068F982
:1038400000BF0221084800F05AF90028F9D00120F1
:103850000349083908600349C1F88C0110BD000014
:103860008C012142000021420030014010B5044685
:1038700001200C49086000200B49C1F88401214651
:103880000A4800F045F900BF0221084800F037F966
:103890000028F9D001200349083908600249C1F81D
:1038A0008C0110BD8C0121420000214200300140FA
:1038B0007047000008B50121082000F043F84FF4DC
:1038C0008050ADF8000010208DF8030002208DF824
:1038D000020069460448FEF785FD4FF48051024816
:1038E000FEF716FE08BD0000000C01400146002056
:1038F000034A506820F4404008435060704700007D
:103900000010024029B1064A52690243044B5A6131
:1039100004E0034A52698243014B5A617047000038
:103920000010024029B1064AD2690243044BDA6111
:1039300004E0034AD2698243014BDA617047000018
:103940000010024029B1064A92690243044B9A6171
:1039500004E0034A92698243014B9A617047000078
:103960000010024030B500210022002400232D4D1C
:103970006D6805F00C0121B1042905D0082923D177
:1039800005E0294D056022E0274D05601FE0254D2B
:103990006D6805F47012234D6D6805F480340225BE
:1039A00005EB92421CB9214D554305600BE01D4DBE
:1039B0006D6805F400351DB11C4D5543056002E0EE
:1039C000194D5543056002E0174D056000BF00BF6B
:1039D000144D6D6805F0F0010909154D6B5C056823
:1039E000DD4045600F4D6D6805F4E061090A104D3A
:1039F0006B5C4568DD4085600A4D6D6805F460517B
:103A0000C90A0B4D6B5C4568DD40C560054D6D68AE
:103A100005F44041890B074D6B5CC568B5FBF3F5B8
:103A2000056130BD0010024000127A0000093D001F
:103A3000000000201000002008B501210820FFF739
:103A400081FF4FF40070ADF8000048208DF80300AE
:103A500069460248FEF7C6FC08BD0000000C0140A4
:103A600008B52020ADF8000048208DF803000320A1
:103A70008DF8020069460248FEF7B4FC08BD00005C
:103A8000000C014008B501210820FFF75BFF4FF44F
:103A90000070ADF8000014208DF8030003208DF8AD
:103AA000020069460148FEF79DFC08BD000C01407C
:103AB00008B52020ADF8000014208DF80300032085
:103AC0008DF8020069460248FEF78CFC08BD000034
:103AD000000C014021B1028842F04002028004E063
:103AE00002884FF6BF731A40028070471AB183886C
:103AF0000B43838002E083888B43838070470246B8
:103B0000002013890B400BB1012000E0002070471A
:103B10008181704710B50022028802F441520B885F
:103B20004C8823438C882343CC8823430C8923432C
:103B30004C8923438C892343CC8923431A43028035
:103B4000838B4FF2FF74234083830B8A038210BD63
:103B5000704710B500F002F810BD00000CB5002051
:103B6000019000903348006840F48030314908608B
:103B700000BF3048006800F4003000900198401CFD
:103B80000190009818B90198B0F5A06FF1D12948BB
:103B9000006800F4003010B10120009001E0002026
:103BA00000900098012843D12348006840F010009D
:103BB000214908600846006820F0030008600846B4
:103BC000006840F0020008601A48406819494860DF
:103BD0000846406848600846406840F48060486095
:103BE0000846406820F47C1048600846406840F46D
:103BF000E81048600846006840F08070086000BF28
:103C00000C48006800F000700028F9D009484068AE
:103C100020F00300074948600846406840F0020071
:103C2000486000BF0348406800F00C000828F9D144
:103C30000CBD00000010024000200240034B188021
:103C40001B1F1980014B10331A8070472C04004051
:103C500010B50B484068012811D106F04DF808490D
:103C60000968401AB0F57A7F09D900200549086033
:103C700000F01CFA4FF480510348FEF747FC10BDDA
:103C80005807002088812142000C014008B501211D
:103C90000C20FFF757FE4FF4C050ADF80000102085
:103CA0008DF8030003208DF8020069460F48FEF7E7
:103CB00099FB4FF40040ADF8000010208DF8030090
:103CC00003208DF8020069460948FEF78BFB4FF48C
:103CD0008070ADF8000004208DF8030069460348A9
:103CE000FEF780FB01200349086008BD0008014081
:103CF000000C0140B00121420020002111E000220F
:103D0000094B1A604206100E084AD2F8202112B15F
:103D1000421CD0B200E0C0B20122034B1A604A1C20
:103D2000D1B20829EBDB7047AC01214200002142EF
:103D3000002113E000220B4B1A6000F080021AB140
:103D40000122094B1A6002E00022074B1A6001228F
:103D5000044B1A604206100E4A1CD1B20829E9DB56
:103D600070470000AC012142BC8121423EB505F004
:103D7000C3FF85B221E0002415E000204022CDE9F8
:103D800000200290104850F82420402300212620D3
:103D900004F06CF907F028F9FFF74CFC322000F032
:103DA0002FF8601C84B20A2CE7DB05F0A5FF401B4E
:103DB00006490988884200D900E0DCE700BFFFF728
:103DC00039FC07F011F93EBDB802002016000020B2
:103DD00010B509480088401C07490880084600883B
:103DE000B0F57A7F04DD00200880012003490870C7
:103DF00000F042F810BD00007E00002063010020AA
:103E0000044A116800BF0A18024B1B689A42FAD88C
:103E1000704700001800002010B51348006840F0FB
:103E200001001149086008464068104908400E49E1
:103E30004860084600680E4908400B49086008467B
:103E4000006820F4802008600846406820F4FE00E6
:103E500048604FF41F008860FFF77BFE4FF0006062
:103E60000449086010BD0000001002400000FFF887
:103E7000FFFFF6FE08ED00E002480068401C014923
:103E8000086070471800002010B50E4CB4F1807F18
:103E900000D311E024F07F40401E4FF0E021486144
:103EA0000F214FF0FF30FFF747FB00204FF0E021DC
:103EB00088610720086100BF0121881EFFF73CFBD5
:103EC00010BD00004019010010B50121880700F065
:103ED00026F830B10120034908700121800700F065
:103EE0000FF810BD1400002021B1028842F08002BA
:103EF000028004E002884FF67F731A400280704708
:103F0000CA430282704721B1028842F00102028056
:103F100004E002884FF6FE731A400280704730B505
:103F20000246002000230024158A05EA0103958932
:103F300005EA010413B10CB1012000E0002030BDFE
:103F40001AB183890B43838102E083898B43838188
:103F50007047000070B5002400220023058C4FF646
:103F6000FF6635400584028C8388848B4FF68F75FD
:103F70002C404FF6FC752C400D882C434FF6FF5516
:103F80002A400D894FF6FF7606EA05252A434D881B
:103F900006EA05252A43154DA84202D0144DA84231
:103FA0001DD14FF2FF752A404D894FF6FF7606EA84
:103FB00005252A434FF6FF352A408D8806EA052558
:103FC0002A434EF6FF752B404DF6FF752B408D8929
:103FD00006EA05152B43CD8906EA05152B43838098
:103FE0008483CD888587028470BD0000002C014049
:103FF000003401400A460021818B4FF6F7731940C7
:104000001143818370470000002202881D4B9842B3
:104010000ED01D4B98420BD0B0F1804F08D01B4BF7
:10402000984205D01A4B984202D01A4B984204D1BC
:104030004FF68F731A404B881A43174B984207D09C
:10404000164B984204D04FF6FF431A40CB881A43D0
:1040500002808B8883850B8803850A4B98420BD09E
:10406000094B984208D00E4B984205D00D4B984210
:1040700002D00D4B984201D10B7A03860123838233
:1040800070470000002C0140003401400004004053
:1040900000080040000C00400010004000140040E8
:1040A00000400140004401400048014010B50C4868
:1040B0000C4908600C4848600C4888600C48C8608F
:1040C0000C4808610C4848610C4888610C48C8617C
:1040D0000C4808620C484862FFF748FE10BD00001B
:1040E000F1F20008B8020020F1F40008F1E800083D
:1040F000F1F60008F1EA0008F1FA0008F1EC000816
:10410000F1F80008F1EE0008F1F000083EB50546B0
:104110000C4601210846FFF705FCADF80450ADF848
:1041200000400020ADF80600ADF802008DF8080050
:1041300069464FF08040FFF767FF01221146900764
:10414000FFF7FEFE00F006F800214FF08040FFF779
:10415000DAFE3EBD08B54FF4C060FFF7E3F91C205E
:104160008DF8000001208DF8010000208DF802007C
:1041700001208DF803006846FFF79CF908BD000098
:104180003EB505460C4601210220FFF7CBFBADF8FA
:104190000450ADF800400020ADF80600ADF8020074
:1041A00069460248FFF730FF3EBD000000040040B2
:1041B00008B501210820FFF7C5FB0120ADF800007C
:1041C00018208DF8030003208DF80200694602488C
:1041D000FEF708F908BD0000000C01402DE9FF4181
:1041E00006460F4614461D46FFF7E2FF39463046A5
:1041F000FFF7C6FF7020ADF800000020ADF8080002
:104200000120ADF80200ADF8064069460848FFF706
:10421000A1FE01210648FFF767FE08210448FFF7C9
:10422000E9FE29460248FFF76EFEBDE8FF81000067
:104230000004004010B540F22551134800F050F83A
:1042400000B3124890F86500642812DA0E4800F0B6
:1042500003F90E4908700846017890F86520401C63
:104260008154401E90F86500401C084981F86500A3
:1042700003E00020054981F8650040F2255102481D
:1042800000F006F810BD000000380140E0020020F8
:1042900010B50022002340F66A14A14200D100BFED
:1042A0000A1201249440A3B2DC43048010BD21B162
:1042B000828942F40052828104E082894DF6FF73C4
:1042C0001A408281704702460020B1F5007F00D17C
:1042D00000BF13880B400BB1012000E000207047A5
:1042E00070B50246002400230025002040F66A161F
:1042F000B14200D100BFC1F3421501F01F030126F6
:1043000006FA03F3012D02D19689334006E0022D0F
:1043100002D1168A334001E0968A33400C120126FE
:1043200006FA04F41688344013B10CB1012000E001
:10433000002070BDF0B503460024002600250020B3
:1043400040F66A17B94200D100BF1846C1F34214C3
:1043500001F01F06012707FA06F5012C01D10C30E8
:1043600004E0022C01D1103000E014301AB10768CB
:104370002F43076002E00768AF430760F0BD00000D
:104380002DE9F04786B005460E460024A24600BF40
:10439000A1460027B08900B100BF2F462C8A4CF6F9
:1043A000FF700440F08804432C82AC894EF6F31071
:1043B0000440B08831890843718908430443AC81C3
:1043C000AC8A4FF6FF400440B0890443AC8201A898
:1043D000FFF7C8FA1F48874202D1DDF810A001E0BC
:1043E000DDF80CA0A88900F4004040B10AEBCA0037
:1043F00000EB0A1031684900B0FBF1F807E00AEB66
:10440000CA0000EB0A1031688900B0FBF1F86420A3
:10441000B8FBF0F004012009642101FB1089A88990
:1044200000F4004040B1322000EBC900B0FBF1F0D5
:1044300000F00700044308E0322000EB091064217B
:10444000B0FBF1F000F00F0004432C8106B0BDE892
:10445000F08700000038014001468888C0F308005A
:104460007047C1F308028280704700BFFEE700007A
:104470001FB500F027F801218803FFF763FA4FF416
:10448000E13000900C20ADF80A000020ADF80600E5
:10449000ADF80800ADF80400ADF80C006946084816
:1044A000FFF76EFF00F030F8012240F2255104487A
:1044B000FFF740FF01210248FFF7F9FE1FBD000092
:1044C0000038014008B501210420FFF73BFA4FF402
:1044D0000070ADF8000018208DF8030003208DF85F
:1044E000020069460748FDF77DFF4FF48060ADF894
:1044F000000048208DF8030069460248FDF772FF6E
:1045000008BD00000008014008B54FF4C060FFF787
:1045100009F825208DF8000001208DF801008DF8A4
:1045200002008DF803006846FEF7C4FF08BD0000D6
:1045300008B501210420FFF705FA4020ADF800007E
:1045400004208DF8030002208DF80200694602481D
:10455000FDF748FF08BD0000000801407CB5044697
:104560000D46164600200090124908600320019075
:10457000012101A800F03DF8C4F30740009001219B
:10458000684600F036F8C4F3072000900121684621
:1045900000F02FF8E0B200900121684600F029F801
:1045A0003146284600F017F801200349C1F8B00150
:1045B0007CBD0000B00121420000214230B505461B
:1045C000FFF79AFB0446204630BD10B5044620464E
:1045D000FFF7AEFB10BD30B504460D4606E0FF20E8
:1045E000FFF7ECFF2070681E85B2641C002DF6D129
:1045F00030BD30B504460D4605E02078FFF7E5FFF5
:10460000641C681E85B2002DF7D130BD0FB4054B78
:1046100010B503A9044A029800F068FB10BC5DF8CD
:1046200014FB00004D850008A80200200FB4084BC1
:1046300010B504A902AA039800F058FB044602A989
:10464000002000F084FD204610BC5DF814FB000043
:104650004F510008490050EAC12018BF04204A0DFC
:1046600018BF40F0010040F2FF72B2EB515F08BF8B
:1046700040F00200012808BF052070472DE9F74FE0
:10468000144694B00021C4E902111599079121F054
:104690000045C9498D4206DC1599C4E9000117B0EF
:1046A0000020BDE8F08FC549DFF814A3A9423CDD26
:1046B0000799C44E0029C44FC44A1599534619DDC1
:1046C000FCF7BAFB554506D0C14AC24BFCF7B4FB18
:1046D000C4E900010AE04FF0D352BE4BFCF7ACFB3B
:1046E00032463B46FCF7A8FBC4E9000117B00120A5
:1046F000BDE8F08FFCF7FFFA554506D0B44AB54B3C
:10470000FCF7F9FAC4E900010AE04FF0D352B14BCB
:10471000FCF7F1FA32463B46FCF7EDFAC4E900013A
:1047200017B04FF0FF30BDE8F08FAB49A9421599A3
:1047300078DB21F0004183468846A84AA84BFCF765
:1047400081FB0022A74BFCF7D6FAFCF7B5FC0990D9
:10475000FCF767FC06460F469C4A5346FCF772FB83
:1047600043465A46FCF76BFB80468A46984A994B6B
:1047700030463946FCF766FB2A0D01250B9242466E
:104780005346FCF75CFB032DC4E9000139D00B98BC
:10479000C1F30A51401A05EB45111139814230DA53
:1047A0009148C346784400EB0510CDF80CA00C905E
:1047B000D0E9002330463946FCF744FB02460B465D
:1047C0000491069058460399FCF736FB80468A46CA
:1047D00002460B4658460399FCF72EFB049B069AAB
:1047E000FCF72AFB83460C9803913946D0E9022353
:1047F0003046FCF727FB5A46039BFCF71DFB6D1C5C
:10480000BDE707980028A2BF099817B0BDE8F08F50
:10481000616881F000416160099817B04042BDE8CD
:10482000F08FFFE784461598C1F31301C0F30A50D7
:10483000A0F2F5304FEA601800F01F06C6F1200024
:10484000139000200690079041F4801E05206D46CD
:1048500076B1664A08EB00017A4452F8213002EB47
:104860008101B3404A68139922FA01F1194305E026
:104870005F4908EB0002794451F82210A1FB0E2792
:10488000A1FB0C131A449A4234BF0123002303EB0B
:10489000070A05EB8003D3E901B70F448F4234BF09
:1048A0000121002193448B4411B1934502D903E0C7
:1048B000934501D2012100E00021C3E901B7514431
:1048C00045F82010011EA0F10100C1DC0298059FEF
:1048D00000F10050800F12900298DDE9035680002D
:1048E000FCF79FFB834628460D91FCF7ABFB6FF06E
:1048F0001D02FCF76BFDCDE90E013046FCF7A2FB73
:104900006FF03D02FCF762FD80468A463846FCF7B0
:1049100099FB6FF05D02FCF759FD0746424653468E
:104920001191FCF7E8F9DDE90E23FCF7E4F95A46AA
:104930000D9BFCF7E0F900250E465A4628460D9BD4
:10494000FCF77AFADDE90E23FCF776FA4246534685
:10495000FCF772FA3A46119BFCF771FADFF898A05F
:10496000244A5346FCF76EFA07468846234A244BEE
:1049700031462846FCF766FA3A464346FCF7BBF94F
:10498000074688464FF0A842534631462846FCF772
:1049900059FA3A464346FCF7AEF9159A12F0004F21
:1049A00004D0129A81F0004152421292C4E90001EF
:1049B000129817B0BDE8F08FFB21E93F7CD9024087
:1049C000FB21F93F7370032E8A19A33B000040546A
:1049D0003163621A61B4D03DFB21394183C8C96D8E
:1049E000305FE43F0000E03F20B700009CB60000CD
:1049F0007EB60000182D4454FB21F93D3326A61144
:104A0000460B113C2DE9FF4D21F0004807460C46AE
:104A1000B8F1795F08DAFCF74FFB002801BF0020EE
:104A2000324904B0BDE8F08D3A4623461046194697
:104A3000FCF708FA054602462D480E460B460621AD
:104A4000784400F05DF82A463346FCF7FBF9DDE9CF
:104A5000022382468B4638462146FCF7F3F904468A
:104A60000F4652465B4628463146FCF7EBF9224694
:104A70003B46FCF7E1F907468A464FF0FF322846ED
:104A80003146FCF7A3FC1B4A90450ADA3A465346E6
:104A9000FCF7D2F904B00022BDE8F04D134BFCF74F
:104AA000CEB9154A4245A8BFA8F500154FF000043D
:104AB000B8BF124D22462B46FCF7BEF90646884683
:104AC00022462B4600200949FCF7B6F904460D465C
:104AD0003A46534630464146FCF7AEF904B022460A
:104AE0002B46BDE8F04DFCF7AAB900000000F03FEE
:104AF0004CB400003333D33F0000E93F0000D23F05
:104B00002DE9F0414F1E00EBC7010446D1E9000139
:104B100015461E4637F006020DD02A463346FCF7EE
:104B200091F97F1E04EBC703D3E90023FCF7E3F8F8
:104B300037F00602F1D1022F25D0042F13D0062F13
:104B400018BFBDE8F0812A463346FCF77BF9D4E96B
:104B50000A23FCF7D0F82A463346FCF773F9D4E968
:104B60000823FCF7C8F82A463346FCF76BF9D4E96A
:104B70000623FCF7C0F82A463346FCF763F9D4E96C
:104B80000423FCF7B8F82A463346FCF75BF9D4E96E
:104B90000223FCF7B0F82A463346FCF753F9D4E970
:104BA0000023BDE8F041FCF7A6B800002DE9FF4D59
:104BB000054621F0004084B00C46B0F1795F0BDA75
:104BC0002846FFF747FD042808BF00F071F8284683
:104BD00008B02146BDE8F08D2A460B461046FCF78A
:104BE00031F906460F462A462346FCF72BF9804644
:104BF00026488A4632463B4605217844FFF780FF27
:104C000083461098029160B3214A224B4046514698
:104C1000FCF718F9CDE900015A4640465146029B7F
:104C2000FCF710F982468846DDE906014FF0FF32B5
:104C3000FCF7CCFB52464346FCF7FEF832463B46B7
:104C4000FCF700F9DDE90623FCF7F6F8DDE90023BF
:104C5000FCF7F2F808B02A462346BDE8F04DFCF711
:104C6000EEB80B465A4630463946FCF7EBF8084A90
:104C7000084BFCF740F842465346FCF7E3F808B00F
:104C80002A462346BDE8F04DFCF735B892B3000044
:104C9000495555555555C5BF0122FCF797BBFCF743
:104CA0002AB80022134610461146FCF73DB9000011
:104CB000024A00201107FCF789BB000001FDFFFF3D
:104CC00002E008C8121F08C1002AFAD170477047D5
:104CD000002001E001C1121F002AFBD17047000033
:104CE0000149086070470000B40200202DE9FF4F21
:104CF0008DB00F460546002606E025280BD0DDE9DD
:104D00000F1290476D1C761C28780028F5D111B041
:104D10003046BDE8F08F0024A246A1460122EC49AE
:104D200000E0044315F8013F203B02FA03F008427B
:104D3000F7D128782A2810D06FF02F022878A0F118
:104D40003001092914D80AEB8A0102EB410144F031
:104D5000020400EB010A6D1CF0E701CF5FEA000AD4
:104D600003D544F40054CAF1000A44F002046D1C57
:104D700028782E2817D115F8010F44F004042A28AA
:104D80000ED06FF02F022878A0F1300109290AD83F
:104D900009EB890102EB410100EB01096D1CF2E70F
:104DA00057F8049B6D1C28786C280FD006DC4C2823
:104DB00017D068280DD06A2814D104E0742810D0C8
:104DC0007A280FD10DE044F400140AE044F4801472
:104DD00001E044F440146978814202D104F5801462
:104DE0006D1C6D1C2A786E2A1FD00CDC632A31D012
:104DF00004DC002A8BD0582A11D1A3E0642A68D0A1
:104E0000692A0CD165E0732A2ED004DC6F2A73D096
:104E1000702A04D19BE0752A6FD0782A6ED0104694
:104E2000DDE90F129047761C50E1C4F302500228CE
:104E300006D0032809D0042801CF09D0066045E137
:104E400001CFF117C0E9006140E101CF06803DE1EB
:104E500006703BE117F8040B8DF8000000208DF878
:104E60000100EB46012003E057F804BB4FF0FF3090
:104E700061074FF0000102D40DE008F101018846FE
:104E800049450FDA8045F8DB1BF808100029F4D1FA
:104E900008E008F1010188468142FADB1BF808109E
:104EA0000029F6D1DDE90F23AAEB0800814621464F
:104EB00000F036F9304400EB080604E0DDE90F129B
:104EC0001BF8010B9047B8F10108F7D2214648467C
:104ED000F7E00A21C4F302534FF0000B0891022BB4
:104EE00004D001CFC117032B09D00AE0FF1D27F022
:104EF0000707F7E8020108E032E01FE020E000B217
:104F0000C117042B01D140B2C117031E71F1000378
:104F100007DA4FF0000CD0EB0C006CEB01012D23F5
:104F200002E0230504D52B238DF82430012303E070
:104F3000E30701D02023F7E7984658E00A2110E064
:104F400010210EE010204FF0000B08900CE0102113
:104F50004FF0000B44F004044FF00809089103E0FF
:104F600008214FF0000B0891C4F30253022B04D028
:104F700001CF0021032B06D006E0FF1D27F0070715
:104F8000F7E8020103E080B2042B00D1C0B24FF079
:104F9000000823072BD5702A07D0DDF820C08CF03D
:104FA000100C5CEA0B0C05D00EE040238DF8243089
:104FB000012308E050EA010306D030238DF82430A5
:104FC0008DF8252002239846DDF820C08CF0080CCF
:104FD0005CEA0B0C0BD150EA010301D1630706D543
:104FE00030238DF824304FF00108A9F10109582A27
:104FF00004D038A20B9208AA0A920BE03AA2F9E771
:105000005B46089AFCF7ECF80B9B9B5C0A9A521ED5
:105010000A92137050EA0102F2D10A98ADEB000037
:1050200000F1200B600702D524F4803401E04FF03A
:105030000109D94502DDA9EB0B0000E0002000EBDF
:105040000B0141440890AAEB010AE00306D4DDE914
:105050000F232146504600F063F806444FF0000944
:1050600008E009A911F80900DDE90F12904709F1DC
:105070000109761CC145F4DBE0030CD5DDE90F2303
:105080002146504600F04CF8064404E0DDE90F12DA
:1050900030209047761C0899481E08900029F5DCBE
:1050A00008E00A980A990078491C0A91DDE90F1274
:1050B0009047761CBBF10001ABF1010BF1DC2146FE
:1050C0005046DDE90F2300F019F806446D1C1BE67D
:1050D00009280100303132333435363738396162CE
:1050E0006364656600000000303132333435363792
:1050F0003839414243444546000000002DE9F04163
:10510000044600251E461746880404D405E03946A7
:105110002020B0476D1C641EF9D52846BDE8F081FB
:105120002DE9F041044600251E469046C80301D5EE
:10513000302700E02027880404D505E041463846A2
:10514000B0476D1C641EF9D52846BDE8F0810A6899
:10515000531C0B60107070472DE9FE4F06460F463A
:105160000025684603F05EFB002442E056F8240068
:1051700057F82410A0EB010ABAF1000F01DB5146E9
:1051800001E0CAF100010846FBF73DFF83464FF0FE
:105190008F41FBF772FD80465DF824000021FCF78B
:1051A0000BF816D05DF824104046FBF766FD8246EA
:1051B0004FF07E51FBF729FD814629F0004A0F4848
:1051C000416A5046FCF702F812D20120A040054384
:1051D0000EE00A48C1694046FBF7EEFF05D30748D9
:1051E000016A4046FBF7F2FF02D20120A0400543CE
:1051F000641C032CBADB2846BDE8FE8FB4C7000848
:1052000010B505498978491EC8B2044B044A0549BE
:1052100006F050FB10BD0000E40700203D5B0008D5
:1052200044D8000824D400087047000000B50246A6
:1052300006480078FF2801D1002000BD1146034830
:105240000078FFF7F1FF0120F7E700001C010020C4
:1052500070B504460D4603F075FA70BD10B503F045
:1052600071FA10BD10B50D494978491E0B4A5170AD
:1052700011460978022908D109498979012904D1FF
:105280001146497809B90C21517003F021FA0349FC
:105290004978814201DD0149487010BD4401002078
:1052A00032010020F8B5052600208DF801003248B3
:1052B00000780C2839D2DFE800F0380610131620E9
:1052C00021222324252607242B48407808B180205A
:1052D00000E02E208DF8000029E015240B2626E0A2
:1052E0002A240B2623E038242348407808B1502094
:1052F00000E041208DF8000019E000BF00BF00BFB2
:1053000000BF00BF00BF1C490978491FC8B2C0EBED
:10531000C0014631CCB21849497811B11749095C2E
:1053200000E02D218DF8001001E00020F8BD00BF45
:1053300013480078C10012484078A1EBC000083043
:10534000C5B232462946204602F064FF0A4800787A
:10535000022803D008480078032805D1064842787F
:1053600008A16846FFF762F92B46224601216846EC
:1053700002F072FF0020D9E74401002029D4000880
:10538000E4070020253032686875000010B50E482B
:105390004078401C0C49487003F09AF90A49497852
:1053A000884202DA0020084948700748007802283D
:1053B00009D106488079012805D10348407810B901
:1053C00001200149487010BD440100203201002035
:1053D00002460B46197812B97AB940290DDA22B182
:1053E000382902DD481EC1B204E01AB9402901DAA9
:1053F000481CC1B21970012070470020FCE7000072
:105400000148007870470000D80700200348007A60
:1054100008B9012070470020FCE70000D8070020F1
:105420000148407870470000D807002070B5044656
:105430000D460948C07860B10120084908700DB1D7
:10544000002000E0C020054948700846446005720D
:1054500001E004B1A04770BD32010020D807002050
:1054600010B524480078002842D022484478007AB9
:10547000C0B1042C02DA601CC4B20CE0082C02DAC1
:10548000E01CC4B207E0102C02DA601DC4B202E0D6
:1054900004F10800C4B2402C1CDB00201549087040
:1054A000002417E0FB2C02DD601CC4B20CE0F72CDA
:1054B00002DDE01CC4B207E0EF2C02DD601DC4B2C7
:1054C00002E004F10800C4B20A2C03DA0020094902
:1054D0000870002407484470007840B905484068C7
:1054E00028B104494868804700200249486000BF4D
:1054F00010BD0000D807002000B500F001F800BD85
:1055000000B5012007490880002088700120C8707C
:105510000020087148718871FF20C87100F004F8FC
:1055200000BD000032010020704700002DE9F04D61
:105530008D4F21F0004A86B005460C46BA452ADB5D
:10554000AAEB070028430AD08848824501DC1AD11B
:10555000CDB106B02846BDE8F04DFFF79DBB844AAB
:10556000844B2846FBF76EFC07460E46824A834B67
:1055700028462146FBF766FC06B03A463346BDE8AE
:10558000F04DFBF7B8BB0120FFF7AAFB06B0BDE862
:10559000F04DFFF786BB7A48824542DABAF1795F6F
:1055A0000BDA2846FFF756F8042808BFFFF780FB00
:1055B000284606B02146BDE8F08D2A460B46104627
:1055C000FBF740FC834602466E480E460B4606211A
:1055D0007844FFF795FA5A463346FBF733FC80468A
:1055E00069488A465A46334604217844FFF788FAC8
:1055F0005A463346FBF726FC00223B46FBF77BFB73
:1056000002460B4640465146FBF78EFC2A4623468F
:10561000FBF718FC06B02A462346BDE8F04DFBF721
:105620006ABB284624F0004100223D463B46FBF77A
:1056300006FC4FF0FF32FBF7C9FE06460246534810
:105640000F460B4606217844FFF75AFA32463B468E
:10565000FBF7F8FBCDE900014D4832463B460421FB
:105660007844FFF74DFA32463B46FBF7EBFB00224E
:105670002B46FBF740FB834602913046394606F045
:1056800035FB804643480D46504517DCDDE90001F7
:105690005A46029BFBF748FC42462B46FBF7D2FBDF
:1056A00042462B46FBF727FB0122FBF78FFE304AD1
:1056B000304BFBF7C1FB304A304B4CE04FF0000A57
:1056C00052460B464046FBF716FBCDE90310524607
:1056D0002B4610461946FBF7B5FB32463B46FBF717
:1056E000AEFBDDE90332FBF71FFC06460F46DDE9A2
:1056F00000015A46029BFBF717FC834600910122EA
:1057000030463946FBF762FE194A1A4BFBF797FB06
:1057100006460F46012240462946FBF757FE5A46E9
:10572000009BFBF78FFB32463B46FBF785FB0646AB
:105730000F46012250462946FBF748FE0E4DDFF882
:1057400058802A464346FBF77AFB32463B46FBF736
:1057500076FB2A464346FBF772FB002CD8BF81F04C
:10576000004106B0BDE8F08D0000F03F0000F07F82
:10577000075C143326A6913C182D4454FB21F93FB5
:105780000000E03FD4A70000EAA700005EA70000E9
:1057900074A700003333EF3FFB21E93F2DE9F84FB9
:1057A00004460D4621F0004000917349814211DC0E
:1057B0007249884201DC06D12CB120462946BDE859
:1057C000F84FFFF769BA6E48002DCCBF6D496E499E
:1057D000BDE8F88F6D49814211DD6D498142D8BF26
:1057E0004FF0FF366DDD20462946FEF733FF0428D3
:1057F00008BFFFF75DFA20462946BDE8F88F6549E6
:10580000654F25F00045814233DD6449814219DD51
:10581000002632464FF0804320462946FBF76BFABC
:1058200080468A46012220462946FBF7CFFD00220A
:105830003B46FBF701FB42465346FBF775FB04462C
:105840000D463EE001260022BA463B462046294648
:10585000FBF751FA80460F46002253462046294660
:10586000FBF7EAFA42463B46FBF75EFB04460D4671
:1058700027E04B4981421BDDDFF828A102260022E8
:10588000534620462946FBF7DDFA00223B46FBF74C
:1058900032FA80460F460022534620462946FBF73F
:1058A000CBFA42463B46FBF73FFB04460D4608E079
:1058B000032622462B4600203B49FBF735FB0446D6
:1058C0000D4622462B4610461946FBF7BBFA8B467F
:1058D000824602460B46FBF7B5FA074602463348B6
:1058E00088460B4606217844FFF70AF952465B4684
:1058F000FBF7A8FA82462E488B463A4643460521D6
:105900007844FFF7FDF83A464346FBF79BFA024618
:105910000B46002E504659460CDAFBF7ECF92246AE
:105920002B46FBF78FFA01B022462B46BDE8F04F1D
:10593000FBF785BAFBF7DFF922462B46FBF782FA25
:105940001C4A7A4402EBC603D3E90023FBF774FA3E
:1059500022462B46FBF770FA174A7A4402EBC6033D
:10596000D3E90023FBF76BFA009A002AB8BF81F055
:105970000041BDE8F88F0000000010440000F07FF7
:10598000182D4454FB21F93FFB21F9BF0000DC3FF7
:105990000000203E0000F33F0000F03F0000E63F23
:1059A000008003400000F83F0000F0BF76A5000033
:1059B00034A50000D2A400009AA400002DE9F04D07
:1059C0009446CCF1000423F000464CEA0404524F04
:1059D00046EAD4749A46884621F00042BC4206D872
:1059E000454240EA050442EAD474BC4204D9BDE809
:1059F000F04D6246FFF753B9AAF14055A5F17F6516
:105A000055EA0C040BD0022404EAAA74434DDFF8D3
:105A100010E144EAD87452EA000B04D00CE0BDE86F
:105A2000F04DFFF7BBBE002C14BF012CBDE8F08D7C
:105A3000022C30D0032C32D056EA0C0B0AD0BE42D6
:105A400020D1BA4209D126F0804622F08042334666
:105A5000114617E000291ADB25E0DFF8C8B0FB4447
:105A6000002C04BFDBE90001BDE8F08D012C02BF72
:105A7000DBE9000181F00041BDE8F08D022C0AD085
:105A8000032C0CD0BA4212D1B8F1000F0BDA234824
:105A90002549BDE8F08D28462449BDE8F08D28460B
:105AA0007146BDE8F08D1D482149BDE8F08D921B7F
:105AB00012153C2AC4BF19481D490EDCBAF1000F6B
:105AC000BEBF12F13C0F0020014606DB6246FBF729
:105AD0002BFA21F00041FFF761FE002C08BFBDE862
