:020000040800F2
:10000000906500209D010008D5220008C91F000846
:10001000D1220008DB020008853E00080000000035
:10002000000000000000000000000000792D000822
:10003000DF020008000000009D2A0008D5340008F7
:10004000B7010008B7010008B7010008B7010008B0
:10005000B7010008B701000801040008B701000853
:10006000B7010008B7010008B7010008B701000890
:10007000B7010008B7010008B7010008B701000880
:10008000B7010008B7010008B7010008B701000870
:10009000B7010008B7010008B7010008B701000860
:1000A000B7010008B7010008B7010008B701000850
:1000B000B7010008B7010008B7010008B701000840
:1000C000B7010008B7010008B7010008B701000830
:1000D000B7010008D13D0008B7010008B7010008CA
:1000E000B7010008B7010008B7010008B701000810
:1000F000B7010008B7010008B7010008B701000800
:10010000B7010008B7010008B7010008B7010008EF
:10011000B7010008B7010008B7010008B7010008DF
:10012000B7010008B7010008B7010008B7010008CF
:10013000B7010008B7010008B7010008B7010008BF
:10014000B7010008B7010008B7010008B7010008AF
:10015000B7010008B7010008B7010008B70100089F
:10016000B7010008B7010008B7010008B70100088F
:10017000B7010008B7010008B7010008000000003F
:10018000B7010008B7010008DFF80CD000F068F8EC
:1001900000480047896500089065002006488047B0
:1001A00006480047FEE7FEE7FEE7FEE7FEE7FEE75C
:1001B000FEE7FEE7FEE7FEE7B53500088901000827
:1001C0002DE9F05F0546002092469B46884606468C
:1001D000814640241BE0284641464746224600F01F
:1001E0002FF853465A46C01A914110D3114618466B
:1001F000224600F016F82D1A67EB01084F462246FA
:100200000120002100F00DF817EB00094E41201EDF
:10021000A4F10104DFDC484631462A464346BDE8E6
:10022000F09F202A04DB203A00FA02F100207047F8
:100230009140C2F1200320FA03F319439040704724
:10024000202A04DB203A21FA02F00021704721FA2B
:1002500002F3D040C2F12002914008431946704792
:10026000064C074D06E0E06840F0010394E8070003
:1002700098471034AC42F6D3FFF78AFF042A0308EC
:10028000242A030870B58C1810F8015B15F00703D9
:1002900001D110F8013B2A1106D110F8012B03E01F
:1002A00010F8016B01F8016B5B1EF9D12B0705D427
:1002B0000023521E0DD401F8013BFAE710F8013B70
:1002C000CB1A921C03E013F8015B01F8015B521E8C
:1002D000F9D5A142D8D3002070BD00BFFEE770471A
:1002E00001B502E00098401E009000980028F9D166
:1002F00008BD000038B5002542F64A404FF4F073BF
:100300004FF4967200210090084601F0F6FF45F286
:1003100055504FF4F0734FF4FA720021009040F200
:100320002D1001F0EAFF42F64A404FF478430EA246
:1003300005210090002003F07BF900240EE04FF42B
:10034000784002234FF4967229460090002001F075
:10035000D4FF05F1280085B2601C84B20C2CEEDBC2
:10036000054803F039FA38BDC7FDB6AFC6F7B8F98E
:10037000C4BFC2BCA3BA00002104002038B50025C8
:1003800042F64A404FF4F0734FF496720021009009
:10039000084601F0B2FF45F255504FF4F0734FF4A8
:1003A000FA720021009040F22D1001F0A6FF42F6F3
:1003B0004A404FF478430EA20A210090002003F037
:1003C000E7F900240EE04FF4784002234FF49672D0
:1003D00029460090002001F090FF05F1280085B229
:1003E000601C84B20C2CEEDB03A003F0F5F938BDE1
:1003F000535542312F3A0000303A2F537562310085
:10040000024800680120014908607047143C01401F
:1004100070B504461D460023B5F5804F13D154F83E
:1004200022300C480340D1E9000640EA06108E68ED
:1004300040EA06208E8940EA06408E693043034335
:1004400044F8223003E06FF0704044F822000020AE
:1004500070BD00000000F0CF10B503460022086810
:1004600053F8202012480240D1E901042043CC680F
:1004700020430C6920434C6920438C692043CC699C
:1004800020430C6A20434C6A20438C6A2043CC6A88
:100490002043CC6B20430C6B204302438868082820
:1004A00001D142F04002086843F82020002010BD2E
:1004B0008000F0FF30B503460024501C53F8204064
:1004C00004F04044D1E9000540EA05108D6840EA97
:1004D00005208D8940EA0545088A401E45EA0055F9
:1004E000087D801E45EA00608D6928430443501C46
:1004F00043F82040002030BD10B501221DA11E4848
:1005000005F00AFA04460D2C20D11CA003F082FE4F
:100510004FF48053244A002116A004F087FE0446BD
:100520007CB922A003F076FE002212A1104605F04D
:10053000F3F9044601220FA10F4805F0EDF9044636
:1005400016E023A003F066FE00BFFEE70B2C08D1E7
:10055000214625A003F05EFE2D4803F05BFE00BFA0
:10056000FEE721462BA003F055FE2FA003F052FE1C
:1005700010BD0000303A000038050020A1B7464CFD
:1005800041534820BBB9C3BBD3D0CEC4BCFECFB50A
:10059000CDB3A3ACBCB4BDABBDF8D0D0B8F1CABD2F
:1005A000BBAF2E2E2E0D0A00E0260020A1B7464C30
:1005B00041534820D2D1B3C9B9A6B8F1CABDBBAF27
:1005C000CEC4BCFECFB5CDB3A1A30D0A0000000080
:1005D000A1B6A1B6B8F1CABDBBAFCAA7B0DCA1A392
:1005E000A1B7A1B70D0A0000A3A1A3A1CDE2B2BF9C
:1005F00020466C61736820B9D2D4D8CEC4BCFECF7B
:10060000B5CDB3CAA7B0DCA1A3282564290D0A0083
:10061000A0290308A3A1A3A15265735F466C61736F
:1006200068282564290D0A00A1B7CEC4BCFECFB549
:10063000CDB3B9D2D4D8B3C9B9A6A3ACBFC9D2D4AB
:10064000BDF8D0D0B6C1D0B4B2E2CAD40D0A000011
:1006500070B50446A56D00F06BF9064694F83500B8
:10066000022808D08020606500BF002084F8340094
:1006700000BF012070BD2068006820F016002168CE
:1006800008602068406920F0800021684861206C83
:1006900008B9A06C28B12068006820F00800216823
:1006A00008602068006820F001002168086010E000
:1006B00000F03EF9801B05280BD92020606503203F
:1006C00084F8350000BF002084F8340000BF032008
:1006D000D0E72068006800F001000028E8D194F815
:1006E0005C103F208840A860012084F8350000BFDE
:1006F000002084F8340000BF00BFBBE7014691F83A
:100700003500022803D0802048650120704705206D
:1007100081F835000868006820F001000A68106060
:100720000020F3E7F8B502460B4600250024002020
:100730000021D5E0012606FA01F51E6806EA050447
:10074000AC4274D11E7906F00306012E04D01E7946
:1007500006F00306022E13D190684F000326BE4018
:10076000B0434F00DE68BE403043906050680126C1
:100770008E40B0431E79C6F300168E403043506061
:100780001E7906F00306032E09D0D0684F00032619
:10079000BE40B0434F009E68BE403043D0601E79DB
:1007A00006F00306022E13D1CF0802F1200656F8F8
:1007B00027004E07F70E0F26BE40B0434F07FF0E2F
:1007C0001E69BE403043CF0802F1200646F82700DC
:1007D00010684F000326BE40B0431E7906F00306A2
:1007E0004F00BE40304310605E6806F44036002E75
:1007F00075D000BF002600963B4E366846F4804612
:10080000394F3E603E46366806F48046009600BF8B
:1008100000BF364E8F0856F827008E07370F0F2679
:10082000BE40B043324EB24202D1002624E056E030
:10083000304EB24201D101261EE02F4EB24201D10C
:10084000022619E02D4EB24201D1032614E02C4EAF
:10085000B24201D104260FE02A4EB24201D1052650
:100860000AE0294EB24201D1062605E0274EB242E7
:1008700001D1072600E008268F073F0FBE40304316
:100880001A4E8F0846F82700214E3068A0435E6854
:1008900006F4803606B120431D4E3060361D3068A8
:1008A000A0435E6806F4003606B12043184E361D9C
:1008B0003060361D3068A0435E6806F4801606B1CD
:1008C0002043134E08363060361D3068A0435E6802
:1008D00006F4001606B120430D4E0C363060491C5C
:1008E0001029FFF427AFF8BD443802400838014012
:1008F000000002400004024000080240000C0240D8
:10090000001002400014024000180240001C024087
:10091000003C0140024613690B400BB1012000E08E
:100920000020704701480068000C7047002004E078
:100930000148006870470000040000200348006878
:100940000349097808440149086070470400002001
:100950000C00002010B50A48006840F400700849F7
:1009600008600846006840F480600860032000F0DA
:1009700089F80F2000F006F800F02AF8002010BDDA
:10098000003C024070B504460E4800784FF47A717E
:10099000B1FBF0F00C490968B1FBF0F5284601F015
:1009A00073F808B1012070BD102C07D20022214637
:1009B000501E00F029F80548046001E00120F2E72C
:1009C0000020F0E70C0000200000002008000020BC
:1009D00010B501F099FB01F0F9FA03F017FA01F0F4
:1009E000A1FCFFF789FD10BD01460846002809DB80
:1009F00000F01F0301229A4043099B0003F1E0230A
:100A0000C3F8002100BF70472DE9F05F80460D4616
:100A10001646002703F00EFC074639462A463346A1
:100A200001F00700C0F1070ABAF1040F02D94FF034
:100A3000040A01E0C0F1070AD14600F1040ABAF144
:100A4000070F02D24FF0000A01E0A0F1030AD446DA
:100A50004FF0010A0AFA09FAAAF1010A0AEA020A9F
:100A60000AFA0CFA4FF0010B0BFA0CFBABF1010B7D
:100A70000BEA030B4AEA0B042146404603F0E2FB73
:100A8000BDE8F09F00BF00F00702064B19684FF663
:100A9000FF031940044B0B4343EA0221014B196049
:100AA00000BF70470CED00E00000FA0570B5044689
:100AB0000D460CB9012070BD5848006800F00700D1
:100AC000A84209D255490D700846006800F0070099
:100AD000A84201D00120EEE7207800F002000228B1
:100AE0001DD1207800F00400042805D14C4800688E
:100AF00040F4E0504A490860207800F008000828D7
:100B000005D14748006840F46040454908604448C2
:100B1000006820F0F000A16808434149086020788F
:100B200000F00100A8B36068012807D13C480838EC
:100B30000068C0F34040B8B90120BCE760680228F3
:100B400002D06068032807D1354808380068C0F330
:100B5000406048B90120AEE7314808380068C0F36A
:100B6000400008B90120A6E72D48006820F00300E6
:100B7000616808432A490860FFF7DAFE064609E083
:100B8000FFF7D6FE801B41F28831884202D903204C
:100B900091E707E02248006800F00C006168B0EBC4
:100BA000810FEDD11D48006800F00700A84209D967
:100BB0001A490D700846006800F00700A84201D0ED
:100BC000012078E7207800F00400042807D11448B9
:100BD000006820F4E050E16808431149086020787B
:100BE00000F00800082808D10D48006820F4604093
:100BF000216940EAC1000A49086000F03FF808494D
:100C00000968C1F30311074A515CC84006490860EE
:100C100006480068FFF7B6FE00204CE7003C0240A3
:100C2000083802400A700008000000200800002078
:100C300001480068704700000000002000B5FFF781
:100C4000F7FF04490968C1F38221034A515CC84097
:100C500000BD0000083802401A70000800B5FFF718
:100C6000E7FF04490968C1F34231034A515CC840B7
:100C700000BD0000083802401A7000082DE9F04756
:100C8000002400250026A1462548006800F00C003D
:100C900020B1042805D008283AD105E0DFF8849077
:100CA00039E0DFF8849036E01D48001F006800F04E
:100CB0003F041B48001F006800F4800078B11A4808
:100CC0001749091F0968C1F38811A0FB017001468B
:100CD000224600233846FFF773FA05460EE0114816
:100CE0000F49091F0968C1F38811A0FB0170014673
:100CF000224600233846FFF763FA05460848001FDE
:100D00000068C0F30140401C4600B5FBF6F902E064
:100D1000DFF8109000BF00BF4846BDE8F087000034
:100D2000083802400024F40040787D01F8B50446FC
:100D30000CB90120F8BD207800F00100002874D023
:100D4000F948006800F00C0004280DD0F64800684F
:100D500000F00C00082813D1F348001F006800F4CD
:100D60008000B0F5800F0BD1EF4808380068C0F361
:100D70004040002859D06068002856D10120D9E7AA
:100D800000BF6068B0F5803F08D1E74808380068C8
:100D900040F48030E449083908601EE06068B0F52E
:100DA000A02F0DD1E0480838006840F48020DE49CB
:100DB000083908600846006840F4803008600CE09C
:100DC000D9480838006820F48030D74908390860CD
:100DD0000846006820F48020086000BF606890B179
:100DE000FFF7A6FD054606E0FFF7A2FD401B6428BD
:100DF00001D903209EE7CC4808380068C0F3404082
:100E00000028F1D011E0FFF793FD054606E0FFF75B
:100E10008FFD401B642801D903208BE7C2480838A6
:100E20000068C0F340400028F1D1207800F00200B3
:100E300002285FD1BC48006800F00C0058B1BA48E5
:100E4000006800F00C0008281CD1B748001F00689B
:100E500000F48000B0B9B44808380068C0F340001E
:100E600020B1E068012801D0012063E7AE480838CE
:100E7000006820F0F800216940EAC100AA49083959
:100E8000086037E0E06800B30120A8490860FFF778
:100E90004FFD054606E0FFF74BFD401B022801D938
:100EA000032047E7A04808380068C0F34000002846
:100EB000F1D09D480838006820F0F800216940EA28
:100EC000C10099490839086014E00020974908607A
:100ED000FFF72EFD054606E0FFF72AFD401B02281E
:100EE00001D9032026E7904808380068C0F3400085
:100EF0000028F1D1207800F0080008282CD1606982
:100F0000A8B101208A490860FFF712FD054606E0F6
:100F1000FFF70EFD401B022801D903200AE7824893
:100F20006C300068C0F340000028F1D014E00020CD
:100F30007F490860FFF7FCFC054606E0FFF7F8FC78
:100F4000401B022801D90320F4E677486C30006882
:100F5000C0F340000028F1D1207800F004000428FC
:100F600070D1002770483830006800F0805090B988
:100F700000BF002000906C483830006840F080507E
:100F80006949383108600846006800F080500090D8
:100F900000BF00BF01276748006800F48070B0B947
:100FA0006448006840F4807062490860FFF7C0FC44
:100FB000054606E0FFF7BCFC401B022801D90320D0
:100FC000B8E65C48006800F480700028F2D000BFEA
:100FD000A068012808D154486830006840F001003A
:100FE0005149683108601DE0A06805280DD14E48C0
:100FF0006830006840F004004B49683108600846DA
:10100000006840F0010008600CE047486830006864
:1010100020F001004449683108600846006820F06B
:101020000400086000BFA068A8B1FFF781FC054676
:1010300009E0FFF77DFC401B41F28831884202D96C
:10104000032077E626E0384868300068C0F34000A7
:101050000028EED013E0FFF76BFC054608E0FFF731
:1010600067FC401B41F28831884201D9032061E6C8
:101070002D4868300068C0F340000028EFD1012FF0
:1010800007D129483830006820F08050264938318F
:10109000086000BFA069002845D02348006800F020
:1010A0000C0008285DD0A069022845D100201F4906
:1010B0000866FFF73DFC054606E0FFF739FC401BDC
:1010C000022801D9032035E6174808380068C0F324
:1010D00040600028F1D1D4E907010843616A40EA81
:1010E00081110122A06AC2EB500041EA00412C208C
:1010F000005D41EA00600C49091F086001200B49AE
:101100000866FFF715FC054606E0FFF711FC401BDB
:10111000022801D903200DE6034808380068C0F30F
:1011200040600028F1D049E0083802400000474202
:10113000800E474200700040002021490866FFF7FA
:10114000F7FB054606E0FFF7F3FB401B022801D939
:101150000320EFE51B480068C0F340600028F2D18F
:101160002CE0A069012800D1E4E51648001D0668BE
:10117000A069012820D006F48001E06981421BD1DA
:1011800006F03F01206A814216D147F6C070304018
:10119000616AB0EB811F0FD106F440310122A06AD1
:1011A000C2EB5000B1EB004F06D106F070612C206D
:1011B000005DB1EB006F01D00120BBE50020B9E577
:1011C000000047420038024010B504460CB9012027
:1011D00010BD606A38B96068B0F5827F00D105E063
:1011E0000021E16102E0002121616161A06AB0F5A6
:1011F000005F00D100BF94F8510028B9002084F8A6
:101200005000204600F050F8022084F85100206879
:10121000006820F0400021680860A08800F4827017
:10122000218901F404410843A18901F400610843C4
:10123000217C01F002010843217D01F001010843F6
:10124000218B01F400710843217F01F0380108432C
:101250002021095D01F080010843218D01F4005136
:101260000843216808600421A06901EA104094F84D
:10127000241001F01001084321684860A06AB0F50D
:10128000005F03D1A08D80B2216808612068C06929
:1012900020F400602168C86100206065012084F8A6
:1012A0005100002094E7000010B586B0044600BF4E
:1012B000002000902248006840F0020020490860A9
:1012C0000846006800F00200009000BF00BF00BFA9
:1012D000002000900846006840F040000860084682
:1012E000006800F04000009000BF00BF4020019067
:1012F00001200290032004900020039001A91148CE
:10130000FFF710FA28200190022002900320049099
:10131000012003900520059001A90B48FFF702FA70
:10132000102001900520059001A90748FFF7FAF960
:101330000120064908600649C1F8980206B010BDB0
:101340003038024000180240000402409802434234
:10135000008042422DE9FC470446884617461D4658
:101360000020019081466068B0F5827F0DD1A068B1
:1013700058B9042084F851003B4642464146204675
:10138000009500F0EBF9BDE8FC8700BF94F8500031
:10139000012801D10220F6E7012084F8500000BFA7
:1013A000FFF7C6FA064694F85100012802D04FF024
:1013B0000209D6E0B8F1000F00D017B94FF00109CB
:1013C000CFE0042084F8510000206065C4F8388024
:1013D000A787E7872063A086E08620646064A06A10
:1013E000B0F5005F10D100BF2068006820F4005005
:1013F000216808602068006840F400502168086097
:1014000000BFE08F401EE087A068B0F5004F0BD111
:101410002068006820F040002168086020680068AB
:1014200020F48040216808602068006800F04000D7
:10143000402805D02068006840F04000216808601E
:10144000E068F8B91AE02068806800F0010050B147
:101450002068007BA16B0870A06B401CA063E08F2C
:10146000401EE0870AE0FFF763FA801BA84201D321
:10147000681C00B915B94FF0030972E0E08F00282D
:10148000E1D11EE01AE02068806800F0010050B150
:101490002068C068A16B0880A06B801CA063E08FEF
:1014A000401EE0870AE0FFF743FA801BA84201D301
:1014B000681C00B915B94FF0030952E0E08F00280D
:1014C000E1D1A06AB0F5005F30D12068006840F437
:1014D0008050216808602B46012211462046009664
:1014E00001F0DEFB10B14FF003093AE0E068B0F51F
:1014F000006F04D12068C068A16B088003E02068F9
:10150000007BA16B08702B460122114620460096F5
:1015100001F0C6FB30B1606D40F0020060654FF035
:1015200003091EE02068C068019000BF32462946CA
:10153000204601F0EBFA08B1202060652068806841
:1015400000F01000102807D1606D40F002006065C7
:101550004FF6EF7021688860606D08B14FF00109A7
:1015600000BF012084F8510000BF002084F8500023
:1015700000BF484607E72DE9F84F0446884616465F
:101580001D464FF0000A00BF94F85000012802D118
:101590000220BDE8F88F012084F8500000BFFFF75B
:1015A000C7F90746B14694F85100012802D04FF020
:1015B000020AC9E0B8F1000F00D016B94FF0010AD5
:1015C000C2E0032084F8510000206065C4F8308038
:1015D000A686E686A063A087E08760642064A06892
:1015E000B0F5004F0BD12068006820F04000216862
:1015F00008602068006840F4804021680860A06AA4
:10160000B0F5005F0DD100BF2068006820F40050E5
:10161000216808602068006840F400502168086074
:1016200000BF2068006800F04000402805D0206816
:10163000006840F0400021680860E068B0F5006F85
:101640002FD1606810B1B9F1010F09D1206B00886A
:101650002168C860206B801C2063E08E401EE086FD
:101660001BE02068806800F0020002280AD1206B8D
:1016700000882168C860206B801C2063E08E401EBB
:10168000E0860AE0FFF754F9C01BA84201D3681CAA
:1016900000B915B94FF0030A56E0E08E0028E0D1FA
:1016A0002EE0606810B1B9F1010F09D1206B00780C
:1016B00021680873206B401C2063E08E401EE0868A
:1016C0001BE02068806800F0020002280AD1206B2D
:1016D000007821680873206B401C2063E08E401E58
:1016E000E0860AE0FFF724F9C01BA84201D3681C7A
:1016F00000B915B94FF0030A26E0E08E0028E0D1CA
:10170000A06AB0F5005F05D12068006840F4805001
:10171000216808603A462946204601F041FA08B19E
:1017200020206065A06850B900BF002000902068AC
:10173000C068009020688068009000BF00BF606DA6
:1017400008B14FF0010A00BF012084F8510000BF2A
:10175000002084F8500000BF50461AE72DE9F04FF2
:1017600085B00446884691461D460E9E0020039093
:10177000012002900020019000BF94F85000012841
:1017800003D1022005B0BDE8F08F012084F850009D
:1017900000BFFFF7CDF8074694F851B06068049099
:1017A000AA46BBF1010F0BD00498B0F5827F04D19B
:1017B000A06810B9BBF1040F02D0022001902CE107
:1017C000B8F1000F03D0B9F1000F00D015B9012016
:1017D000019022E194F85100042802D0052084F8F9
:1017E000510000206065C4F83890E587A587C4F8EB
:1017F0003080E586A58620646064A06AB0F5005F4D
:101800000DD100BF2068006820F4005021680860F6
:101810002068006840F400502168086000BF20681C
:10182000006800F04000402805D02068006840F0C3
:10183000400021680860E068B0F5006F56D160682C
:1018400010B1BAF1010F09D1206B00882168C8607E
:10185000206B801C2063E08E401EE0863FE0206805
:10186000806800F0020002281CD1E08ED0B10298FE
:10187000012817D1206B00882168C860206B801C6C
:101880002063E08E401EE08600200290E08E48B982
:10189000A06AB0F5005F05D12068006840F4805070
:1018A000216808602068806800F0010068B1E08F5E
:1018B00058B12068C068A16B0880A06B801CA06331
:1018C000E08F401EE08701200290FFF731F8C01B37
:1018D000B04204D3701C10B1032001909DE0E08E53
:1018E0000028BCD1E08F0028B9D156E0606810B163
:1018F000BAF1010F09D1206B007821680873206BC1
:10190000401C2063E08E401EE08640E02068806836
:1019100000F0020002281CD1E08ED0B1029801280C
:1019200017D1206B007821680873206B401C20635E
:10193000E08E401EE08600200290E08E48B9A06A4A
:10194000B0F5005F05D12068006840F48050216840
:1019500008602068806800F0010068B1E08F58B12D
:101960002068C068A16B0870A06B401CA063E08F6A
:10197000401EE08701200290FEF7DAFFC01BB04254
:1019800001D3701C00B916B90320019045E0E08E28
:101990000028BBD1E08F0028B8D1A06AB0F5005F65
:1019A00012D13346012211462046009701F078F902
:1019B00030B1606D40F002006065032001902CE0C2
:1019C0002068C068039000BF2068806800F01000A5
:1019D000102809D1606D40F0020060654FF6EF708D
:1019E00021688860012001903A463146204601F086
:1019F000D7F820B101200190202060650DE0A0689B
:101A000050B900BF002000902068C0680090206896
:101A10008068009000BF00BF00BF012084F8510023
:101A200000BF002084F8500000BF0198AAE670B5FE
:101A300004460E4615460CB9012070BD94F84900C5
:101A400028B9002084F84800204600F01CF804F172
:101A500008012068FEF700FD3146A2682068FEF705
:101A600029FD2946236BD4E90102FEF7D1FCA168C8
:101A7000206850F8210040F00100A268216841F878
:101A800022000020D9E7704770B504462546681E3D
:101A9000B0F1807F01D301200FE0681E4FF0E021FC
:101AA00048610F214FF0FF3002F0CCFB00204FF0D7
:101AB000E021886107200861002070BD70477047F1
:101AC0002DE9F84F0446206805682068C66820683C
:101AD00047694FF00009CA4605F00F09B9F1000F38
:101AE0000AD105F0200038B106F0200020B12046D0
:101AF00001F040FFBDE8F88FB9F1000F7CD007F08E
:101B0000010018B906F49070002875D005F00100A6
:101B100030B106F4807018B1206C40F001002064F0
:101B200005F0040030B107F0010018B1206C40F05E
:101B30000200206405F0020030B107F0010018B186
:101B4000206C40F00400206405F0080048B106F065
:101B5000200010B907F0010018B1206C40F0080017
:101B60002064206C002846D005F0200028B106F043
:101B7000200010B1204601F0FDFE20684069C0F34E
:101B8000801A206C00F0080010B9BAF1000F2DD0B7
:101B9000204601F0A9FE2068406900F0400040287E
:101BA00020D100BF00BF2168143151E8001F21F08F
:101BB00040002168143141E80002002AF3D100BF3F
:101BC000A06B50B17548A16B0865A06BFEF796FD40
:101BD00088B1A06B016D88470DE02046FFF76FFFCD
:101BE00009E009E02046FFF76AFF04E02046FFF71E
:101BF00066FF002020647DE7206B012876D105F088
:101C00001000002872D006F010000028FAD000BFA3
:101C100000200090206800680090206840680090D4
:101C200000BF00BF2068406900F0400040285ED13E
:101C3000A06B006840681FFA80F8B8F1000F54D01C
:101C4000A08D404551DDA4F82E80A06BC069B0F591
:101C5000807F43D000BF00BF21680C3151E8001FD6
:101C600021F4807021680C3141E80002002AF3D190
:101C700000BF00BF00BF2168143151E8001F21F0F0
:101C800001002168143141E80002002AF3D100BFAD
:101C900000BF00BF2168143151E8001F21F040004F
:101CA0002168143141E80002002AF3D100BF20204E
:101CB00084F83E000020206300BF00BF21680C3183
:101CC00051E8001F21F0100021680C3141E80002AA
:101CD000002AF3D100BFA06BFEF7BAFCA08DE28D05
:101CE000801A81B22046FFF7E9FE03E740E0A08DAD
:101CF000E18D401A1FFA80F8E08DC0B3B8F1000FF3
:101D000035D000BF00BF21680C3151E8001F21F41D
:101D1000907021680C3141E80002002AF3D100BF25
:101D200000BF00BF2168143151E8001F21F00100FD
:101D30002168143141E80002002AF3D100BF2020BD
:101D400084F83E000020206300BF00BF21680C31F2
:101D500051E8001F21F0100021680C3141E8000219
:101D6000002AF3D100BF41462046FFF7A7FEC1E697
:101D700005F0800030B106F0800018B1204601F077
:101D8000AEFFB7E605F0400030B106F0400018B1F4
:101D9000204601F0DFFDADE600BFABE6D538000818
:101DA00010B504460CB9012010BDA06900B100E0D7
:101DB00000BF94F83D0028B9002084F83C0020467C
:101DC00000F028F8242084F83D002068C06820F442
:101DD00000502168C860204601F048FE2068006974
:101DE00020F49040216808612068406920F02A00B2
:101DF000216848612068C06840F400502168C860CC
:101E000000202064202084F83D0084F83E0000205B
:101E1000CAE7000010B586B0044600BF002000905D
:101E20001848006840F0010016490860084600683C
:101E300000F00100009000BF00BF48150190022093
:101E4000029003200490012003900720059001A92F
:101E50000D48FEF767FC4FF4806001900720059065
:101E600001A90948FEF75EFC0620FEF70BFE0022E2
:101E700001212520FEF7C8FD2520FEF7B5FD06B09F
:101E800010BD0000303802400000024070B504462A
:101E90000D46164694F83E00202816D105B10EB91D
:101EA000012070BD00BF94F83C00012801D1022040
:101EB000F7E7012084F83C0000BF00202063324691
:101EC0002946204601F0E8FEEBE70220E9E70000A2
:101ED00010B504460548828D6423054900F00AF8D0
:101EE0000248828D0249FFF7D1FF10BD043800205F
:101EF0001C0500202DE9F84F04460E46174699466A
:101F00004FF0000A94F83D0020285AD106B117B9C5
:101F10000120BDE8F88F00BF94F83C00012801D1F2
:101F20000220F6E7012084F83C0000BF0020206476
:101F3000212084F83D00FEF7FBFC8246A784E7845D
:101F4000A068B0F5805F04D1206910B90025B046C3
:101F500002E035464FF0000800BF002084F83C0046
:101F600000BF1BE05346002280212046CDF80090A0
:101F700001F0E5FE08B10320CBE745B9B8F8000051
:101F8000C0F308002168486008F1020803E02878DF
:101F9000216848606D1CE08C401EE084E08C0028C5
:101FA000E0D15346002240212046CDF8009001F0B8
:101FB000C6FE08B10320ACE7202084F83D000020D5
:101FC000A7E70220A5E7704700BFFEE710B500F0C5
:101FD00003F800F08DF810BD00B587B000BF0020F9
:101FE00001901748006840F0010015490860084654
:101FF000006800F00100019000BF00BF00BF00209A
:1020000001900846006840F0040008600846006837
:1020100000F00400019000BF00BF012002900020EA
:1020200003900220049002A90648FEF77BFB4FF4C0
:102030000050029002A90448FEF774FB07B000BDEF
:1020400030380240000002400008024070B51424FD
:102050000C2501212348FEF75DFC012801D1012553
:1020600007E04FF400512048FEF754FC012800D14E
:1020700001250C2D03D001201C49888005E000209B
:102080001A498880C8800120C8701848C08817493C
:102090000989884217DD01211248FEF73BFC01281F
:1020A00002D11249088009E04FF400510E48FEF7B2
:1020B00031FC012802D102200C49088000200B4984
:1020C000C8700120887009488078012808D1074825
:1020D000C078012804D1002004498870084604888B
:1020E000E0B270BD0000024000080240F837002056
:1020F000002004498870C8700880C88088806420E7
:1021000008817047F837002000B587B000BF002075
:1021100001900F48006840F020000D490860084613
:10212000006800F02000019000BF00BF4020029036
:1021300001200390032005900020049002A9054887
:10214000FEF7F0FA00200449086007B000BD000067
:1021500030380240001402409882424208B5554887
:10216000008800EB4000544901EB8000407908BB37
:10217000FEF7C0F842F64A4000904E48008800EB57
:1021800040004D4A02EB80008078401E00EB80004A
:10219000C000323081B248F2100348A2FA2001F0A8
:1021A000F7FA01204349098801EB4101424A02EB59
:1021B000810148713F48008800EB40003E4901EB37
:1021C0008000807908BBFEF795F842F64A400090FF
:1021D0003848008800EB4000374A02EB80008078E6
:1021E000401E00EB8000C000323081B248F2100384
:1021F00032A2FA2001F0CCFA01202E49098801EB25
:1022000041012D4A02EB810188712E48007828286F
:1022100016D142F64A4000902648008800EB400064
:10222000254A02EB80008078801E00EB8000C00011
:10223000323081B248F2100323A2FA2001F0A8FA4A
:102240001C48008800EB40001B4901EB80008078AF
:10225000012816D142F64A4000901648008800EB4B
:1022600040000A4602EB8000C078401E00EB800070
:10227000C000323081B248F2100313A2FA2001F0FC
:1022800087FA42F64A4000900A48008800EB400076
:10229000094A02EB80008078401E00EB8000C000FD
:1022A000323081B248F2100304A2FA2001F070FA31
:1022B00008BD0000120000202C0400203C3C2D2D05
:1022C000000000001000002020202020000000005E
:1022D00000BFFEE77047F0B506460F4614461D46A0
:1022E0002B4622463946304600F07EF804FB05F0C6
:1022F00045F2555100F0C2FBF0BD2DE9F041064614
:102300000F4614461D46DDF818802B4622463946F6
:10231000304600F069F804FB05F0414600F0AEFBE2
:10232000BDE8F08110B500F0A7F80120074908606A
:1023300000F080FB00F022F94FF4F0734FF4487284
:1023400000210846FFF7C7FF10BD0000A4824242EB
:1023500008B54FF02040204908602048486000BF81
:10236000002000901E48006840F001001C490860F1
:102370000846006800F00100009000BF00BF042084
:102380001849086005204860042088600020C86063
:10239000086148614FF08050886104200E498860D0
:1023A00000210D48C1600821016110214161002117
:1023B0008161C16141624FF4805181620021C1623B
:1023C0000163416381634FF48011C163054A114683
:1023D000FFF72DFB08BD0000A0380020040100A07D
:1023E00038380240F038002070B504460D461E46CD
:1023F0004FF4285000F034FB281200F038FB42F66E
:10240000012000F02DFBE8B200F031FB42F6022083
:1024100000F026FBA919491EC1F30F2000F027FB8D
:1024200042F6032000F01CFBA919491EC8B200F0B7
:102430001EFB4FF42C5000F013FB201200F017FB92
:1024400042F6013000F00CFBE0B200F010FB42F667
:10245000023000F005FBA118491EC1F30F2000F067
:1024600006FB42F6033000F0FBFAA118491EC8B281
:1024700000F0FDFA70BD000000B587B000BF00207D
:1024800001903948006840F0080037490860084664
:10249000006800F00800019000BF00BF00BF0020EE
:1024A00001900846006840F0100008600846006887
:1024B00000F01000019000BF00BF00BF002001909D
:1024C0000846006840F0200008600846006800F0F8
:1024D0002000019000BF00BF00BF0020019008460F
:1024E000006840F0400008600846006800F04000C6
:1024F000019000BF00BF4FF6807002900220039051
:1025000003200590012004900C20069002A9174892
:10251000FEF708F94CF20370029002A91448FEF786
:1025200001F93020029002A91148FEF7FBF84FF4A0
:102530008060029002A90F48FEF7F4F80120029093
:1025400002A90D48FEF7EEF84FF42060029001203A
:102550000390032005900120049002A90648FEF78D
:10256000E1F807B000BD0000303802400010024022
:10257000000C0240001802400014024010B5FFF7A2
:10258000E7FE4FF4704000F06BFA552000F06FFA50
:102590004FF2010000F064FAAA2000F068FA4FF24E
:1025A000020000F05DFA522000F061FA4FF20300E1
:1025B00000F056FA082000F05AFA4FF2040000F03A
:1025C0004FFA012000F053FA4FF4304000F048FA7F
:1025D0000D2000F04CFA4BF2010000F041FA0D2002
:1025E00000F045FA4BF2020000F03AFA0D2000F03C
:1025F0003EFA4FF4314000F033FA0D2000F037FA84
:102600004BF2011000F02CFA0D2000F030FA4BF2E2
:10261000021000F025FA0D2000F029FA4FF43240A4
:1026200000F01EFA002000F022FA4BF2012000F028
:1026300017FA002000F01BFA4BF2022000F010FA0B
:10264000002000F014FA4FF4364000F009FA44205C
:1026500000F00DFA4BF2016000F002FA442000F0A5
:1026600006FA4BF2026000F0FBF9442000F0FFF99B
:102670004FF4374000F0F4F9342000F0F8F94BF251
:10268000017000F0EDF9342000F0F1F94BF2027026
:1026900000F0E6F9342000F0EAF94FF4384000F099
:1026A000DFF9342000F0E3F94BF6010000F0D8F92F
:1026B000342000F0DCF94BF6020000F0D1F93420B0
:1026C00000F0D5F94FF43F4000F0CAF9012000F0C6
:1026D000CEF94FF4334000F0C3F90F2000F0C7F9F2
:1026E0004BF2013000F0BCF90F2000F0C0F94BF2C2
:1026F000023000F0B5F90F2000F0B9F94FF439407D
:1027000000F0AEF9342000F0B2F94BF6011000F001
:10271000A7F9342000F0ABF94BF6021000F0A0F955
:10272000342000F0A4F94FF4354000F099F9082066
:1027300000F09DF94BF2015000F092F9082000F0F2
:1027400096F94BF2025000F08BF9082000F08FF957
:102750004FF4424000F084F9032000F088F94FF470
:102760003A4000F07DF9342000F081F94BF6012069
:1027700000F076F9342000F07AF94BF6022000F0F0
:102780006FF9342000F073F94FF43C4000F068F921
:10279000002000F06CF94BF6014000F061F9782060
:1027A00000F065F94BF6024000F05AF9002000F005
:1027B0005EF94FF43D4000F053F9002000F057F966
:1027C0004BF6015000F04CF9782000F050F94BF630
:1027D000025000F045F9002000F049F94FF43E4066
:1027E00000F03EF9002000F042F94BF6016000F0E5
:1027F00037F9642000F03BF94FF4704000F030F9F5
:10280000552000F034F94FF2010000F029F9AA2018
:1028100000F02DF94FF2020000F022F9522000F0F2
:1028200026F94FF2030000F01BF9082000F01FF911
:102830004FF2040000F014F9002000F018F94FF4F2
:10284000354000F00DF9502000F011F94FF43140FF
:1028500000F006F9CC2000F00AF94BF2011000F06C
:10286000FFF8002000F003F94FF4364000F0F8F8CC
:10287000052000F0FCF84FF4374000F0F1F8772025
:1028800000F0F5F84BF2017000F0EAF8772000F064
:10289000EEF84FF4384000F0E3F8012000F0E7F8DC
:1028A0004BF6010000F0DCF8032000F0E0F84BF6F6
:1028B000020000F0D5F8032000F0D9F84BF6030031
:1028C00000F0CEF8032000F0D2F84FF43C4000F0C6
:1028D000C7F8022000F0CBF84BF6014000F0C0F83A
:1028E000002000F0C4F84BF6024000F0B9F80020D8
:1028F00000F0BDF84FF43D4000F0B2F8012000F0C8
:10290000B6F84BF6015000F0ABF8842000F0AFF8B9
:102910004BF6025000F0A4F81C2000F0A8F84BF68B
:10292000035000F09DF81C2000F0A1F84BF6045075
:1029300000F096F8002000F09AF84FF4494000F0BB
:102940008FF8D02000F093F84CF6011000F088F8D2
:10295000022000F08CF84CF6021000F081F85020B4
:1029600000F085F84CF6031000F07AF8502000F0E3
:102970007EF84CF6041000F073F8502000F077F861
:102980004FF4585000F06CF8402000F070F84FF40D
:10299000545000F065F8002000F069F84FF47F40D3
:1029A00000F05EF8AA2000F062F84FF6017000F027
:1029B00057F8552000F05BF84FF6027000F050F821
:1029C000252000F054F84FF6037000F049F801207C
:1029D00000F04DF84FF47C4000F042F8162000F073
:1029E00046F84FF6014000F03BF8A22000F03FF817
:1029F0004FF6024000F034F8262000F038F84FF48B
:102A0000685000F02DF8062000F031F84FF46850BF
:102A100000F026F8552000F02AF84FF4885000F016
:102A20001FF86FF07F40FDF75BFC4FF4245000F07F
:102A300017F810BD10B500200749086040F6FF20C8
:102A4000FDF74EFC01200549C1F8AC0240F6FF201D
:102A5000FDF746FC10BD0000AC82424200804242BD
:102A600001B5BDF800004FF0D041088008BD01B5A8
:102A7000BDF800004FF0D041488008BD30B5024697
:102A80000C464FF43050FFF7EBFF002503E02046E3
:102A9000FFF7EDFF6D1C9542F9D330BD7047000084
:102AA00008B500BF002000901548006840F4805031
:102AB000134908600846006800F48050009000BF89
:102AC00000BF1048104908604FF482704860002130
:102AD0000D488160C160016141614FF40071816105
:102AE0000021C16101624162FEF76EFB0648006889
:102AF000006840F0400004490968086008BD000013
:102B0000443802400030014048380020F8B50446FF
:102B10000E4615466068B0F5827F0DD1A068B0F50D
:102B2000004F03D0A068B0F5806F05D12068006821
:102B300020F04000216808606068B0F5827F1FD1F6
:102B4000A068B0F5806F0DD033460022802120466A
:102B5000009500F0A5F808B3606D40F020006065B6
:102B60000320F8BD3346002201212046009500F0E5
:102B700097F898B1606D40F0200060650320F0E7A1
:102B80003346002201212046009500F089F828B143
:102B9000606D40F0200060650320E2E70020E0E780
:102BA0007CB504460D461646164800681821B0FB51
:102BB000F1F01549B0FBF1F04FF47A714843019000
:102BC0006068B0F5827F0DD12B460022802120461F
:102BD000009600F065F898B1606D40F020006065E7
:102BE00003207CBD00BF019800B908E00198401E99
:102BF000019020688068C0F3C0100028F3D100BFA6
:102C00000020EEE70000002040420F0038B500240D
:102C10000020154908600520009041F28833012208
:102C200069461248FEF7A7FCFF2000904FF4805041
:102C30000F49088000BFFF2001F098F904460C48B6
:102C400001880088401E0A4A108019B9042000F04B
:102C500011F838BD04F001000028ECD10120024930
:102C6000086000BFF5E700009802434248380020A2
:102C70002805002010B50446214602A001F0CAFA3A
:102C8000002010BD53504920B5C8B4FDB3ACCAB143
:102C9000216572726F72436F6465203D2025640068
:102CA0002DE9F84F04460D4690461E46DDF8289063
:102CB000FDF73EFEA0EB0900371AFDF739FE82460C
:102CC0002C480068C0F3CB307843009045E0701C7E
:102CD000002842D0FDF72CFEA0EB0A00B84200D23B
:102CE000A7BB2068406820F0E00021684860606869
:102CF000B0F5827F0DD1A068B0F5004F03D0A06879
:102D0000B0F5806F05D12068006820F04000216890
:102D10000860A06AB0F5005F0DD100BF20680068B0
:102D200020F40050216808602068006840F40050DA
:102D30002168086000BF012084F8510000BF002016
:102D400084F8500000BF0320BDE8F88FFFE700982B
:102D500000B900270098401E009020688068284035
:102D6000A84201D1012000E000204045AFD1002061
:102D7000EAE70000000000207047000008B5254881
:102D8000008800EB4000244901EB8000407968BBDB
:102D900001202049098801EB41011F4A02EB810112
:102DA000487100211D4800F04FFD1D4800780128A2
:102DB00002D1FDF7E3FA19E001221A4801681A4826
:102DC00002F0D4FD194B4FF480621949164802F005
:102DD00009FF154802F00DFA45F255500023144A38
:102DE0006421009040F22D1000F0D2FC09480088C8
:102DF00000EB4000084901EB8000807940B90120D8
:102E00000449098801EB4101034A02EB8101887101
:102E100008BD0000120000202C0400202104002026
:102E2000200000201C000020701500202404002039
:102E30002100002008B52548008800EB4000244907
:102E400001EB8000407968BB01202049098801EB33
:102E500041011F4A02EB8101487101211D4800F028
:102E6000F3FC1D480078012802D1FDF787FA19E02C
:102E700001221A4801681A4802F078FD194B4FF4F4
:102E800080621949164802F0ADFE154802F0B1F90A
:102E900045F255500023144A1946009040F22D1077
:102EA00000F0C6FB0948008800EB4000084901EB30
:102EB0008000807940B901200449098801EB410173
:102EC000034A02EB8101887108BD00001200002056
:102ED0002C04002021040020200000201C000020E1
:102EE00070150020240400202100002008B522488D
:102EF000008800EB4000214901EB8000407938BB9D
:102F000001201D49098801EB41011C4A02EB8101A6
:102F1000487102211A4800F097FC1A4800780128ED
:102F200002D1FDF72BFA13E0012217480168174878
:102F300002F01CFD16484FF4F07340F2F31200212A
:102F400000904FF4967000F0D1FB104802F051F958
:102F50000948008800EB4000084901EB80008079B7
:102F600040B901200449098801EB4101034A02EB01
:102F70008101887108BD0000120000202C0400208F
:102F800021040020200000201C00002070150020DB
:102F9000484F070008B52148008800EB4000204951
:102FA00001EB8000407930BB01201C49098801EB0E
:102FB00041011B4A02EB810148710321194800F0CD
:102FC00043FC19480078012802D1FDF7D7F912E037
:102FD000012216480168164802F0C8FC4DF6205040
:102FE000642340F21B1219460090980000F07EFB0B
:102FF0000F4802F0FEF80948008800EB400008493D
:1030000001EB8000807940B901200449098801EB77
:103010004101034A02EB8101887108BD12000020C2
:103020002C04002021040020200000201C0000208F
:103030007015002008B54248008800EB4000414967
:1030400001EB8000407990B901203D49098801EBEE
:1030500041013C4A02EB8101487104213A4800F0E9
:10306000F3FB3A480078012801D1FDF787F934488D
:10307000008800EB4000334901EB8000807950B9B3
:1030800001202F49098801EB41012E4A02EB810101
:103090008871FDF773F92E480078282816D142F67A
:1030A0004A4000902648008800EB4000254A02EB89
:1030B00080008078801E00EB8000C000323081B23A
:1030C00048F2100323A2FA2000F062FB1C4800889B
:1030D00000EB40001B4901EB80008078012816D1ED
:1030E00042F64A4000901648008800EB40000A462D
:1030F00002EB8000C078401E00EB8000C000323040
:1031000081B248F2100313A2FA2000F041FB42F60C
:103110004A4000900A48008800EB4000094A02EB50
:1031200080008078401E00EB8000C000323081B209
:1031300048F2100309A2FA2000F02AFB08BD0000A3
:10314000120000202C040020210400202000002078
:103150001000002020202020000000003C3C2D2DED
:103160000000000008B52548008800EB4000244915
:1031700001EB8000407970BB002122A000F064FBCD
:1031800022480078012802D1FDF7F8F81AE0012260
:103190001F4801681F4802F0E9FB1F4B4FF4806293
:1031A0001E491C4802F01EFD1A4802F022F845F2A2
:1031B00055504FF47843194A0021009040F22D10E9
:1031C00000F0E6FA01200D49098801EB41010C4AA3
:1031D00002EB810148710948008800EB4000084972
:1031E00001EB8000807940B901200449098801EB96
:1031F0004101034A02EB8101887108BD12000020E1
:103200002C040020303A2F5375623100200000203A
:103210001C00002070150020240400202100002044
:1032200010B51748008800EB4000164901EB8000FC
:10323000407990B901201249098801EB4101114AF6
:1032400002EB8101487101210FA000F0FDFA104846
:103250000078012801D1FDF791F80948008800EBBA
:103260004000084901EB8000807940B90120044901
:10327000098801EB4101034A02EB8101887110BD0D
:10328000120000202C040020303A2F5375623100C8
:103290002000002010B51748008800EB40001649B8
:1032A00001EB8000407990B901201249098801EBB7
:1032B0004101114A02EB8101487102210FA000F087
:1032C000C3FA10480078012801D1FDF757F80948E2
:1032D000008800EB4000084901EB8000807940B98C
:1032E00001200449098801EB4101034A02EB8101F5
:1032F000887110BD120000202C040020303A2F539A
:10330000756231002000002010B51748008800EBDE
:103310004000164901EB8000407990B90120124924
:10332000098801EB4101114A02EB81014871032137
:103330000FA000F089FA10480078012801D1FDF7AC
:103340001DF80948008800EB4000084901EB8000A7
:10335000807940B901200449098801EB4101034A01
:1033600002EB8101887110BD120000202C040020A6
:10337000303A2F53756231002000002010B51748F5
:10338000008800EB4000164901EB8000407990B9BD
:1033900001201249098801EB4101114A02EB810128
:1033A000487104210FA000F04FFA1048007801285E
:1033B00001D1FCF7E3FF0948008800EB4000084911
:1033C00001EB8000807940B901200449098801EBB4
:1033D0004101034A02EB8101887110BD12000020F7
:1033E0002C040020303A2F53756231002000002059
:1033F00010B51748008800EB4000164901EB80002B
:10340000407990B901201249098801EB4101114A24
:1034100002EB8101487105210FA000F015FA104858
:103420000078012801D1FCF7A9FF0948008800EBCA
:103430004000084901EB8000807940B9012004492F
:10344000098801EB4101034A02EB8101887110BD3B
:10345000120000202C040020303A2F5375623100F6
:103460002000002010B51748008800EB40001649E6
:1034700001EB8000407990B901201249098801EBE5
:103480004101114A02EB8101487105210F4800F00A
:10349000DBF90F480078012801D1FCF76FFF0948DC
:1034A000008800EB4000084901EB8000807940B9BA
:1034B00001200449098801EB4101034A02EB810123
:1034C000887110BD120000202C040020210400206F
:1034D0002000002010B5FDF731FA0548808801284A
:1034E00004D10348C088401C0149C88010BD0000B9
:1034F000F837002000B593B000BF002001902A48A3
:10350000006840F08050284908600846006800F0D4
:103510008050019000BF00BF00BF002001902348F1
:10352000006840F48040214908600846006800F4C3
:103530008040019000BF00BF012002900004039072
:10354000022008904105099119210A914FF4A871B0
:103550000B9102210C9107210D9102A8FDF7E6FBCA
:1035600008B100BFFEE70F200E9002200F90002050
:1035700010904FF4A05011904FF4805012900521FC
:103580000EA8FDF793FA08B100BFFEE7FDF7CAF9F0
:1035900041F20101884205D10548006840F480707D
:1035A0000349086013B000BD40380240007000407D
:1035B000003C02400348006840F470000149086084
:1035C0007047000088ED00E02DE9F04F8046894605
:1035D00016461F46DDF824A04FF0100B10230822DA
:1035E00049464046FEF700FF4FF43050FFF738FAE7
:1035F000002416E0002510E00C4800EB0610005DEA
:103600000121A940084018B13846FFF730FA02E01E
:103610005046FFF72CFA681C85B2082DECDB601CC5
:1036200084B25C45E6DBBDE8F08F00002270000844
:103630002DE9FC5F05468846144699460220019014
:1036400000954FF0800A20231A4641462846FEF78F
:10365000CBFE4FF43050FFF703FA40E06078A0F162
:10366000A1012078A138C0EB001202EB401001EB61
:10367000400000FB0AFB80221B49584600F032FC48
:10368000002614E000270EE01748805D0121B940B4
:10369000084018B14846FFF7EAF902E00C98FFF736
:1036A000E6F9781C87B2082FEEDB701C86B256450F
:1036B000E8DB05F1200085B2B5F5487F04DD08F1AF
:1036C00028001FFA80F8009D20231A46414628460C
:1036D000FEF78AFE4FF43050FFF7C2F9A41C2078A1
:1036E0000028BBD1BDE8FC9F0C3900202DE9FF4F1D
:1036F00081B081468A460E9E4FF42050B6FBF0FB07
:10370000B6FBF0F100FB116851464846DDE90323A2
:10371000FEF76AFE4FF43050FFF7A2F9002718E0D9
:103720006B464FF420521849184802F05BFA002407
:103730000BE01549601C0D5C0846005D40EA05255C
:103740002846FFF794F9641C641CB4F5205FF0D39D
:103750007F1C5F45E4D36B4642460B490B4802F0A1
:1037600041FA00240BE00849601C0D5C0846005D2E
:1037700040EA05252846FFF77AF9641C641C444595
:10378000F1D305B0BDE8F08F8C3900207015002012
:103790002DE9F84704460E4615461F46DDF82480FD
:1037A0004FF00809A24612E0CDF800802A783B4687
:1037B00031462046FFF708FF04EB090084B2B4F558
:1037C000487F03DD06F1190086B254466D1C287847
:1037D0000028E9D1BDE8F887F8B50546002732266C
:1037E0002946154802F0C2F90446F4B900BF13494E
:1037F000114802F0DEFA044614B91048807D00B981
:103800000EE042F64A404FF478430C4A16323146F5
:1038100000900020FFF7BCFF06F1280086B2E6E723
:1038200000BF054801F0F6FC03E0214604A000F0CB
:10383000F1FC2046F8BD000098250020C825002096
:103840007265733D25640A002DE9F04105460E4678
:1038500000272946194802F089F904463CBB00BFFD
:103860001749164802F0A5FA044614B91448807D99
:1038700000B917E01248007A00F0100018B10120DA
:103880001049087002E000200E490870B74207D1C5
:103890000B4816300C490860084801F0BBFC01E0F9
:1038A0007F1CDDE700BF054801F0B4FC03E02146C2
:1038B00006A000F0AFFC2046BDE8F081982500206E
:1038C000C8250020200000201C0000207265733DE8
:1038D00025640A0070B50546AC6B0020E085E084E5
:1038E0002046FEF7ECF870BD00BF00BF02680C3246
:1038F00052E8002F22F4907102680C3242E8001363
:10390000002BF3D100BF00BF00BF0268143252E8A1
:10391000002F22F001010268143242E80013002B4C
:10392000F3D100BF016B01290ED100BF00BF0268B7
:103930000C3252E8002F22F0100102680C3242E8EB
:103940000013002BF3D100BF202180F83E1000218E
:103950000163704710B504462068C06820F040003D
:103960002168C860202084F83D002046FEF72BFB2C
:10397000002010BDF8B5044694F83E00222873D10B
:10398000A068B0F5805F0CD1206950B90025A66A07
:1039900020684068C0F308003080A06A801CA062E4
:1039A00015E0A56A0026A068B0F5805F03D0A06886
:1039B00028B9206918B920684068287004E0206898
:1039C000406800F07F002870A06A401CA062E08D73
:1039D000401E80B2E085002844D12068C06820F0F5
:1039E00020002168C8602068C06820F480702168C9
:1039F000C8602068406920F00100216848612020EB
:103A000084F83E00206B012826D10020206300BFEF
:103A100000BF21680C3151E8001F21F0100021681F
:103A20000C3141E80002002AF3D100BF2068006891
:103A300000F0100010280AD100BF0020009020687C
:103A40000068009020684068009000BF00BFA18D12
:103A50002046FEF733F802E02046FEF739FA002050
:103A6000F8BD01E00020FBE70220F9E72DE9F84F5F
:103A700004462068006920F44050E168084321684A
:103A800008612169A068084361690843E169084346
:103A900000902068C06849F20C618843009908438F
:103AA0002168C8602068406920F44070A16908431B
:103AB0002168486176492068884203D075492068AA
:103AC000884203D1FDF7CAF8814602E0FDF7B6F857
:103AD0008146E069B0F5004F6CD102206168A0FB1F
:103AE000015003461920A9FB007001462A463846BA
:103AF000FCF766FB6421B0FBF1F04FEA001A0220EC
:103B00006168A0FB01510B461920A9FB00712A46F0
:103B10003846FCF755FB834602206168A0FB015044
:103B200003461920A9FB00712A463846FCF748FBDA
:103B30006421B0FBF1F000EBC00101EB0010ABEB36
:103B40008000322101EBC0006421B0FBF1F000F0F5
:103B5000F8000AEB400A02206168A0FB015003460E
:103B60001920A9FB007001462A463846FCF728FBBD
:103B7000834602206168A0FB015003461920A9FB7F
:103B800000712A463846FCF71BFB6421B0FBF1F0BC
:103B900000EBC00101EB0010ABEB8000322101EB28
:103BA000C0006421B0FBF1F000F007005044216830
:103BB00088606AE004206168A0FB01500346192078
:103BC000A9FB007001462A463846FCF7F9FA8246FE
:103BD00004206168A0FB015003461920A9FB007076
:103BE00001462A463846FCF7EBFA6421B0FBF1F0B7
:103BF00000EBC00101EB0010AAEB8000322101EBC9
:103C000000106421B0FBF1F000F0F00A04206168BC
:103C1000A0FB017003461920A9FB00513A46284633
:103C2000FCF7CEFA6421B0FBF1F00AEB001A042095
:103C30006168A0FB01510B461920A9FB00712A46BF
:103C40003846FCF7BDFA834604206168A0FB0150AA
:103C500003461920A9FB007001462A463846FCF7A6
:103C6000AFFA6421B0FBF1F000EBC00101EB0010F2
:103C7000ABEB8000322101EB00106421B0FBF1F0CE
:103C800000F00F00504421688860BDE8F88F000004
:103C9000001001400014014010B5034699629A8556
:103CA000DA8500201864222083F83E0000BF00203F
:103CB00083F83C0000BF1868C06840F480701C683E
:103CC000E0601868406940F001001C686061186895
:103CD000C06840F020001C68E060002010BD014674
:103CE00091F83D00212828D18868B0F5805F0BD17C
:103CF000086948B90A6A1088C0F308000B68586060
:103D0000086A801C086205E00B6A581C0862187873
:103D10000B685860C88C401E80B2C88458B90868C7
:103D2000C06820F080000B68D8600868C06840F068
:103D300040000B68D860002070470220FCE72DE9A6
:103D4000F04104460D4617469846069E34E0701C26
:103D500088B32EB1FCF7ECFDA0EB0800B0422BD9E4
:103D600000BF00BF21680C3151E8001F21F4D07062
:103D700021680C3141E80002002AF3D100BF00BFE6
:103D800000BF2168143151E8001F21F001002168B3
:103D9000143141E80002002AF3D100BF202084F84A
:103DA0003D0084F83E0000BF002084F83C0000BFC6
:103DB0000320BDE8F081FFE7206800682840A842A2
:103DC00001D1012000E00020B842C0D00020F0E77F
:103DD00010B50B48008808B9012000E00020084910
:103DE000088008460088074908600748006800689E
:103DF000C0F3401010B10448FDF762FE10BD000092
:103E000018000020988242420438002008B500BF04
:103E1000002000901748006840F010001549086025
:103E20000846006800F01000009000BF00BF124874
:103E30001249086012488862052088854FF4E130F5
:103E400048600C210D4841610021C1608160016121
:103E50008161C161FDF7A4FF08480068C06840F0B7
:103E6000200006490968C8600448828D816AFEF70F
:103E70000DF808BD4438024000100140043800200D
:103E80001C05002000BFFEE738B59F2000900020F1
:103E90000F4908604FF4FA73012269460D48FDF797
:103EA0006AFB4FF4FA7303220B490A48FDF752FAF2
:103EB00001200A49C1F89802002406E00648015D85
:103EC00007A000F0A7F9601CC4B2032CF6DB38BDD4
:103ED0009802434248380020200500200000434259
:103EE000257820007CB504460D461646002000903B
:103EF000FEF78CFE00201A490860032001904FF461
:103F0000FA73012201A91748FDF735FBC4F30740F6
:103F100000904FF4FA73012269461248FDF72BFB1B
:103F2000C4F3072000904FF4FA73012269460D484C
:103F3000FDF721FBE0B200904FF4FA7301226946CD
:103F40000848FDF718FB4FF4FA7332462946054836
:103F5000FDF700FA01200449C1F898027CBD000079
:103F600098024342483800200000434210B50446FE
:103F70004FF480501A4908800BE0194801880088E6
:103F8000401E174A108021B90020FEF773FEC0B210
:103F900010BD144800688068C0F340000028ECD0D1
:103FA00010480068C4604FF480500D4908800BE051
:103FB0000B4801880088401E094A108021B9012061
:103FC000FEF758FEC0B2E3E706480068806800F0DC
:103FD00001000028ECD003480068C068C0B2D7E7F1
:103FE00028050020483800207CB504460D460020F6
:103FF000009000F03DF8FEF709FE2020019000201F
:1040000019490860002627E04FF4FA73012201A93C
:104010001648FDF7B0FAC4F3074000904FF4FA7366
:10402000012269461148FDF7A6FAC4F30720009063
:104030004FF4FA73012269460C48FDF79CFAE0B28E
:1040400000904FF4FA73012269460848FDF793FA8D
:1040500004F58054701CC6B2AE42D5DB0120024983
:104060000860FEF7D3FD7CBD98024342483800202B
:1040700008B5062000900020064908604FF4FA7346
:10408000012269460448FDF776FA01200349C1F888
:10409000980208BD9802434248380020000043427D
:1040A0002DE9FC5F074688461646002001908146B0
:1040B000834682460025009007F0FF0ACAF5807506
:1040C0004FEA162906F0FF0BBAF1000F1DD1B9F126
:1040D000000F05D132464146384600F055F851E010
:1040E000002409E008EB04214FF48072384600F008
:1040F0004BF807F58077641C4C45F3D308EB04219B
:104100005A46384600F040F83CE0B9F1000F16D1AD
:10411000B54205D332464146384600F035F831E025
:104120002A464146384600F02FF82F44A81B00903D
:1041300008EB05013846009A00F026F822E0761BCD
:104140004FEA162906F0FF0B2A464146384600F092
:104150001BF82F4400240BE005EB042000EB0801C2
:104160004FF48072384600F00FF807F58077641C32
:104170004C45F1D305EB042000EB08015A463846C4
:1041800000F002F8BDE8FC9F7CB504460D461646DB
:1041900000200090FFF76CFFFEF738FD00201B4960
:1041A0000860022001904FF4FA73012201A9184817
:1041B000FDF7E1F9C4F3074000904FF4FA730122D0
:1041C00069461348FDF7D7F9C4F3072000904FF470
:1041D000FA73012269460E48FDF7CDF9E0B200906E
:1041E0004FF4FA73012269460948FDF7C4F903E068
:1041F0002878FFF7BBFE6D1C301EA6F10106F7D133
:10420000012002490860FEF701FD7CBD980243428F
:10421000483800200FB4054B10B503A9044A029892
:1042200000F034F810BC5DF814FB00005D6100087C
:104230003405002002480068C0F3022070470000E7
:104240000CED00E010B5002804DB0A07130E054A48
:10425000135406E00A07140E034A00F00F031B1F55
:10426000D45410BD00E400E018ED00E002E008C8FE
:10427000121F08C1002AFAD170477047002001E0E0
:1042800001C1121F002AFBD1704700002DE9FF4F2A
:104290008DB09B460F460446002606E025280BD02D
:1042A0005A460F999047641C761C20780028F5D157
:1042B00011B03046BDE8F08F0025A846012298498C
:1042C00000E0054314F8013F203B02FA03F00842E6
:1042D000F7D120782E2817D114F8010F45F00405E6
:1042E0002A280ED06FF02F022078A0F13001092982
:1042F0000AD808EB880102EB410100EB0108641CBD
:10430000F2E757F8048B641C20786C280DD004DC8D
:104310004C2812D06A2811D104E074280DD07A28D4
:104320000CD10AE045F4001507E0617845F48015EA
:10433000814202D1641C05F58015641C2278692A2B
:1043400045D008DC002AB3D0582A69D0632A10D09F
:10435000642A08D13BE0702A67D0732A13D0752AEB
:104360005CD0782A5CD010465A460F999047761C4C
:10437000D3E017F8040B8DF8000000208DF8010041
:10438000E946012003E057F8049B4FF0FF3069072E
:104390004FF0000501D40AE06D1C45450DDA854259
:1043A000FADB19F805100029F6D106E06D1C8542EC
:1043B000FCDB19F805100029F8D12E4404E019F8A7
:1043C000010B5A460F9990476D1EF8D2A5E00A20BE
:1043D0000021CDE90801C5F3025002280DD001CF1C
:1043E000C117031E71F100030DDA4FF0000CD0EB82
:1043F0000C006CEB01012D2308E0FF1D27F00707DF
:10440000F7E80201EDE72B0504D52B238DF82830C2
:1044100001233BE0EB0739D02023F7E70A2000E037
:1044200010200021CDE9080107E01020002145F00F
:104430000405CDE908014FF00808C5F30250022831
:104440000FD001CF00214FF0000A2B071FD5702A93
:104450000DD0DDE908C38CF0100C5CEA030C0CD025
:1044600015E0FF1D27F00707F7E80201EBE7402200
:104470008DF828204FF0010A0BE050EA010306D026
:1044800030238DF828308DF8292002239A46582AA7
:1044900004D024A20DF120090B9209E026A2F9E72D
:1044A000DDE90823FBF78CFE0B9B9B5C09F8013DC3
:1044B00050EA0102F4D1ADEB090020300890680702
:1044C00001D44FF001080899884502DDA8EB0100EE
:1044D00000E000208046002506E00AA85A46405D1C
:1044E0000F9990476D1C761C5545F6DB04E0302093
:1044F0005A460F999047761CB8F10001A8F10108BF
:10450000F5DC05E019F8010B5A460F999047761C27
:104510000899481E08900029F4DC641CC5E60000D8
:104520000928010030313233343536373839616289
:10453000636465660000000030313233343536374D
:1045400038394142434445460000000070B50446F6
:104550000D460020E070401E60632946204602F0B0
:1045600099FA08B1042070BD04F2362002F005F873
:104570004AF65521884201D00320F4E700BF94F8A1
:104580003800E92807D094F83800EB2803D094F8D5
:104590003800E82811D1032209A104F16E0002F0CD
:1045A000D7F808B90020DEE7052206A104F18A0049
:1045B00002F0CEF808B90020D5E70220D3E70000CA
:1045C000464154004641543332000000024600E0A8
:1045D000521C107810B110788842F9D110787047C9
:1045E0000246891ED069801E884201D8002070478B
:1045F0005389106B03FB0100F9E700002DE9F04738
:1046000080460C4604F11A0001F0B7FF10B10020FB
:10461000BDE8F087207800F03F00401E00EB8001ED
:1046200001EBC0054FF00109002621E01849895D22
:10463000081901F0A2FF0746B9F1000F11D0FF2DB4
:104640000BD8384601F0A2FC824629466D1C38F88A
:10465000110001F09BFC824501D00020D8E7B9464B
:1046600005E04FF6FF70874201D00020D0E7761CAE
:104670000D2EDBD3207800F0400038B1B9F1000FE7
:1046800004D038F8150008B10020C1E70120BFE7C9
:10469000A47D00082DE9F04782468846DAF80040FC
:1046A000B8F1000F06D1676917B1E069B84215D8B3
:1046B000012713E04146504601F0C4FD0546022D96
:1046C00002D20120BDE8F087681C08B92846F9E746
:1046D000E069A84201D92846F4E74746A06908B92D
:1046E0000020EFE70026474518D17E1CE069B04264
:1046F00000D802263146504601F0A4FD0546012DA2
:1047000001D0681C08B92846DCE73DB16569022D77
:1047100003D3E069A84200D92F460026E6B93E46F9
:1047200000BF761CE069B04204D80226BE4201D91F
:104730000020C7E73146504601F084FD054605B923
:1047400009E0012D01D0681C08B92846BAE7BE422D
:10475000E7D10020B6E700BF4FF0FF3231462046D8
:1047600002F0F8F98146B9F1000F08D1B8F1000F55
:1047700005D032464146204602F0ECF98146B9F1B7
:10478000000F0DD16661D4E90610801E814202D867
:10479000A069401EA061207940F00100207107E06F
:1047A000B9F1010F02D14FF0FF3000E001200646C1
:1047B000304687E72DE9F34F85B0814606980068BB
:1047C0000290D9F80000D0F810A0002500BF02A880
:1047D00002F0D7FB83460BF1010018B9062007B0A1
:1047E000BDE8F08FBBF5803F05D34FEA1B4228465A
:1047F0006D1C2AF810201FFA8BF4202C03DB2F2CC1
:1048000001D05C2C00D111E0802C06DA214679A081
:10481000FFF7DCFE08B10620E1E7FF2D01D30620FB
:10482000DDE728466D1C2AF81040D0E700BF202C99
:1048300001DA04260CE0002602E00298401C0290F7
:10484000029800782F28F8D0029800785C28F4D0DD
:1048500002990698016008E0681E3AF81040202C82
:1048600002D02E2C00D002E06D1E002DF4D100BF2E
:1048700000202AF815000DB90620B0E7002700E057
:104880007F1C3AF817002028FAD01FB93AF8170011
:104890002E2801D146F0030600E06D1E25B1681EEA
:1048A0003AF810002E28F8D10B22202109F120001F
:1048B00001F06DFF4FF00008CDF810800820039044
:1048C00000BF38467F1C3AF8104004B966E0202C3F
:1048D00003D02E2C04D1AF4202D046F00306F0E7FD
:1048E000DDE90310884201D2AF4216D103980B28AC
:1048F00002D146F0030651E0AF4201D046F0030674
:10490000AF4200D94AE02F46082004900B200390C4
:104910004FEA88604FEA1068D3E7802C0ADB46F044
:104920000206204601F032FB4FF46A71019001F05B
:10493000F3FA0446FF2C11DD0398401E04998842C7
:1049400004D846F0030603980490BAE722120498AC
:10495000411C049109F120010A5418E024B12146B8
:1049600027A0FFF733FE18B15F2446F003060EE0E0
:10497000412C03DB5A2C01DC48F00208612C06DBD9
:104980007A2C04DC48F00108A4F1200084B20498D9
:10499000411C049109F120010C5492E700BF99F8E1
:1049A0002000E52802D1052089F820000398082876
:1049B00003D14FEA88604FEA106808F00C000C2819
:1049C00003D008F00300032801D146F0020606F0E8
:1049D000020048B908F0010008B146F0100608F0DE
:1049E000040008B146F008062B2000F809600020FA
:1049F000F5E60000222A3A3C3E3F7C7F00000000A2
:104A00002B2C3B3D5B5D00002DE9FF4F85B09A46A6
:104A100003AA0121059800F097FB18B1012009B005
:104A2000BDE8F08FDDF80C904FF03F08082701E05B
:104A30007806070E37B1B9FBF7F0B0FBF8F0B0F528
:104A4000806FF5D807B9FF274FF4805200215046F8
:104A500001F09DFE0AF5DF764FF0000B444669E059
:104A6000069850F82B50642D07D801D1484603E032
:104A70006420B9FBF0F0684305466019484501D849
:104A8000601901D3A9EB040505B959E0214606F1E7
:104A9000080002F0E7F9294606F10C0002F0E2F9FD
:104AA00007983071B4FBF8F0B0FBF7F00490B4FB5A
:104AB000F8F0B0FBF7F107FB1100C0B20290B4FBB5
:104AC000F8F008FB1040401CC0B2019002987070D2
:104AD000C021049801EA900001990843B07004983D
:104AE000F0706019401EB0FBF8F0B0FBF7F00490D6
:104AF0006019401EB0FBF8F0B0FBF7F107FB1100A6
:104B0000C0B202906019401EB0FBF8F108FB110022
:104B1000401CC0B2019002987071C021049801EA53
:104B2000900001990843B0710498F07110360BF1B0
:104B3000010B2C44BBF1040F02D20CB14C458FD3B6
:104B400000BF4AF655210AF5FF7002F097F90123DC
:104B500000225146059800F032FB08B101205EE7C3
:104B600000205CE701460B48007888420FDC0948CA
:104B70004078884201DB01207047064880788842EF
:104B800005DC0448C078884201DB0120F4E70020FE
:104B9000F2E70000B17D0008014610480079884224
:104BA00019DC0E484079884201DB012070470B4830
:104BB0008079884205DC0948C079884201DB012000
:104BC000F4E70648007A884205DC0448407A8842C7
:104BD00001DB0120EAE70020E8E70000B17D0008E2
:104BE0002DE9F04104460E46D4F80080002120460D
:104BF00000F04BFA0546EDB9002700BF4046A16919
:104C000001F048FF054605B113E0E0690078E528AA
:104C100002D0E069007820B9781C0746B04201D183
:104C200007E000270121204600F0B8F80546002DD6
:104C3000E4D000BF042D00D107252846BDE8F0814F
:104C40002DE9F04704468946204602F075F910B177
:104C50000120BDE8F08749462046FFF7C1FC064623
:104C600066634FF48052002104F1380001F08FFD9B
:104C700004F138080127002500E03D446089A8427E
:104C800007D9721960783B46414600F098FA00282F
:104C9000F3D06089A84201D00120DAE70020D8E7EC
:104CA0002DE9F0470446D4F800A00021204600F08A
:104CB000ECF9064616B13046BDE8F0874FF0FF0824
:104CC000C1464FF0FF30E06200BF5046A16901F0DD
:104CD000E1FE064606B15EE0E06905780DB90426FE
:104CE00059E0E069C07A00F03F07A771E52D04D0D4
:104CF00007F0080038B10F2F05D04FF0FF084FF034
:104D0000FF30E06240E00F2F22D12B20005D00F049
:104D1000400098BB05F0400038B1E06990F80D9074
:104D200005F0BF05A8462069E06245450CD1E06961
:104D3000407B484508D1E169DAF81000FFF75EFCD6
:104D400010B1A8F1010000E0FF2000F0FF081BE017
:104D5000B8F1000F05D1E06902F096F8484500D19E
:104D600019E02B20005D00F0010040B90B2204F196
:104D70002001E06901F0ECFC08B90CE004E04FF020
:104D8000FF084FF0FF30E0620021204600F006F8F7
:104D90000646002E99D000BF30468DE72DE9F04140
:104DA000044688462668206900F12007B7F5001FF1
:104DB00001D30020A061A06910B90420BDE8F081F2
:104DC000B089B7FBF0F100FB1170002847D1A06952
:104DD000401CA061606938B93089B0EB571F3ED8DC
:104DE0000020A0610420E9E7B089B7FBF0F07189E9
:104DF000491E084098BB2046616901F023FA054628
:104E0000012D01D80220D9E7681C08B90120D5E797
:104E1000F069A8421DD8B8F1000F03D10020A061AD
:104E20000420CBE720466169FFF734FC05460DB945
:104E30000720C3E7012D01D10220BFE7681C08B994
:104E40000120BBE729463046FFF7FAFE08B10120F2
:104E5000B4E7656129463046FFF7C2FBA0612761D0
:104E6000B089B7FBF0F100FB117106F1380008447E
:104E7000E0610020A2E72DE9F05F044689460426A0
:104E8000D4F800A04FF0FF08C34653E05046A16994
:104E900001F000FE064606B14FE0E06905780DB965
:104EA00004264AE0E069C07A00F03F07A771E52DCB
:104EB0000AD02E2D08D027F02000082801D101208B
:104EC00000E00020484502D04FF0FF082BE00F2FF4
:104ED0001DD105F0400038B1E06990F80DB005F043
:104EE000BF05A8462069E06245450CD1E069407BDA
:104EF000584508D1E169DAF8100001F0E5FD10B17C
:104F0000A8F1010000E0FF2000F0FF080BE0B8F17D
:104F1000000F04D1E06901F0B7FF584502D04FF00F
:104F2000FF30E06209E000212046FFF737FF064628
:104F300006B102E0A0690028A8D100BF0EB1002090
:104F4000A0613046BDE8F09F2DE9FE4F044626687B
:104F50002B20005D00F0A00010B10620BDE8FE8F00
:104F60004FF0000901E009F10109306930F819003A
:104F70000028F8D10C2204F12001684601F0FAFB68
:104F80009DF80B0000F0010028B340212B200155B3
:104F90004FF001080EE04346694604F120003269F3
:104FA00001F0EAF82046FFF77BFE054605B104E074
:104FB00008F10108B8F1640FEDD300BFB8F1640F38
:104FC00001D10720CAE7042D01D02846C6E79DF885
:104FD0000B102B2001559DF80B0000F0020030B1A2
:104FE00009F10C000D21B0FBF1F0401C00E00120A4
:104FF000074639462046FFF7F3FD05464DBB781EB0
:10500000071E26D02069A0EB4711204600F03DF88E
:105010000546F5B904F1200001F036FF824600BFD5
:105020003046A16901F036FD054605B110E0FAB23F
:10503000E1695346306901F055FE0120F07000210E
:105040002046FFF7ABFE054615B9781E071EE7D1CF
:1050500000BFC5B93046A16901F01CFD054695B9F0
:1050600020220021E06901F092FB0B2204F12001D3
:10507000E06901F07FFB2B20005D00F01800E16982
:1050800008730120F070284668E72DE9F0410446D6
:105090000E462568B6F5001F02D206F01F0010B1BB
:1050A0000220BDE8F0812661A7681FB9287803288F
:1050B00000DBEF6A47B92889B0EB561F01D8022000
:1050C000EFE7E86AA0611DE06889A98900FB01F8A3
:1050D00011E03946204601F0B5F80746781C08B9BA
:1050E0000120DEE7022F02D3E869B84201D802208E
:1050F000D7E7A6EB08064645EBD239462846FFF728
:105100006FFAA0616761A06908B90220C9E7A889A0
:10511000B6FBF0F0A1690844A061A889B6FBF0F1E4
:1051200000FB116105F138000844E0610020B8E798
:1051300070B5054635B9FDF7B3FCFEF7A5FE0024B2
:10514000204670BD0120FCE710B50346ABB901292C
:1051500004D0022906D003290BD107E04FF42060C8
:10516000106006E04FF48050108002E001201060D3
:1051700000BF00BF0024204610BD0420FCE72DE93D
:10518000F0470546894614461E467DB904F5C064BD
:105190004FEA04384FF6FF7000EA063249464046AF
:1051A000FEF7A0FE00273846BDE8F0870420FBE7A5
:1051B000014611B90022104670470120FCE72DE995
:1051C000F0470546894614461E4685B904F5C06475
:1051D0004FEA043801214046FEF706FF32034946F4
:1051E0004046FEF75DFF00273846BDE8F087042003
:1051F000FBE738B50546284600F00AFE04463CB9F0
:105200006946284601F0E3FE04460CB900202860F8
:10521000204638BD38B504466946204601F0D7FE21
:1052200005460DB900202060284638BD2DE9FF4F06
:1052300097B00E4617A801F05AF90290029800287C
:1052400003DA0B201BB0BDE8F08FFC49029851F83F
:10525000200028B10021F94A029852F8200001707C
:105260000298C0B214900020139006B9F44E14981E
:10527000FFF75EFF0190019800F0010008B10320E4
:10528000E0E7019800F0040008B10A20DAE770684E
:105290001090109838B910AA03211498FFF754FF02
:1052A00008B101201090109840B11098B0F5004F4F
:1052B00004D81098401E1099084008B101201090A1
:1052C00012AA02211498FFF73FFF08B10120B9E7A5
:1052D000BDF84800B0F5805F0BDCBDF84800B0F5C4
:1052E000007F06DBBDF84800401EBDF848100840AE
:1052F00008B10120A6E7307800F00F001690707812
:10530000012804DB7078022801DC707800E00120BD
:105310000490B16889B1B168B1F5004F0DD8BDF8FE
:105320004800C11700EBD1614911B268B2FBF1F33B
:1053300001FB132109B9B16801E04FF40071039139
:10534000F068B0F1807F05D8F068411E084008B9C8
:10535000F06800E000200590BDF848100598B0FB0B
:10536000F1F00590BDF848101A98B0FBF1F01190DB
:10537000119808B9112065E7199C0CB9112061E753
:105380004FF0000ACDF838A000BF0EAA01211498F2
:10539000FFF7DAFE08B1012054E7169800F0080084
:1053A00040B90E983F2805D94FF03F0A0E98A0EB60
:1053B0000A000E900E98802801D20E2042E700BF0E
:1053C00000BF0598802801D980200590169800F02C
:1053D000020028B1169800F0010008B9032707E081
:1053E000169800F0010008B913202BE7022700BF30
:1053F00000BF00BF059D032F2DD195B90E984FEA30
:1054000050494FF0000B012502E00BF1010B6D003C
:105410008C4830F81B0020B18A4830F81B00484502
:10542000F3D90E98B0FBF5F8082000EB8800BDF822
:1054300048100844401EB0FBF1F00790202008906F
:10544000002006904FF6F570804502D97E488045D1
:1054500039D90E20F6E695B90E984FEA10394FF07B
:10546000000B012502E00BF1010B6D00774830F8CD
:105470001B0020B1754830F81B004845F3D90E9841
:10548000B0FBF5F840F6F570804503D9042000EB39
:10549000480906E0012708EB4800401C032101EB06
:1054A0005009BDF848004844401EBDF84810B0FB04
:1054B000F1F007900120089003984001BDF84810D2
:1054C000B0FBF1F00690089850440D90049A0799AB
:1054D0000D9801FB0201069808440C9010990C9855
:1054E0000844401E491E20EA01010C98A1EB000966
:1054F000032F06D10898484408900D9848440D9011
:1055000013E00498B9FBF0F100FB119038B1A9F158
:1055100001090898401C08900D98401C0D900498B3
:10552000B9FBF0F10798084407900C9800EB0510C0
:10553000A0EB0A000E99884201D90E2082E60E994E
:1055400008980A1A0499079800FB11210698081A6E
:10555000B0FBF5F8032F0BD14FF6F570804507D857
:10556000059818B96808059000B135E00E2069E685
:10557000022F28D14FF6F570804517D9059830B91C
:105580004020B0EB450F02D36800059024E0169848
:1055900000F0020008B103271EE0059820B968005A
:1055A0000590802800D817E00E204BE640F6F570F5
:1055B000804508D8059820B968000590802800D853
:1055C0000AE00E203EE6012F05D140F6F570804539
:1055D00001D90E2036E600E00CE700BFBDF84820F8
:1055E0000021204601F0D3F80B2219A1204601F03A
:1055F000C1F8BDF8481004F10B0001F03FFC6573E1
:10560000089881B204F10E0001F038FC049820746F
:10561000032F01D1002000E0039881B204F11100B2
:1056200001F02CFC0E98B0F5803F17D20E9881B295
:1056300004F1130001F022FC15E000002C0500200D
:10564000D87D0008CA7D0008F5FFFF0FBC7D00086B
:10565000EBFE904D53444F53352E300004F12000A3
:105660000E9901F0FFFBF82060753F2104F118004E
:1056700001F004FCFF2104F11A0001F0FFFB514688
:1056800004F11C0001F0EEFB032F25D1944904F135
:10569000430001F0E7FB04F12400079901F0E2FB6D
:1056A000022104F12C0001F0DDFB012104F13000A6
:1056B00001F0E4FB062104F1320001F0DFFB802061
:1056C00084F84000292084F84200132285A104F1C7
:1056D000470001F04FF816E0814904F1270001F07E
:1056E000C1FB079881B204F1160001F0C7FB8020CE
:1056F00084F82400292084F8260013227EA104F1D6
:105700002B0001F037F84AF6552104F5FF7001F03F
:10571000B5FB0123524621461498FFF750FD08B10E
:1057200001208FE5032F34D101230AF1060221461F
:105730001498FFF744FDBDF848200021204601F0F1
:1057400026F87249204601F08DFB714904F5F2708C
:1057500001F088FBA8F1010104F5F47001F082FB6F
:10576000022104F5F67001F07DFB4AF6552104F59F
:10577000FF7001F083FB01230AF107022146149810
:10578000FFF71DFD01230AF1010221461498FFF7DE
:1057900016FDBDF84810119800FB01F200212046CB
:1057A00000F0F5FF0D980B904FF0000B41E0032F38
:1057B0000FD16FF00701204601F054FB391F201D67
:1057C00001F050FB6FF0704104F1080001F04AFB5A
:1057D00009E0012F01D14F4801E06FF007000146B9
:1057E000204601F03FFB07980F9000BF11990F98DA
:1057F000884201D9119800E00F9881464B46214616
:105800000B9A1498FFF7DBFC08B101201AE5BDF8EC
:1058100048200021204600F0BAFF0B9848440B9026
:105820000F98A0EB09000F900F980028DED10BF124
:10583000010B04988345BAD3032F01D1284600E019
:1058400006980F9000BF11990F98884201D91198BE
:1058500000E00F9881464B4621460B9A1498FFF7BB
:10586000AEFC08B10120EDE40B9848440B900F9872
:10587000A0EB09000F900F980028E4D100BF032F80
:1058800002D10C2015900CE00E98B0F5803F02D3A9
:105890000620159005E0022F01D1042000E0012030
:1058A000159000BF169800F0080070B90E98099086
:1058B00000200A90234609A9DDE91402FFF7A4F8A5
:1058C0000090009808B10098BCE40022114614989A
:1058D000FFF73AFC08B10120B4E40020B2E4000074
:1058E0000000214E4E4F204E414D452020202046A5
:1058F00041543332202020004E4F204E414D452050
:105900002020204641542020202020005252614176
:1059100072724161F8FFFF00F7B582B01646039836
:10592000019001A800F0E3FD0546002D02DA0B20EE
:1059300005B0F0BD0C4850F825400CB10020207097
:10594000029810B10020029908700749029841F8A6
:1059500025000EB90020EBE7002202A903A800F001
:105960001FFF07463846E3E72C0500202DE9F74FD7
:10597000ADF50E7D0446164624B909200DF5117DBE
:10598000BDE8F08F06F03F06324681A98FA800F0EF
:1059900007FF0546002D7DD18198829001A881994D
:1059A000086182A88F9900F085FB05462DB99DF806
:1059B000330200F0800000B1062506F01C0000282C
:1059C0004DD045B1042D03D182A8FFF7BDFA05469D
:1059D00046F008060AE09DF80E0200F0110008B13A
:1059E000072503E006F0040000B10825002D47D18B
:1059F00006F00800002843D08999819800F09EFDA8
:105A00008146899901F10E00574901F02BFA2020B7
:105A10008999C87200228999819801F011FA8999AF
:105A200001F11C00002101F01DFA01208199C870CC
:105A3000B9F1000F24D08198D0F834A00022494653
:105A400082A801F0B0F90546D5B95146819801F018
:105A500021F80546A9F101008199486110E07DB95E
:105A60009DF80E0200F0100008B1042508E006F0D1
:105A7000020028B19DF80E0200F0010000B10725D8
:105A80005DB906F0080008B146F040068198406B09
:105A9000206200E052E089986062002D5FD1899910
:105AA000819800F04BFDA060899901F11C0000F085
:105AB00058FDE060819820608198C088A08026749D
:105AC00000206074E06160614FF48052002104F1B5
:105AD000280000F05CFE06F0200078B3E06868B3B0
